:100000000C942E000C947F050C94EE050C945D0668
:100010000C94CC060C943B070C944B000C94210ED2
:100020000C944B000C94D00D0C94AA070C94190856
:100030000C9488080C94F7080C9466090C94D50964
:100040000C94440A0C94B30A0C94220B0C94910B5C
:100050000C94000C0C946F0C0C94DE0C11241FBE3D
:10006000CFEFD4E0DEBFCDBF11E0A0E0B1E0ECEF18
:10007000F2E202C005900D92A433B107D9F724E053
:10008000A4E3B1E001C01D92A738B207E1F70E94D6
:100090002D040C947C110C9400009EB1672B11F080
:1000A00080E401C080E189278EB90895CF92DF9264
:1000B000EF92FF920F931F93FC0122853385848179
:1000C000958104851585232B51F02AE0289F600136
:1000D000299FD00C112484E0C80ED11C06C02AE050
:1000E000289F6001299FD00C112480E0E82E84E035
:1000F000F82E20E030E0A90160E070E0CB010E9422
:10010000AA0E1F910F91FF90EF90DF90CF9008956E
:10011000CF92DF92EF92FF920F931F93CF93DF93D3
:10012000EC018C819D81892B21F488859985892B0F
:1001300081F1CA84DB840E851F859DE4E92E90E061
:10014000F92E20E030E0A90160E070E0CB010E94D0
:10015000AA0E198618866C817D8184EF91E00E9439
:10016000BC102DE730E0DB010E94EF1024E030E00E
:1001700040E050E00E94D010CA01B901C12CD12C3E
:1001800028E8E22E20E0F22E8E0120E030E0A901E6
:100190000EC0C12CD12C88E8E82E80E0F82E8E010C
:1001A00020E030E0A90169E07DE380E090E00E947A
:1001B000AA0EDF91CF911F910F91FF90EF90DF90EA
:1001C000CF900895CF92DF92EF92FF920F931F93FB
:1001D000FC01248135812336310599F08C012F5F94
:1001E0003F4F35832483C12CD12C86E5E82E80E057
:1001F000F82E20E030E0A90160E070E0CB010E9421
:10020000AA0E1F910F91FF90EF90DF90CF9008956D
:10021000CF92DF92EF92FF920F931F93FC01248104
:100220003581121613069CF48C0121503109358357
:100230002483C12CD12C86E5E82E80E0F82E20E026
:1002400030E0A90160E070E0CB010E94AA0E1F918E
:100250000F91FF90EF90DF90CF900895CF92DF92B3
:10026000EF92FF920F931F93FC0184819581009779
:1002700029F0978386831582148204C08681978132
:1002800095838483C12CD12C86E5E82E80E0F82E5E
:100290008F0120E030E0A90160E070E0CB010E9416
:1002A000AA0E1F910F91FF90EF90DF90CF900895CD
:1002B000CF92DF92EF92FF920F931F93FC01848104
:1002C0009581892B19F00085118502C0068117815F
:1002D000C12CD12C82EEE82E80E0F82E20E030E018
:1002E000A90160E070E0CB010E94AA0E1F910F915E
:1002F000FF90EF90DF90CF900895CF92DF92EF9232
:10030000FF920F931F93FC0184819581892B49F003
:1003100000851185C12CD12C98E0E92E91E0F92EB1
:1003200008C006811781C12CD12C80E0E82E84E022
:10033000F82E20E030E0A90160E070E0CB010E94DF
:10034000AA0E1F910F91FF90EF90DF90CF9008952C
:10035000CF92DF92EF92FF920F931F93CF93DF9391
:10036000EC010A851B85C12CD12C82EFE82E83E09D
:10037000F82E20E030E0A90160E070E0CB010E949F
:10038000AA0E81E090E02C813D81232B11F080E0CA
:1003900090E09D838C83DF91CF911F910F91FF900F
:1003A000EF90DF90CF900895CF92DF92EF92FF927F
:1003B0000F931F93FC0184819581892B19F000858F
:1003C000118502C006811781C12CD12C8EE2E82E46
:1003D00081E0F82E20E030E0A90160E070E0CB0180
:1003E0000E94AA0E1F910F91FF90EF90DF90CF9087
:1003F0000895CF92DF92EF92FF920F931F93CF93C6
:10040000DF93EC010E811F81C12CD12C88E8E82EEE
:1004100080E0F82E20E030E0A90160E070E0CB0140
:100420000E94AA0E0885198520E030E0A90160E04D
:1004300070E0CB010E94AA0EDF91CF911F910F9126
:10044000FF90EF90DF90CF900895E1E6F0E080E834
:10045000808310829FE09093E70097EB9093E500F4
:1004600097E09093E60090EC9093E40090ED95B9BE
:1004700084B98CE08EB98DB9ECE6F0E08081806DB6
:100480008083EBE6F0E080818C6080838DB3806CAC
:100490008DBB0895CF92DF92EF92FF920F931F933F
:1004A000FC0104811581C12CD12C8DEDE82E82E058
:1004B000F82E20E030E0A90160E070E0CB010E945E
:1004C000AA0E1F910F91FF90EF90DF90CF900895AB
:1004D000CF92DF92EF92FF920F931F93FC01048162
:1004E0001581C12CD12C88E2E82E83E0F82E20E083
:1004F00030E0A90160E070E0CB010E94AA0E1F91DC
:100500000F91FF90EF90DF90CF900895CF92DF9200
:10051000EF92FF920F931F93CF93DF93EC011F99FC
:1005200020C081E08E830C811D81C12CD12C2DE750
:10053000E22E21E0F22E20E030E0A90160E070E040
:10054000CB010E94AA0E36E8E32E32E0F32E8E0194
:1005500020E030E0A90165E37CE080E090E00E94CB
:10056000AA0E1E9920C081E08E830C811D81C12CB2
:10057000D12C88E5E82E81E0F82E20E030E0A901BA
:1005800060E070E0CB010E94AA0E96E8E92E92E0AE
:10059000F92E8E0120E030E0A90165E37CE080E0E7
:1005A00090E00E94AA0E1E82DF91CF911F910F91C1
:1005B000FF90EF90DF90CF900895CF92DF92EF926F
:1005C000FF920F931F93CF93DF93EC018E818111E4
:1005D00024C01F9910C0C12CD12C26E8E22E22E0A5
:1005E000F22E8E0120E030E0A90165E37CE080E09E
:1005F00090E00E94AA0E1E9910C0C12CD12C96E842
:10060000E92E92E0F92E8E0120E030E0A90165E3A9
:100610007CE080E090E00E94AA0E1C9910C00C8142
:100620001D81C12CD12C84EDE82E81E0F82E20E034
:1006300030E0A90160E070E0CB010E94AA0EDF91DA
:10064000CF911F910F91FF90EF90DF90CF90089581
:10065000CF92DF92EF92FF920F931F93CF93DF938E
:10066000639B02C0629913C0EC010C811D81C12CF7
:10067000D12C88EAE82E81E0F82E20E030E0A901B4
:1006800060E070E0CB010E94AA0E98878F83DF9113
:10069000CF911F910F91FF90EF90DF90CF90089531
:1006A000FC0180818970808325E030E0DF01A20FAA
:1006B000B31F9C919F709C932B5F3F4F243131055A
:1006C000A9F70895CF93DF9300D000D0CDB7DEB760
:1006D000FA0190ED980F9A3038F089E089838FE025
:1006E0008A838B838C8317C0AE014F5F5F4F24E0FA
:1006F000829FC001112420E030E0D901A80FB91F6A
:10070000A85BBF4F7C91DA017D93AD012F5F3F4F16
:100710002430310591F7611117C090818981892BAF
:10072000808395818A81892B858392858B81892B12
:10073000828797858C81892B87870F900F900F90E8
:100740000F90DF91CF910895DE0111969E012B5FEE
:100750003F4F8C918295807F8D932A173B07C9F775
:10076000DCCF882319F0CB010C945003FB0180816E
:100770008079808385E090E0FB01E80FF91F2081FC
:10078000207F2083059684319105B1F708951F934A
:10079000CF93DF93182F60FD10C077FF02C06F5F0B
:1007A0007F4F75956795EB01C451DF4FBE0180E027
:1007B0000E94B103AE0160E00FC0AB01415051098E
:1007C00057FDAB0155954795EA01C451DF4FCE0166
:1007D0000E945003AE0161E0812FDF91CF911F9104
:1007E0000C946203E9EFF0E08081817091E0892749
:1007F0008083EEEFF0E080818170982790830895E8
:10080000EF92FF920F931F93CF93DF93CB010AE0F8
:1008100010E0B8010E94BC107B01EC01CB0164E642
:1008200070E00E94BC10B8010E94BC10862FBE016F
:10083000805D0E94C7032196C701B8010E94BC10C9
:10084000BE01805D0E94C70380E090E0DF91CF9100
:100850001F910F91FF90EF900895EF92FF920F93E9
:100860001F93CF93DF93CDB7DEB7C754D1090FB62F
:10087000F894DEBF0FBECDBF0E942502FE01EC5BE7
:10088000FF4F11821082138212829E01225C3F4F21
:1008900086E0D9011D928A95E9F71A8A198A1C8A7D
:1008A0001B8A1E8A1D8A188E1F8A81E090E09A8F0B
:1008B000898F1C8E1B8EFE8FED8F38A32F8F1A828F
:1008C00019821C821B821E821D8218861F829A87B3
:1008D00089879C878B87FE87ED87388B2F871AA2A5
:1008E00019A21CA21BA29EA38DA3CE01419698A77C
:1008F0008FA340979AA789A7FCA7EBA7779789E0D2
:10090000DF011D928A95E9F77E01B1E2EB0EF11C41
:10091000FAAAE9AA8E010A5C1F4F88E0D8011D924D
:100920008A95E9F7FBAFEAAF42E06AE472E0C801FA
:100930000E94861041E068E672E0C8010E948610BD
:1009400040E050E069EF71E0C7010E94A010C95B70
:10095000DF4F0FB6F894DEBF0FBECDBFDF91CF9152
:100960001F910F91FF90EF900895CF93DF9300D0E8
:1009700000D0CDB7DEB7E7E1F2E027EF32E0CF01FC
:10098000409691838083FC0182179307C1F71092F0
:10099000F8021092F702E2E6F1E08FE791E091832E
:1009A00080838CE991E0968F858FA9EBB1E0B3AF9E
:1009B000A2AF1D921C92FA83E9831C821B8289815B
:1009C0009A8106960E943B118B819C818D599C4F88
:1009D000E981FA81978B868B918F808F83E290E1FA
:1009E000948F838F158214827D96FA83E983EB813D
:1009F000FC81E05AFF4FFC83EB83E038F140F9F6CD
:100A0000EAEFF1E0118210821582148213821282C1
:100A1000E1E6F0E080E88083108210928500109279
:100A2000840084E08093810081E080936F000F90C8
:100A30000F900F900F90DF91CF910895CF93DF9398
:100A400000D0CDB7DEB79A83898380910001909161
:100A5000010106960E943B11892B59F489819A81E4
:100A6000909301018093000161E070E006960E947E
:100A70005B110F900F90DF91CF9108950F931F930B
:100A8000CF93DF93C0913C01D0913D01209791F12C
:100A90008091040190910501009761F1E0910201BC
:100AA000F0910301A281B381109781F04E815F81A3
:100AB0006885798516960D911D912D913C91199718
:100AC000401B510B620B730B77FF14C0DC012D919F
:100AD0003C9111973093050120930401ED93FC9311
:100AE0009093030180930201DF91CF911F910F91A9
:100AF0000C941E05DF91CF911F910F9108951F92C5
:100B00000F920FB60F9211240F931F932F933F93C1
:100B10004F935F936F937F938F939F93AF93BF9305
:100B2000EF93FF93809134019091350100918400FF
:100B300010918500AC01092E000C660B770BBA01F1
:100B40005527442720E030E0402B512B622B732B9C
:100B50004093360150933701609338017093390107
:100B6000B09B1AC040918400509185000196092ED7
:100B7000000CAA0BBB0BDC019927882760E070E012
:100B8000842B952BA62BB72B80933601909337019E
:100B9000A0933801B0933901E091D601F091D701CB
:100BA000309739F060E070E080913E0190913F0114
:100BB00009950E943E05FF91EF91BF91AF919F91E2
:100BC0008F917F916F915F914F913F912F911F91E5
:100BD0000F910F900FBE0F901F9018951F920F92BC
:100BE0000FB60F9211240F931F932F933F934F93A0
:100BF0005F936F937F938F939F93AF93BF93EF9385
:100C0000FF938091340190913501009184001091FF
:100C10008500AC01092E000C660B770BBA01552735
:100C2000442720E030E0402B512B622B732B409364
:100C30003601509337016093380170933901B09BAE
:100C40001AC040918400509185000196092E000C35
:100C5000AA0BBB0BDC019927882760E070E0842B8E
:100C6000952BA62BB72B8093360190933701A09339
:100C70003801B0933901E091D801F091D901309752
:100C800039F061E070E08091400190914101099557
:100C90000E943E05FF91EF91BF91AF919F918F917F
:100CA0007F916F915F914F913F912F911F910F9184
:100CB0000F900FBE0F901F9018951F920F920FB6B6
:100CC0000F9211240F931F932F933F934F935F9392
:100CD0006F937F938F939F93AF93BF93EF93FF9304
:100CE000809134019091350100918400109185002C
:100CF000AC01092E000C660B770BBA01552744276F
:100D000020E030E0402B512B622B732B40933601B7
:100D1000509337016093380170933901B09B1AC02A
:100D200040918400509185000196092E000CAA0B79
:100D3000BB0BDC019927882760E070E0842B952BA2
:100D4000A62BB72B8093360190933701A0933801DF
:100D5000B0933901E091DA01F091DB01309739F07D
:100D600062E070E0809142019091430109950E94F8
:100D70003E05FF91EF91BF91AF919F918F917F9130
:100D80006F915F914F913F912F911F910F910F9014
:100D90000FBE0F901F9018951F920F920FB60F92D3
:100DA00011240F931F932F933F934F935F936F9350
:100DB0007F938F939F93AF93BF93EF93FF93809114
:100DC0003401909135010091840010918500AC01AF
:100DD000092E000C660B770BBA015527442720E03B
:100DE00030E0402B512B622B732B409336015093F4
:100DF00037016093380170933901B09B1AC040915C
:100E00008400509185000196092E000CAA0BBB0BA3
:100E1000DC019927882760E070E0842B952BA62BB6
:100E2000B72B8093360190933701A0933801B0938C
:100E30003901E091DC01F091DD01309739F063E098
:100E400070E0809144019091450109950E943E0512
:100E5000FF91EF91BF91AF919F918F917F916F9192
:100E60005F914F913F912F911F910F910F900FBE66
:100E70000F901F9018951F920F920FB60F9211248A
:100E80000F931F932F933F934F935F936F937F9392
:100E90008F939F93AF93BF93EF93FF938091340110
:100EA000909135010091840010918500AC01092ECC
:100EB000000C660B770BBA015527442720E030E081
:100EC000402B512B622B732B4093360150933701EB
:100ED0006093380170933901B09B1AC0409184002F
:100EE000509185000196092E000CAA0BBB0BDC016A
:100EF0009927882760E070E0842B952BA62BB72BD1
:100F00008093360190933701A0933801B093390153
:100F1000E091DE01F091DF01309739F064E070E09C
:100F2000809146019091470109950E943E05FF91ED
:100F3000EF91BF91AF919F918F917F916F915F9151
:100F40004F913F912F911F910F910F900FBE0F90D6
:100F50001F9018951F920F920FB60F9211240F93A6
:100F60001F932F933F934F935F936F937F938F9331
:100F70009F93AF93BF93EF93FF9380913401909130
:100F800035010091840010918500AC01092E000C00
:100F9000660B770BBA015527442720E030E0402B41
:100FA000512B622B732B4093360150933701609382
:100FB000380170933901B09B1AC040918400509160
:100FC00085000196092E000CAA0BBB0BDC019927AA
:100FD000882760E070E0842B952BA62BB72B80939D
:100FE000360190933701A0933801B0933901E09115
:100FF000E001F091E101309739F065E070E0809117
:1010000048019091490109950E943E05FF91EF9199
:10101000BF91AF919F918F917F916F915F914F9110
:101020003F912F911F910F910F900FBE0F901F9026
:1010300018951F920F920FB60F9211240F931F93C2
:101040002F933F934F935F936F937F938F939F93D0
:10105000AF93BF93EF93FF9380913401909135014B
:101060000091840010918500AC01092E000C660BE4
:10107000770BBA015527442720E030E0402B512B55
:10108000622B732B409336015093370160933801E4
:1010900070933901B09B1AC0409184005091850033
:1010A0000196092E000CAA0BBB0BDC01992788279F
:1010B00060E070E0842B952BA62BB72B8093360134
:1010C00090933701A0933801B0933901E091E20188
:1010D000F091E301309739F066E070E080914A01C9
:1010E00090914B0109950E943E05FF91EF91BF91B0
:1010F000AF919F918F917F916F915F914F913F91B0
:101100002F911F910F910F900FBE0F901F90189568
:101110001F920F920FB60F9211240F931F932F93CC
:101120003F934F935F936F937F938F939F93AF936F
:10113000BF93EF93FF93809134019091350100911B
:10114000840010918500AC01092E000C660B770B12
:10115000BA015527442720E030E0402B512B622B69
:10116000732B40933601509337016093380170938D
:101170003901B09B1AC040918400509185000196BE
:10118000092E000CAA0BBB0BDC019927882760E015
:1011900070E0842B952BA62BB72B80933601909370
:1011A0003701A0933801B0933901E091E401F09147
:1011B000E501309739F067E070E080914C01909143
:1011C0004D0109950E943E05FF91EF91BF91AF91AE
:1011D0009F918F917F916F915F914F913F912F914F
:1011E0001F910F910F900FBE0F901F9018951F9297
:1011F0000F920FB60F9211240F931F932F933F93CB
:101200004F935F936F937F938F939F93AF93BF930E
:10121000EF93FF9380913401909135010091840008
:1012200010918500AC01092E000C660B770BBA01FA
:101230005527442720E030E0402B512B622B732BA5
:101240004093360150933701609338017093390110
:10125000B09B1AC040918400509185000196092EE0
:10126000000CAA0BBB0BDC019927882760E070E01B
:10127000842B952BA62BB72B8093360190933701A7
:10128000A0933801B0933901E091E601F091E701B4
:10129000309739F068E070E080914E0190914F01F5
:1012A00009950E943E05FF91EF91BF91AF919F91EB
:1012B0008F917F916F915F914F913F912F911F91EE
:1012C0000F910F900FBE0F901F9018951F920F92C5
:1012D0000FB60F9211240F931F932F933F934F93A9
:1012E0005F936F937F938F939F93AF93BF93EF938E
:1012F000FF93809134019091350100918400109109
:101300008500AC01092E000C660B770BBA0155273E
:10131000442720E030E0402B512B622B732B40936D
:101320003601509337016093380170933901B09BB7
:101330001AC040918400509185000196092E000C3E
:10134000AA0BBB0BDC019927882760E070E0842B97
:10135000952BA62BB72B8093360190933701A09342
:101360003801B0933901E091E801F091E90130973B
:1013700039F069E070E08091500190915101099538
:101380000E943E05FF91EF91BF91AF919F918F9188
:101390007F916F915F914F913F912F911F910F918D
:1013A0000F900FBE0F901F9018951F920F920FB6BF
:1013B0000F9211240F931F932F933F934F935F939B
:1013C0006F937F938F939F93AF93BF93EF93FF930D
:1013D0008091340190913501009184001091850035
:1013E000AC01092E000C660B770BBA015527442778
:1013F00020E030E0402B512B622B732B40933601C1
:10140000509337016093380170933901B09B1AC033
:1014100040918400509185000196092E000CAA0B82
:10142000BB0BDC019927882760E070E0842B952BAB
:10143000A62BB72B8093360190933701A0933801E8
:10144000B0933901E091EA01F091EB01309739F066
:101450006AE070E0809152019091530109950E94D9
:101460003E05FF91EF91BF91AF919F918F917F9139
:101470006F915F914F913F912F911F910F910F901D
:101480000FBE0F901F9018951F920F920FB60F92DC
:1014900011240F931F932F933F934F935F936F9359
:1014A0007F938F939F93AF93BF93EF93FF9380911D
:1014B0003401909135010091840010918500AC01B8
:1014C000092E000C660B770BBA015527442720E044
:1014D00030E0402B512B622B732B409336015093FD
:1014E00037016093380170933901B09B1AC0409165
:1014F0008400509185000196092E000CAA0BBB0BAD
:10150000DC019927882760E070E0842B952BA62BBF
:10151000B72B8093360190933701A0933801B09395
:101520003901E091EC01F091ED01309739F06BE079
:1015300070E0809154019091550109950E943E05FB
:10154000FF91EF91BF91AF919F918F917F916F919B
:101550005F914F913F912F911F910F910F900FBE6F
:101560000F901F9018951F920F920FB60F92112493
:101570000F931F932F933F934F935F936F937F939B
:101580008F939F93AF93BF93EF93FF938091340119
:10159000909135010091840010918500AC01092ED5
:1015A000000C660B770BBA015527442720E030E08A
:1015B000402B512B622B732B4093360150933701F4
:1015C0006093380170933901B09B1AC04091840038
:1015D000509185000196092E000CAA0BBB0BDC0173
:1015E0009927882760E070E0842B952BA62BB72BDA
:1015F0008093360190933701A0933801B09339015D
:10160000E091EE01F091EF01309739F06CE070E07D
:10161000809156019091570109950E943E05FF91D6
:10162000EF91BF91AF919F918F917F916F915F915A
:101630004F913F912F911F910F910F900FBE0F90DF
:101640001F9018951F920F920FB60F9211240F93AF
:101650001F932F933F934F935F936F937F938F933A
:101660009F93AF93BF93EF93FF9380913401909139
:1016700035010091840010918500AC01092E000C09
:10168000660B770BBA015527442720E030E0402B4A
:10169000512B622B732B409336015093370160938B
:1016A000380170933901B09B1AC040918400509169
:1016B00085000196092E000CAA0BBB0BDC019927B3
:1016C000882760E070E0842B952BA62BB72B8093A6
:1016D000360190933701A0933801B0933901E0911E
:1016E000F001F091F101309739F06DE070E08091F8
:1016F00058019091590109950E943E05FF91EF9183
:10170000BF91AF919F918F917F916F915F914F9119
:101710003F912F911F910F910F900FBE0F901F902F
:1017200018951F920F920FB60F9211240F931F93CB
:101730002F933F934F935F936F937F938F939F93D9
:10174000AF93BF93EF93FF93809134019091350154
:101750000091840010918500AC01092E000C660BED
:10176000770BBA015527442720E030E0402B512B5E
:10177000622B732B409336015093370160933801ED
:1017800070933901B09B1AC040918400509185003C
:101790000196092E000CAA0BBB0BDC0199278827A8
:1017A00060E070E0842B952BA62BB72B809336013D
:1017B00090933701A0933801B0933901E091F20181
:1017C000F091F301309739F06EE070E080915A01AA
:1017D00090915B0109950E943E05FF91EF91BF91A9
:1017E000AF919F918F917F916F915F914F913F91B9
:1017F0002F911F910F910F900FBE0F901F90189572
:101800001F920F920FB60F9211240F931F932F93D5
:101810003F934F935F936F937F938F939F93AF9378
:10182000BF93EF93FF938091340190913501009124
:10183000840010918500AC01092E000C660B770B1B
:10184000BA015527442720E030E0402B512B622B72
:10185000732B409336015093370160933801709396
:101860003901B09B1AC040918400509185000196C7
:10187000092E000CAA0BBB0BDC019927882760E01E
:1018800070E0842B952BA62BB72B80933601909379
:101890003701A0933801B0933901E091F401F09140
:1018A000F501309739F06FE070E080915C01909124
:1018B0005D0109950E943E05FF91EF91BF91AF91A7
:1018C0009F918F917F916F915F914F913F912F9158
:1018D0001F910F910F900FBE0F901F9018951F92A0
:1018E0000F920FB60F9211240F931F932F933F93D4
:1018F0004F935F936F937F938F939F93AF93BF9318
:10190000EF93FF9380913401909135010091840011
:1019100010918500AC01092E000C660B770BBA0103
:101920005527442720E030E0402B512B622B732BAE
:101930004093360150933701609338017093390119
:10194000B09B1AC040918400509185000196092EE9
:10195000000CAA0BBB0BDC019927882760E070E024
:10196000842B952BA62BB72B8093360190933701B0
:10197000A0933801B0933901E091F601F091F7019D
:10198000309739F060E170E080915E0190915F01E5
:1019900009950E943E05FF91EF91BF91AF919F91F4
:1019A0008F917F916F915F914F913F912F911F91F7
:1019B0000F910F900FBE0F901F9018951F920F92CE
:1019C0000FB60F9211240F931F932F933F934F93B2
:1019D0005F936F937F938F939F93AF93BF93EF9397
:1019E000FF93809134019091350100918400109112
:1019F0008500AC01092E000C660B770BBA01552748
:101A0000442720E030E0402B512B622B732B409376
:101A10003601509337016093380170933901B09BC0
:101A20001AC040918400509185000196092E000C47
:101A3000AA0BBB0BDC019927882760E070E0842BA0
:101A4000952BA62BB72B8093360190933701A0934B
:101A50003801B0933901E091F801F091F901309724
:101A600039F061E170E08091600190916101099528
:101A70000E943E05FF91EF91BF91AF919F918F9191
:101A80007F916F915F914F913F912F911F910F9196
:101A90000F900FBE0F901F901895CF92DF92EF928C
:101AA000FF920F931F93CF93DF93DB01ED91FC9196
:101AB000A0E0B0E0309799F0C680D780E084F18450
:101AC000EC010E811F81288539850C151D052E0519
:101AD0003F052CF0DF010190F081E02DEBCFEC0110
:101AE000F983E883109721F4FB019183808302C07E
:101AF0008D939C93DF91CF911F910F91FF90EF9069
:101B0000DF90CF900895CF92DF92EF92FF920F93E4
:101B10001F93CF93DF93DB01ED91FC91A0E0B0E048
:101B2000309799F0C280D380E480F580EC010A817F
:101B30001B812C813D810C151D052E053F052CF0C8
:101B4000DF010190F081E02DEBCFEC01F983E88318
:101B5000109721F4FB019183808302C08D939C93A5
:101B6000DF91CF911F910F91FF90EF90DF90CF9079
:101B70000895DC01ED91FC911197309759F48FEFA6
:101B80008093EC008093ED008093EE0081E083BFB2
:101B90008895FDCF208131812D933C93CF0108950D
:101BA0001F920F920FB60F9211242F933F934F93D2
:101BB0005F938F939F93AF93BF93EF93FF93209186
:101BC0003401309135012F5F3F4F30933501209321
:101BD0003401E0913A01F0913B013097F1F08281BC
:101BE0009381A481B5812A173B07B9F49C014091E8
:101BF000840050918500841B950B019731F420914E
:101C00008400309185002F5F3F4F309389002093EF
:101C1000880080916F00826003C080916F008D7F8B
:101C200080936F00FF91EF91BF91AF919F918F9142
:101C30005F914F913F912F910F900FBE0F901F908A
:101C400018951F920F920FB60F921124CF92DF9228
:101C5000EF92FF922F933F934F935F936F937F93F6
:101C60008F939F93AF93BF93EF93FF938091340132
:101C700090913501C0908400D0908500B09B05C044
:101C8000C0908400D09085000196092E000CAA0B0C
:101C9000BB0BDC0199278827E12CF12CC82AD92A13
:101CA000EA2AFB2AE0913A01F0913B013097F9F0E2
:101CB00082819381A481B581AC01BD014C195D097C
:101CC0006E097F0914161506160617064CF08AE3EE
:101CD00091E00E94B90D6CE371E00E944D0DE2CFDE
:101CE00020913401309135012A173B07E1F08091B2
:101CF0006F008D7F80936F000E943E05FF91EF91F2
:101D0000BF91AF919F918F917F916F915F914F9113
:101D10003F912F91FF90EF90DF90CF900F900FBEEB
:101D20000F901F9018959C01409184005091850060
:101D3000841B950B019731F420918400309185002C
:101D40002F5F3F4F309389002093880080916F0070
:101D50008260D0CF3F924F925F926F927F928F922C
:101D60009F92AF92BF92CF92DF92EF92FF920F932A
:101D70001F93CF93DF932B013C0149015A018FB789
:101D80008078382EF89486E091E00E94B90DEC013D
:101D90001B870A87FD86EC86DF86CE86332061F0BE
:101DA000E0910001F09101010280F381E02D828138
:101DB0009381A481B58108C080913601909137014B
:101DC000A0913801B0913901480E591E6A1E7B1E40
:101DD0004A825B826C827D82181419041A041B04E7
:101DE00034F088248A94982CA82C5FE7B52E840CB4
:101DF000951CA61CB71C8E829F82A886B9868091EE
:101E00003401909135012091840030918500B09B80
:101E100005C020918400309185000196092E000CA8
:101E2000AA0BBB0BDC0199278827A90160E070E0B1
:101E3000842B952BA62BB72B481A590A6A0A7B0AC2
:101E40001414150416041704ACF56AE371E0CE010E
:101E50000E94830DE0913A01F0913B01309711F11E
:101E600082819381A481B581209134013091350123
:101E70002A173B07B9F49C014091840050918500DA
:101E8000841B950B019731F42091840030918500DB
:101E90002F5F3F4F309389002093880080916F001F
:101EA000826003C080916F008D7F80936F0031103E
:101EB0003CC03CC06CE371E0CE010E944D0D33206C
:101EC000A9F18091040190910501009771F1E091D1
:101ED0000201F091030120913C0130913D0102810A
:101EE0001381D90116964D915D916D917C91199751
:101EF000D80116960D911D912D913C911997401B7B
:101F0000510B620B730B77FF10C0DC012D913C91DC
:101F100011973093050120930401ED93FC93909366
:101F20000301809302010E941E057894CE01DF9187
:101F3000CF911F910F91FF90EF90DF90CF90BF90C6
:101F4000AF909F908F907F906F905F904F903F9059
:101F50000895CF92DF92FF920F931F93CF93DF9359
:101F6000EC018B016A018FB78078F82EF894888194
:101F700099810097A1F1DC011496ED91FC911597E0
:101F8000309719F080819181F6CFE0910001F091B6
:101F900001018E179F0721F0FF2009F448C005C0FA
:101FA000FF2009F444C0789442C0AA81BB811097F5
:101FB00021F015961C921E921497FB83EA83D58319
:101FC000C4830E941E05E0910001F091010182810D
:101FD0009381892B21F4789480E090E02CC080914B
:101FE00000019091010199838883FF2029F08A8163
:101FF0009B81019709F07894B601CE01F80109950B
:102000008C018FB7F894198218828A819B81823063
:10201000910548F01B821A82DC0115961C921E92D3
:1020200014970E941E05FF2029F0789403C08FEFBB
:102030009FEF01C0C801DF91CF911F910F91FF90D9
:10204000DF90CF90089500910001109101018CE381
:1020500091E00E94B90DEC01D80113969C938E93E8
:10206000129778944E855F856C857D858A859B85E2
:102070000E94A90F8FB7F8948091060190910701F3
:1020800099838883D0930701C0930601E0910201F0
:10209000F091030180819181EC01AA81BB81C09103
:1020A0003C01D0913D012097B1F0109761F24E8133
:1020B0005F816885798516960D911D912D913C91D2
:1020C0001997401B510B620B730B1416150616065D
:1020D00017060CF0B8CF9093030180930201209172
:1020E00004013091050131832083F0930501E093D1
:1020F0000401DC011496ED91FC911597309719F0CD
:1021000080819181F6CF0E941E059DCF4231B8F4A7
:102110002FB7F89450E0440F551FFA01E25CFE4FD0
:1021200091838083FA01EA52FE4F7183608341E01C
:1021300050E0FC015383428327FF01C07894089547
:102140008C017B016A018FB7F8940E94B5047894E2
:10215000E114F10441F020E030E0A90160E070E01A
:10216000CB010E94AA0E8FB7F8940E943E05789486
:1021700081E083BF8895FDCF97FB072E16F400946E
:1021800007D077FD09D00E94F61007FC05D03EF479
:10219000909581959F4F0895709561957F4F089513
:1021A000052E97FB1EF400940E94E71057FD07D000
:1021B0000E940A1107FC03D04EF40C94E7105095CE
:1021C0004095309521953F4F4F4F5F4F0895909523
:1021D0008095709561957F4F8F4F9F4F08950E9416
:1021E0002C11B7FF0895821B930B0895AA1BBB1BEC
:1021F00051E107C0AA1FBB1FA617B70710F0A61B07
:10220000B70B881F991F5A95A9F780959095BC0127
:10221000CD010895A1E21A2EAA1BBB1BFD010DC022
:10222000AA1FBB1FEE1FFF1FA217B307E407F50786
:1022300020F0A21BB30BE40BF50B661F771F881F62
:10224000991F1A9469F760957095809590959B01F8
:10225000AC01BD01CF010895A29FB001B39FC001A1
:10226000A39F700D811D1124911DB29F700D811DC2
:102270001124911D0895DC012D923D924D925D92A5
:102280006D927D928D929D92AD92BD92CD92DD9296
:10229000ED92FD920D931D93CD93DD93FF91EF9100
:1022A0008DB78D938EB78D938FB78D93ED93FD93EF
:1022B000882799270994DC01CB0181309105811D84
:1022C0002D903D904D905D906D907D908D909D9066
:1022D000AD90BD90CD90DD90ED90FD900D911D9154
:1022E000CD91DD91ED91FD910D90F894FEBF0FBE63
:0C22F000EDBFED91FD910994F894FFCF33
:1022FC00FA01FA0162011702010505010001010052
:10230C0001010E0101010B0100050B0001040B0181
:10231C0001040F010101010001050F0101050B0171
:04232C00090F0F0F77
:04000003000003F204
:00000001FF
