S01300004430303033452D6C6162342E7372656335
S11300000C942E000C94E2050C9451060C94C0063A
S11300100C942F070C949E070C944B000C94090E1F
S11300200C944B000C94B70D0C940D080C947C08A4
S11300300C94EB080C945A090C94C9090C94380AD2
S11300400C94A70A0C94160B0C94850B0C94F40BCB
S11300500C94630C0C94D20C0C94410D11241FBE0F
S1130060CFEFD4E0DEBFCDBF11E0A0E0B1E0E4E823
S1130070F2E202C005900D92A633B107D9F724E04D
S1130080A6E3B1E001C01D92A139B207E1F70E94D5
S113009007040C9440110C940000CF92DF92EF926D
S11300A0FF920F931F93CF93DF93CDB7DEB72897BB
S11300B00FB6F894DEBF0FBECDBF4091360150910C
S11300C0370160913801709139014F5F5F4F6F4F75
S11300D07F4F4093360150933701609338017093FA
S11300E03901FC0122813381232BE1F019821A8228
S11300F01B821C824D835E836F837887008111810C
S1130100CE0101966C010F2EFDEBEF2EF3E0FF2ED6
S1130110F02D20E030E0A90160E070E0CB010E9406
S1130120A90E1CC019821A821B821C824D835E8315
S11301306F837887FC0100811181CE0101966C01E7
S11301400F2EFDEBEF2EF3E0FF2EF02D20E030E03C
S1130150A90160E070E0CB010E94A90E28960FB6B9
S1130160F894DEBF0FBECDBFDF91CF911F910F91E9
S1130170FF90EF90DF90CF900895CF92DF92EF92AF
S1130180FF920F931F93CF93DF93CDB7DEB72897DA
S11301900FB6F894DEBF0FBECDBF4091360150912B
S11301A0370160913801709139011416150616064D
S11301B017060CF04CC0FC0141505109610971094A
S11301C0409336015093370160933801709339019D
S11301D082819381892BE1F019821A821B821C820D
S11301E04D835E836F83788700811181CE010196F0
S11301F06C010F2EFDEBEF2EF3E0FF2EF02D20E02F
S113020030E0A90160E070E0CB010E94A90E1FC09C
S113021084E090E0A0E0B0E089839A83AB83BC8360
S11302204D835E836F83788700811181CE010196AF
S11302306C010F2EFDEBEF2EF3E0FF2EF02D20E0EE
S113024030E0A90160E070E0CB010E94A90E28967D
S11302500FB6F894DEBF0FBECDBFDF91CF911F91D3
S11302600F91FF90EF90DF90CF9008958091360129
S113027090913701A0913801B09139010097A105FF
S1130280B10589F08093440190934501A093460100
S1130290B093470110923601109237011092380141
S11302A01092390108958091440190914501A091E3
S11302B04601B09147018093360190933701A09392
S11302C03801B09339010895CF92DF92EF92FF92F3
S11302D00F931F932091000130910101232BA1F072
S11302E0FC0102811381C12CD12C0F2EFDE4EF2ED1
S11302F0F0E0FF2EF02D20E030E0A90160E070E096
S1130300CB010E94A90E13C0FC0100811181C12CF4
S1130310D12C0F2EFDE4EF2EF0E0FF2EF02D20E087
S113032030E0A90160E070E0CB010E94A90E1F91AA
S11303300F91FF90EF90DF90CF900895CF92DF92CE
S1130340EF92FF920F931F932091000130910101CE
S1130350232BA1F0FC0102811381C12CD12C0F2E7F
S1130360FDEBEF2EF0E0FF2EF02D20E030E0A901B0
S113037060E070E0CB010E94A90E13C0FC01008173
S11303801181C12CD12C0F2EFDEBEF2EF3E0FF2EAB
S1130390F02D20E030E0A90160E070E0CB010E9484
S11303A0A90E1F910F91FF90EF90DF90CF900895C9
S11303B0CF92DF92EF92FF920F931F93209100014F
S11303C030910101232BA1F0FC0102811381C12C86
S11303D0D12C0F2EF6E3EF2EF1E0FF2EF02D20E0CE
S11303E030E0A90160E070E0CB010E94A90E13C0C7
S11303F0FC0100811181C12CD12C0F2EF6E3EF2ECC
S1130400F1E0FF2EF02D20E030E0A90160E070E083
S1130410CB010E94A90E1F910F91FF90EF90DF90E6
S1130420CF900895E1E6F0E080E8808310829FE0B9
S11304309093E70097EB9093E50097E09093E600A4
S113044090EC9093E40090ED95B984B98CE08EB96A
S11304508DB9ECE6F0E08081806D8083EBE6F0E01E
S113046080818C6080838DB3806C8DBB0895CF9226
S1130470DF92EF92FF920F931F93FC010081118191
S1130480C12CD12C0F2EFFE7EF2EF2E0FF2EF02D22
S113049020E030E0A90160E070E0CB010E94A90EE9
S11304A01F910F91FF90EF90DF90CF900895CF921E
S11304B0DF92EF92FF920F931F93FC01248122237A
S11304C0A1F0148202811381C12CD12C0F2EF8EDDE
S11304D0EF2EF1E0FF2EF02D20E030E0A90160E0E6
S11304E070E0CB010E94A90E03C021E0FC0124832B
S11304F01F910F91FF90EF90DF90CF900895CF92CE
S1130500DF92EF92FF920F931F93CF93DF93EC014F
S11305101F9922C008811981C12CD12C0F2EFEE90C
S1130520EF2EF1E0FF2EF02D20E030E0A90160E095
S113053070E0CB010E94A90E0F2EFFE7EF2EF2E030
S1130540FF2EF02D8E0120E030E0A90165E37CE070
S113055080E090E00E94A90E1E9922C008811981B2
S1130560C12CD12C0F2EF4E6EF2EF1E0FF2EF02D4E
S113057020E030E0A90160E070E0CB010E94A90E08
S11305800F2EFFE7EF2EF2E0FF2EF02D8E0120E07C
S113059030E0A90165E37CE080E090E00E94A90ED0
S11305A01C9919C08A818823A1F01A8208811981B3
S11305B0C12CD12C0F2EF8EDEF2EF1E0FF2EF02DF3
S11305C020E030E0A90160E070E0CB010E94A90EB8
S11305D002C081E08A8380E090E0DF91CF911F9197
S11305E00F91FF90EF90DF90CF900895CF93DF931A
S11305F000D000D0CDB7DEB7DA0190ED980F9A3075
S113060080F420E030E028C0FC01E65FFE4F20A526
S1130610E1E0F0E0EC0FFD1FE80FF91F20830196E5
S113062002C080E090E08430910574F318C0E82F94
S1130630F0E0F097EE0FFF1FEE0FFF1FE65FFE4F97
S1130640E20FF31F9081E1E0F0E0EC0FFD1FE20FF9
S1130650F31F90832F5F3F4F2430310544F3611122
S11306600DC011C0E1E0F0E0EC0FFD1FE80FF91F31
S113067020812295207F2083019602C080E090E0B3
S1130680843091057CF39C918981892B8C931596F8
S11306909C9115978A81892B15968C9315971A9698
S11306A09C911A978B81892B1A968C931A971F9673
S11306B09C911F978C81892B1F968C930F900F9080
S11306C00F900F90DF91CF910895882391F0FB0153
S11306D080818970808385E090E007C0FB01E80F8A
S11306E0F91F20812F702083059684319105B4F37E
S11306F00895FB0180818079808385E090E007C0C4
S1130700FB01E80FF91F2081207F208305968431A7
S11307109105B4F308951F93CF93DF93182F60FDD1
S113072014C0AB01772314F44F5F5F4F5595479581
S1130730EA01C451DF4FBE0180E00E946503AE01AF
S113074060E0812F0E94F60214C061507109AB0170
S113075012F44F5F5F4F55954795EA01C451DF4F3F
S1130760BE0181E00E946503AE0161E0812F0E9419
S1130770F602DF91CF911F9108954F925F926F928D
S11307807F928F929F92AF92BF92CF92DF92EF921D
S1130790FF92FC01C080D180E280F38044805580C8
S11307A066807780C301B20124E630E040E050E087
S11307B00E94BE100F2EFAE08F2E912CA12CB12C8A
S11307C0F02DA50194010E94BE10B60180E3820FB2
S11307D00E948B03FFEFCF1ADF0AEF0AFF0AC3015F
S11307E0B201A50194010E94BE10862FB601805D5E
S11307F00E948B03FF90EF90DF90CF90BF90AF905B
S11308009F908F907F906F905F904F900895CF93BB
S1130810DF93CDB7DEB76A970FB6F894DEBF0FBE8D
S1130820CDBF0E94120219821A821B821C82CE0141
S113083001969E838D8318861F829A87898721E07B
S113084030E03C872B879E012B5F3F4F3E872D87EF
S11308502C5F3F4F388B2F879A8B898B1B8A1C8A7E
S11308601D8A0C969C8B8B8B1F8A1E8A0696998FE9
S1130870888F1A8E42E067E372E003960E948C1020
S113088041E067E572E0CE0146960E948C1040E09C
S113089050E060E070E080E090E00E94A7106A966B
S11308A00FB6F894DEBF0FBECDBFDF91CF91089590
S11308B0CF93DF9300D000D0CDB7DEB780E090E0D7
S11308C018C0AC014F5F5F4F9A0122953295307F7B
S11308D03227207F32272F5D3D4F82959295907F5E
S11308E09827807F9827FC01EF5DFD4F318320839B
S11308F0CA018E3091052CF3109202031092010369
S113090080E090E015C0AC014F5F5F4F6DE1649FE4
S11309109001659F300D112424593E4F689FF001CA
S1130920699FF00D1124E459FE4F31832083CA01DD
S11309308330910544F31092C4011092C3011A82CA
S1130940198232C02DE149815A81249FC001259F1B
S1130950900D1124FC01EE58FE4FFC83EB83CF0174
S11309600E94FF1020E649815A81249FC001259FDF
S1130970900D112483599C4FEB81FC81918B808BCA
S1130980938B828B84E390E1968B858B8DE1849F9E
S1130990F001859FF00D1124E459FE4F1582148255
S11309A04F5F5F4F5A83498329813A81243031054F
S11309B04CF2E4E0F2E01182108215821482138278
S11309C01282E1E6F0E080E88083108210928500D4
S11309D01092840084E08093810081E080936F0012
S11309E00F900F900F900F90DF91CF910895CF93B8
S11309F0DF9300D0CDB7DEB79A838983809102015B
S1130A009091030106960E94FF10892B59F4898165
S1130A109A81909303018093020161E070E006964D
S1130A200E941F110F900F90DF91CF9108950F93A3
S1130A301F93CF93DF93DC01CB01EB01E881F981B4
S1130A40C0E0D0E004C0EF010190F081E02D3097C8
S1130A5079F0068117812085318516964D915D9137
S1130A606D917C91199740175107620773075CF7E2
S1130A701196FC93EE93209721F4FC01B183A0839B
S1130A8002C0B983A883DF91CF911F910F9108957C
S1130A900F931F93CF93DF93DC01CB01EB01E8812C
S1130AA0F981C0E0D0E004C0EF010190F081E02DB5
S1130AB0309779F0028113812481358112964D910A
S1130AC05D916D917C9115974017510762077307EB
S1130AD05CF71196FC93EE93209721F4FC01B1830B
S1130AE0A08302C0B983A883DF91CF911F910F9196
S1130AF00895DC01ED91FC911197309759F48FEF33
S1130B008093EC008093ED008093EE0081E083BF3E
S1130B108895FCCF208131812D933C93CF0108959A
S1130B20FB0120813181FC0131832083FB0191830E
S1130B3080830895FB0120813181FC01318320836E
S1130B40FB01918380830895DC01ED91FC91119761
S1130B50208131812D933C93CF010895CF93DF936E
S1130B60E0910401F0910501C281D381E091420139
S1130B70F0914301309719F180910601909107019A
S1130B80892BE9F0209769F086819781A085B1854A
S1130B904E815F8168857985841B950BA60BB70B05
S1130BA072F486E091E00E94A40564E071E00E9482
S1130BB09A0580910401909105010E94F704DF9148
S1130BC0CF9108951F920F920FB60F9211240F9395
S1130BD01F932F933F934F935F936F937F938F93C1
S1130BE09F93AF93BF93EF93FF9380913A019091BA
S1130BF03B01AC01092E000C660B770B9A011127FF
S1130C000027409184005091850060E070E0402B03
S1130C10512B622B732B40933C0150933D01609305
S1130C203E0170933F01B09B1AC00196092E000C3F
S1130C30AA0BBB0BBC0155274427809184009091DB
S1130C408500A0E0B0E0842B952BA62BB72B8093D6
S1130C503C0190933D01A0933E01B0933F01E0918C
S1130C60E001F091E101309739F060E070E08091AB
S1130C7048019091490109950E94AE05FF91EF91B9
S1130C80BF91AF919F918F917F916F915F914F91A0
S1130C903F912F911F910F910F900FBE0F901F90B6
S1130CA018951F920F920FB60F9211240F931F9352
S1130CB02F933F934F935F936F937F938F939F9360
S1130CC0AF93BF93EF93FF9380913A0190913B01CF
S1130CD0AC01092E000C660B770B9A011127002733
S1130CE0409184005091850060E070E0402B512BCE
S1130CF0622B732B40933C0150933D0160933E0162
S1130D0070933F01B09B1AC00196092E000CAA0BE8
S1130D10BB0BBC015527442780918400909185002A
S1130D20A0E0B0E0842B952BA62BB72B80933C013D
S1130D3090933D01A0933E01B0933F01E091E20105
S1130D40F091E301309739F061E070E080914A015D
S1130D5090914B0109950E94AE05FF91EF91BF91CF
S1130D60AF919F918F917F916F915F914F913F913F
S1130D702F911F910F910F900FBE0F901F901895F8
S1130D801F920F920FB60F9211240F931F932F935C
S1130D903F934F935F936F937F938F939F93AF93FF
S1130DA0BF93EF93FF9380913A0190913B01AC0183
S1130DB0092E000C660B770B9A011127002740912E
S1130DC084005091850060E070E0402B512B622B31
S1130DD0732B40933C0150933D0160933E0170930B
S1130DE03F01B09B1AC00196092E000CAA0BBB0B45
S1130DF0BC01552744278091840090918500A0E090
S1130E00B0E0842B952BA62BB72B80933C019093B9
S1130E103D01A0933E01B0933F01E091E401F091C4
S1130E20E501309739F062E070E080914C019091D7
S1130E304D0109950E94AE05FF91EF91BF91AF91CD
S1130E409F918F917F916F915F914F913F912F91DE
S1130E501F910F910F900FBE0F901F9018951F9226
S1130E600F920FB60F9211240F931F932F933F935A
S1130E704F935F936F937F938F939F93AF93BF939E
S1130E80EF93FF9380913A0190913B01AC01092EBD
S1130E90000C660B770B9A01112700274091840000
S1130EA05091850060E070E0402B512B622B732B36
S1130EB040933C0150933D0160933E0170933F0188
S1130EC0B09B1AC00196092E000CAA0BBB0BBC01E7
S1130ED0552744278091840090918500A0E0B0E0DC
S1130EE0842B952BA62BB72B80933C0190933D012B
S1130EF0A0933E01B0933F01E091E601F091E70138
S1130F00309739F063E070E080914E0190914F0189
S1130F1009950E94AE05FF91EF91BF91AF919F910A
S1130F208F917F916F915F914F913F912F911F917D
S1130F300F910F900FBE0F901F9018951F920F9254
S1130F400FB60F9211240F931F932F933F934F9338
S1130F505F936F937F938F939F93AF93BF93EF931D
S1130F60FF9380913A0190913B01AC01092E000C52
S1130F70660B770B9A01112700274091840050914A
S1130F80850060E070E0402B512B622B732B409363
S1130F903C0150933D0160933E0170933F01B09B2F
S1130FA01AC00196092E000CAA0BBB0BBC015527D5
S1130FB044278091840090918500A0E0B0E0842BC8
S1130FC0952BA62BB72B80933C0190933D01A093C6
S1130FD03E01B0933F01E091E801F091E9013097BF
S1130FE039F064E070E080915001909151010995CD
S1130FF00E94AE05FF91EF91BF91AF919F918F91A8
S11310007F916F915F914F913F912F911F910F911C
S11310100F900FBE0F901F9018951F920F920FB64E
S11310200F9211240F931F932F933F934F935F932A
S11310306F937F938F939F93AF93BF93EF93FF939C
S113104080913A0190913B01AC01092E000C660B92
S1131050770B9A0111270027409184005091850055
S113106060E070E0402B512B622B732B40933C01CA
S113107050933D0160933E0170933F01B09B1AC0B1
S11310800196092E000CAA0BBB0BBC015527442763
S11310908091840090918500A0E0B0E0842B952B92
S11310A0A62BB72B80933C0190933D01A0933E0166
S11310B0B0933F01E091EA01F091EB01309739F0F0
S11310C065E070E0809152019091530109950E946E
S11310D0AE05FF91EF91BF91AF919F918F917F9159
S11310E06F915F914F913F912F911F910F910F90AD
S11310F00FBE0F901F9018951F920F920FB60F926C
S113110011240F931F932F933F934F935F936F93E8
S11311107F938F939F93AF93BF93EF93FF938091AC
S11311203A0190913B01AC01092E000C660B770B40
S11311309A0111270027409184005091850060E0B6
S113114070E0402B512B622B732B40933C01509346
S11311503D0160933E0170933F01B09B1AC001961C
S1131160092E000CAA0BBB0BBC0155274427809108
S1131170840090918500A0E0B0E0842B952BA62BF1
S1131180B72B80933C0190933D01A0933E01B09313
S11311903F01E091EC01F091ED01309739F066E008
S11311A070E0809154019091550109950E94AE051B
S11311B0FF91EF91BF91AF919F918F917F916F912B
S11311C05F914F913F912F911F910F910F900FBEFF
S11311D00F901F9018951F920F920FB60F92112423
S11311E00F931F932F933F934F935F936F937F932B
S11311F08F939F93AF93BF93EF93FF9380913A01A3
S113120090913B01AC01092E000C660B770B9A01FF
S113121011270027409184005091850060E070E020
S1131220402B512B622B732B40933C0150933D0177
S113123060933E0170933F01B09B1AC00196092E42
S1131240000CAA0BBB0BBC015527442780918400DA
S113125090918500A0E0B0E0842B952BA62BB72BB2
S113126080933C0190933D01A0933E01B0933F01D4
S1131270E091EE01F091EF01309739F067E070E012
S1131280809156019091570109950E94AE05FF91F6
S1131290EF91BF91AF919F918F917F916F915F91EA
S11312A04F913F912F911F910F910F900FBE0F906F
S11312B01F9018951F920F920FB60F9211240F933F
S11312C01F932F933F934F935F936F937F938F93CA
S11312D09F93AF93BF93EF93FF9380913A019091C3
S11312E03B01AC01092E000C660B770B9A01112708
S11312F00027409184005091850060E070E0402B0D
S1131300512B622B732B40933C0150933D0160930E
S11313103E0170933F01B09B1AC00196092E000C48
S1131320AA0BBB0BBC0155274427809184009091E4
S11313308500A0E0B0E0842B952BA62BB72B8093DF
S11313403C0190933D01A0933E01B0933F01E09195
S1131350F001F091F101309739F068E070E080918C
S113136058019091590109950E94AE05FF91EF91A2
S1131370BF91AF919F918F917F916F915F914F91A9
S11313803F912F911F910F910F900FBE0F901F90BF
S113139018951F920F920FB60F9211240F931F935B
S11313A02F933F934F935F936F937F938F939F9369
S11313B0AF93BF93EF93FF9380913A0190913B01D8
S11313C0AC01092E000C660B770B9A01112700273C
S11313D0409184005091850060E070E0402B512BD7
S11313E0622B732B40933C0150933D0160933E016B
S11313F070933F01B09B1AC00196092E000CAA0BF2
S1131400BB0BBC0155274427809184009091850033
S1131410A0E0B0E0842B952BA62BB72B80933C0146
S113142090933D01A0933E01B0933F01E091F201FE
S1131430F091F301309739F069E070E080915A013E
S113144090915B0109950E94AE05FF91EF91BF91C8
S1131450AF919F918F917F916F915F914F913F9148
S11314602F911F910F910F900FBE0F901F90189501
S11314701F920F920FB60F9211240F931F932F9365
S11314803F934F935F936F937F938F939F93AF9308
S1131490BF93EF93FF9380913A0190913B01AC018C
S11314A0092E000C660B770B9A0111270027409137
S11314B084005091850060E070E0402B512B622B3A
S11314C0732B40933C0150933D0160933E01709314
S11314D03F01B09B1AC00196092E000CAA0BBB0B4E
S11314E0BC01552744278091840090918500A0E099
S11314F0B0E0842B952BA62BB72B80933C019093C3
S11315003D01A0933E01B0933F01E091F401F091BD
S1131510F501309739F06AE070E080915C019091B8
S11315205D0109950E94AE05FF91EF91BF91AF91C6
S11315309F918F917F916F915F914F913F912F91E7
S11315401F910F910F900FBE0F901F9018951F922F
S11315500F920FB60F9211240F931F932F933F9363
S11315604F935F936F937F938F939F93AF93BF93A7
S1131570EF93FF9380913A0190913B01AC01092EC6
S1131580000C660B770B9A01112700274091840009
S11315905091850060E070E0402B512B622B732B3F
S11315A040933C0150933D0160933E0170933F0191
S11315B0B09B1AC00196092E000CAA0BBB0BBC01F0
S11315C0552744278091840090918500A0E0B0E0E5
S11315D0842B952BA62BB72B80933C0190933D0134
S11315E0A0933E01B0933F01E091F601F091F70121
S11315F0309739F06BE070E080915E0190915F016B
S113160009950E94AE05FF91EF91BF91AF919F9113
S11316108F917F916F915F914F913F912F911F9186
S11316200F910F900FBE0F901F9018951F920F925D
S11316300FB60F9211240F931F932F933F934F9341
S11316405F936F937F938F939F93AF93BF93EF9326
S1131650FF9380913A0190913B01AC01092E000C5B
S1131660660B770B9A011127002740918400509153
S1131670850060E070E0402B512B622B732B40936C
S11316803C0150933D0160933E0170933F01B09B38
S11316901AC00196092E000CAA0BBB0BBC015527DE
S11316A044278091840090918500A0E0B0E0842BD1
S11316B0952BA62BB72B80933C0190933D01A093CF
S11316C03E01B0933F01E091F801F091F9013097A8
S11316D039F06CE070E080916001909161010995AE
S11316E00E94AE05FF91EF91BF91AF919F918F91B1
S11316F07F916F915F914F913F912F911F910F9126
S11317000F900FBE0F901F9018951F920F920FB657
S11317100F9211240F931F932F933F934F935F9333
S11317206F937F938F939F93AF93BF93EF93FF93A5
S113173080913A0190913B01AC01092E000C660B9B
S1131740770B9A011127002740918400509185005E
S113175060E070E0402B512B622B732B40933C01D3
S113176050933D0160933E0170933F01B09B1AC0BA
S11317700196092E000CAA0BBB0BBC01552744276C
S11317808091840090918500A0E0B0E0842B952B9B
S1131790A62BB72B80933C0190933D01A0933E016F
S11317A0B0933F01E091FA01F091FB01309739F0D9
S11317B06DE070E0809162019091630109950E944F
S11317C0AE05FF91EF91BF91AF919F918F917F9162
S11317D06F915F914F913F912F911F910F910F90B6
S11317E00FBE0F901F9018951F920F920FB60F9275
S11317F011240F931F932F933F934F935F936F93F2
S11318007F938F939F93AF93BF93EF93FF938091B5
S11318103A0190913B01AC01092E000C660B770B49
S11318209A0111270027409184005091850060E0BF
S113183070E0402B512B622B732B40933C0150934F
S11318403D0160933E0170933F01B09B1AC0019625
S1131850092E000CAA0BBB0BBC0155274427809111
S1131860840090918500A0E0B0E0842B952BA62BFA
S1131870B72B80933C0190933D01A0933E01B0931C
S11318803F01E091FC01F091FD01309739F06EE0E9
S113189070E0809164019091650109950E94AE0504
S11318A0FF91EF91BF91AF919F918F917F916F9134
S11318B05F914F913F912F911F910F910F900FBE08
S11318C00F901F9018951F920F920FB60F9211242C
S11318D00F931F932F933F934F935F936F937F9334
S11318E08F939F93AF93BF93EF93FF9380913A01AC
S11318F090913B01AC01092E000C660B770B9A0109
S113190011270027409184005091850060E070E029
S1131910402B512B622B732B40933C0150933D0180
S113192060933E0170933F01B09B1AC00196092E4B
S1131930000CAA0BBB0BBC015527442780918400E3
S113194090918500A0E0B0E0842B952BA62BB72BBB
S113195080933C0190933D01A0933E01B0933F01DD
S1131960E091FE01F091FF01309739F06FE070E0F3
S1131970809166019091670109950E94AE05FF91DF
S1131980EF91BF91AF919F918F917F916F915F91F3
S11319904F913F912F911F910F910F900FBE0F9078
S11319A01F9018951F920F920FB60F9211240F9348
S11319B01F932F933F934F935F936F937F938F93D3
S11319C09F93AF93BF93EF93FF9380913A019091CC
S11319D03B01AC01092E000C660B770B9A01112711
S11319E00027409184005091850060E070E0402B16
S11319F0512B622B732B40933C0150933D01609318
S1131A003E0170933F01B09B1AC00196092E000C51
S1131A10AA0BBB0BBC0155274427809184009091ED
S1131A208500A0E0B0E0842B952BA62BB72B8093E8
S1131A303C0190933D01A0933E01B0933F01E0919E
S1131A400002F0910102309739F060E170E080917A
S1131A5068019091690109950E94AE05FF91EF918B
S1131A60BF91AF919F918F917F916F915F914F91B2
S1131A703F912F911F910F910F900FBE0F901F90C8
S1131A8018951F920F920FB60F9211240F931F9364
S1131A902F933F934F935F936F937F938F939F9372
S1131AA0AF93BF93EF93FF9380913A0190913B01E1
S1131AB0AC01092E000C660B770B9A011127002745
S1131AC0409184005091850060E070E0402B512BE0
S1131AD0622B732B40933C0150933D0160933E0174
S1131AE070933F01B09B1AC00196092E000CAA0BFB
S1131AF0BB0BBC015527442780918400909185003D
S1131B00A0E0B0E0842B952BA62BB72B80933C014F
S1131B1090933D01A0933E01B0933F01E0910202F6
S1131B20F0910302309739F061E170E080916A012D
S1131B3090916B0109950E94AE05FF91EF91BF91C1
S1131B40AF919F918F917F916F915F914F913F9151
S1131B502F911F910F910F900FBE0F901F9018950A
S1131B600E94AE05789481E083BF8895FCCF1F92D4
S1131B700F920FB60F9211242F933F934F935F93BD
S1131B806F937F938F939F93EF93FF9380913A0189
S1131B9090913B01019690933B0180933A01E0912F
S1131BA04001F0914101309701F1428153816481F8
S1131BB0758186179707C9F4CA0120918400309172
S1131BC08500421B530B4130510529F48091840058
S1131BD09091850001969093890080938800EFE6A8
S1131BE0F0E080818260808305C0EFE6F0E08081D0
S1131BF08D7F8083FF91EF919F918F917F916F9162
S1131C005F914F913F912F910F900FBE0F901F90B6
S1131C1018951F920F920FB60F921124CF92DF9254
S1131C20EF92FF922F933F934F935F936F937F9322
S1131C308F939F93AF93BF93EF93FF9380913A0158
S1131C4090913B016C01092E000CEE08FF0876010F
S1131C50DD24CC24409184005091850060E070E044
S1131C60C42AD52AE62AF72AB09B1EC06C012FEF9E
S1131C70C21AD20A0D2C000CEE08FF08D6019927CF
S1131C808827C0908400D0908500E12CF12CC82ACC
S1131C90D92AEA2AFB2A08C080E491E00E94790547
S1131CA062E471E00E941705E0914001F091410166
S1131CB0309769F082819381A481B5818C199D0943
S1131CC0AE09BF09181619061A061B062CF7309719
S1131CD021F182819381A481B58120913A013091CF
S1131CE03B012A173B07C9F49C01409184005091A1
S1131CF08500841B950B019731F420918400309169
S1131D0085002F5F3F4F3093890020938800EFE6D2
S1131D10F0E080818260808305C0EFE6F0E080819E
S1131D208D7F80830E94AE05FF91EF91BF91AF91AB
S1131D309F918F917F916F915F914F913F912F91DF
S1131D40FF90EF90DF90CF900F900FBE0F901F90F9
S1131D5018953F924F925F926F927F928F929F92CB
S1131D60AF92BF92CF92DF92EF92FF920F931F93A5
S1131D70CF93DF932B013C0149015A018FB780783F
S1131D80382EF89488E091E00E947905EC011B87D5
S1131D900A87FD86EC86DF86CE86332061F0E091EB
S1131DA00201F09103010280F381E02D828193818D
S1131DB0A481B58108C080913C0190913D01A0911E
S1131DC03E01B0913F01480E591E6A1E7B1E4A8295
S1131DD05B826C827D82181419041A041B0444F07B
S1131DE00F2E88248A94982CA82CFFE7BF2EF02D60
S1131DF0840C951CA61CB71C8E829F82A886B9866B
S1131E0020913A0130913B01C901032E000CAA0B29
S1131E10BB0BDC01992788274091840050918500F1
S1131E2060E070E0842B952BA62BB72BB09B13C0DE
S1131E30C9010196092E000CAA0BBB0BDC019927E2
S1131E408827409184005091850060E070E0842BE5
S1131E50952BA62BB72B481A590A6A0A7B0A141425
S1131E60150416041704ACF560E471E0CE010E9479
S1131E704805E0914001F0914101309721F18281C0
S1131E809381A481B58120913A0130913B012A17B5
S1131E903B07C9F49C014091840050918500841B48
S1131EA0950B019731F420918400309185002F5FC8
S1131EB03F4F3093890020938800EFE6F0E0808163
S1131EC08260808339C0EFE6F0E080818D7F80837B
S1131ED033C062E471E0CE010E941705332061F142
S1131EE08091060190910701892B31F1E091420123
S1131EF0F091430186819781A085B185E091040129
S1131F00F09105010280F381E02D468157816085BF
S1131F107185841B950BA60BB70B72F486E091E0D8
S1131F200E94A40564E071E00E949A058091040176
S1131F30909105010E94F704332009F07894CE01B2
S1131F40DF91CF911F910F91FF90EF90DF90CF9091
S1131F50BF90AF909F908F907F906F905F904F90C5
S1131F603F900895CF92DF92EF92FF920F931F93C9
S1131F70CF93DF93EC017B016A011FB71078F894CB
S1131F80A881B981109719F435C0A081B181149644
S1131F90ED91FC9115973097C1F720910201309192
S1131FA00301A217B30711F0111107C0112309F49B
S1131FB04AC078948FEF9FEF4EC08A819B8100972F
S1131FC019F0FC01158214823B832A83F901D5831D
S1131FD0C483CD010E94F704E0910201F091030152
S1131FE082819381892B31F4112381F1789480E0EB
S1131FF090E031C08091020190910301998388831C
S1132000112329F08A819B81019709F07894B60104
S1132010CE01F7010995F82E092F8FB7F89419828C
S113202018828A819B818230910538F01B821A8242
S1132030FC01158214820E94F704112351F0789454
S11320408F2D902F08C08FEF9FEF05C080E090E0A8
S113205002C08F2D902FDF91CF911F910F91FF9090
S1132060EF90DF90CF900895009102011091030149
S113207082E491E00E947905EC01F8019383828364
S113208078946C857D854E855F858A859B850E94C5
S1132090B20F8FB7F89468E071E0CE010E9490050A
S11320A0E0910401F09105010190F081E02DC281DD
S11320B0D381E0914201F09143013097A1F0209740
S11320C099F286819781A085B1854E815F8168856B
S11320D07985841B950BA60BB70B181619061A06DF
S11320E01B060CF0C1CF84E091E00E94A40566E0D9
S11320F071E00E949A05A0910401B091050102C00B
S1132100A081B1811496ED91FC9115973097C1F798
S1132110CD010E94F704A8CFFC014231B8F49FB767
S11321209078F89450E0440F551FDA01A85BBE4F35
S1132130ED93FC93DA01A052BE4F6D937C9321E0A2
S113214030E033832283992309F0789408958C0135
S11321507B016A018FB7F8940E9458047894E114C3
S1132160F10441F020E030E0A90160E070E0CB012F
S11321700E94A90E8FB7F8940E94B00D052E97FB0C
S11321801EF400940E94D51057FD07D00E94DD1064
S113219007FC03D04EF40C94D5105095409530951F
S11321A021953F4F4F4F5F4F0895909580957095BF
S11321B061957F4F8F4F9F4F0895A1E21A2EAA1B5E
S11321C0BB1BFD010DC0AA1FBB1FEE1FFF1FA217E3
S11321D0B307E407F50720F0A21BB30BE40BF50BE0
S11321E0661F771F881F991F1A9469F76095709569
S11321F0809590959B01AC01BD01CF010895DC0150
S11322002D923D924D925D926D927D928D929D9212
S1132210AD92BD92CD92DD92ED92FD920D931D9300
S1132220CD93DD93FF91EF918DB78D938EB78D9301
S11322308FB78D93ED93FD93882799270994DC013B
S1132240CB0181309105811D2D903D904D905D9085
S11322506D907D908D909D90AD90BD90CD90DD90D2
S1132260ED90FD900D911D91CD91DD91ED91FD913C
S11322700D90F894FEBF0FBEEDBFED91FD91099452
S1072280F894FFCFFC
S11322840100040204026C0121020105050100019C
S1132294010001010E0101010B0100050B00010401
S11322A40B0101040F010101010001050F010105E6
S10922B40B01090F0F0FDE
S9030000FC
