S01300004430303033452D6C6162342E7372656335
S11300000C942E000C9459030C94C8030C943704DC
S11300100C94A6040C9415050C944B000C94800BC2
S11300200C944B000C942E0B0C9484050C94F30547
S11300300C9462060C94D1060C9440070C94AF0700
S11300400C941E080C948D080C94FC080C946B09F9
S11300500C94DA090C94490A0C94B80A11241FBEB2
S1130060CFEFD4E0DEBFCDBF11E0A0E0B1E0E2E726
S1130070FDE102C005900D92A433B107D9F724E045
S1130080A4E3B1E001C01D92AB38B207E1F70E94CE
S1130090A9010C94B70E0C940000CF93DF93EC01EC
S11300A01F9914C08DE490E0A0E0B0E08093340187
S11300B090933501A0933601B09337014DE450E09D
S11300C060E070E08C819D810E946B011E9914C0D8
S11300D082E490E0A0E0B0E0809334019093350195
S11300E0A0933601B093370142E450E060E070E041
S11300F08C819D810E946B01DF91CF910895E1E68F
S1130100F0E080E8808310829FE09093E70097EB13
S11301109093E50097E09093E60090EC9093E400D0
S113012090ED95B984B98CE08EB98DB9ECE6F0E028
S11301308081806D8083EBE6F0E080818C60808339
S11301408DB3806C8DBB0895CF93DF9300D000D026
S1130150CDB7DEB7DA0190ED980F9A3080F420E045
S113016030E028C0FC01E85FFE4F20A5E1E0F0E0AC
S1130170EC0FFD1FE80FF91F2083019602C080E0F9
S113018090E08430910574F318C0E82FF0E0F09704
S1130190EE0FFF1FEE0FFF1FE85FFE4FE20FF31F8E
S11301A09081E1E0F0E0EC0FFD1FE20FF31F90837C
S11301B02F5F3F4F2430310544F361110DC011C04E
S11301C0E1E0F0E0EC0FFD1FE80FF91F208122951C
S11301D0207F2083019602C080E090E08430910566
S11301E07CF39C918981892B8C9315969C9115970E
S11301F08A81892B15968C9315971A969C911A9738
S11302008B81892B1A968C931A971F969C911F9712
S11302108C81892B1F968C930F900F900F900F90C9
S1130220DF91CF910895882391F0FB01808189703B
S1130230808385E090E007C0FB01E80FF91F20816F
S11302402F702083059684319105B4F30895FB0142
S113025080818079808385E090E007C0FB01E80F0E
S1130260F91F2081207F2083059684319105B4F302
S113027008951F93CF93DF93182F60FD14C0AB0133
S1130280772314F44F5F5F4F55954795EA01C451A6
S1130290DF4FBE0180E00E941301AE0160E0812FB8
S11302A00E94A40014C061507109AB0112F44F5FA5
S11302B05F4F55954795EA01C451DF4FBE0181E078
S11302C00E941301AE0161E0812F0E94A400DF911E
S11302D0CF911F9108958F929F92AF92BF92CF9228
S11302E0DF92EF92FF92CF93DF934A015B01FC010F
S11302F0C481D581CB01BA0124E630E040E050E06E
S11303000E94350E0F2EFAE0CF2ED12CE12CF12CC9
S1130310F02DA70196010E94350EBE0180E3820FE5
S11303200E9439012196C501B401A70196010E94DA
S1130330350E862FBE01805D0E943901DF91CF9179
S1130340FF90EF90DF90CF90BF90AF909F908F90F1
S11303500895CF93DF9300D000D000D0CDB7DEB79F
S11303600E947F00CE01019626E0FC0111922A959D
S1130370E9F742E06DE470E00E94030E40E050E0D3
S113038060E070E080E090E00E941E0E26960FB6BA
S1130390F894DEBF0FBECDBFDF91CF910895CF9308
S11303A0DF9300D000D0CDB7DEB780E090E018C076
S11303B0AC014F5F5F4F9A0122953295307F32270F
S11303C0207F3227255E3D4F82959295907F982716
S11303D0807F9827FC01E55EFD4F31832083CA01AD
S11303E08E3091052CF31092FC021092FB0280E0F7
S11303F090E015C0AC014F5F5F4F6DE1649F9001C9
S1130400659F300D11242A593E4F689FF001699F62
S1130410F00D1124EA59FE4F31832083CA01833041
S1130420910544F31092BE011092BD011A82198203
S113043032C02DE149815A81249FC001259F900D2E
S11304401124FC01E459FE4FFC83EB83CF010E948D
S1130450760E20E649815A81249FC001259F900D84
S1130460112489599C4FEB81FC81918B808B938B58
S1130470828B8BEA9DE0968B858B8DE1849FF001C6
S1130480859FF00D1124EA59FE4F158214824F5FA7
S11304905F4F5A83498329813A81243031054CF2D4
S11304A0EEEFF1E01182108215821482138212821F
S11304B0E1E6F0E080E880831082109285001092DB
S11304C0840084E08093810081E080936F000F902A
S11304D00F900F900F90DF91CF910895CF93DF93FA
S11304E000D0CDB7DEB79A838983809100019091C3
S11304F0010106960E94760E892B59F489819A810E
S1130500909301018093000161E070E006960E94DF
S1130510960E0F900F90DF91CF9108950F931F9334
S1130520CF93DF93DC01CB01EB01E881F981C0E0DB
S1130530D0E004C0EF010190F081E02D309779F014
S1130540068117812085318516964D915D916D91B7
S11305507C91199740175107620773075CF711964E
S1130560FC93EE93209721F4FC01B183A08302C095
S1130570B983A883DF91CF911F910F9108950F93B1
S11305801F93CF93DF93DC01CB01EB01E881F98169
S1130590C0E0D0E004C0EF010190F081E02D30977D
S11305A079F0028113812481358112964D915D91F8
S11305B06D917C91159740175107620773075CF79B
S11305C01196FC93EE93209721F4FC01B183A08350
S11305D002C0B983A883DF91CF911F910F91089531
S11305E0DC01ED91FC911197309759F48FEF8093D2
S11305F0EC008093ED008093EE0081E083BF88954A
S1130600FCCF208131812D933C93CF010895FB01D0
S113061020813181FC0131832083FB01918380831C
S11306200895FB0120813181FC0131832083FB018A
S1130630918380830895DC01ED91FC9111972081D1
S113064031812D933C93CF010895CF93DF93E091B3
S11306500201F0910301C281D381E0914001F09144
S11306604101309719F18091040190910501892B82
S1130670E9F0209769F086819781A085B1854E8144
S11306805F8168857985841B950BA60BB70B72F483
S113069084E091E00E941B0362E071E00E94110378
S11306A080910201909103010E946E02DF91CF912B
S11306B008951F920F920FB60F9211240F931F9358
S11306C02F933F934F935F936F937F938F939F9356
S11306D0AF93BF93EF93FF938091380190913901C9
S11306E0AC01092E000C660B770B9A011127002729
S11306F0409184005091850060E070E0402B512BC4
S1130700622B732B40933A0150933B0160933C015D
S113071070933D01B09B1AC00196092E000CAA0BE0
S1130720BB0BBC0155274427809184009091850020
S1130730A0E0B0E0842B952BA62BB72B80933A0135
S113074090933B01A0933C01B0933D01E091DA0109
S1130750F091DB01309739F060E070E08091420164
S11307609091430109950E942503FF91EF91BF9158
S1130770AF919F918F917F916F915F914F913F9135
S11307802F911F910F910F900FBE0F901F901895EE
S11307901F920F920FB60F9211240F931F932F9352
S11307A03F934F935F936F937F938F939F93AF93F5
S11307B0BF93EF93FF938091380190913901AC017D
S11307C0092E000C660B770B9A0111270027409124
S11307D084005091850060E070E0402B512B622B27
S11307E0732B40933A0150933B0160933C01709307
S11307F03D01B09B1AC00196092E000CAA0BBB0B3D
S1130800BC01552744278091840090918500A0E085
S1130810B0E0842B952BA62BB72B80933A019093B1
S11308203B01A0933C01B0933D01E091DC01F091C8
S1130830DD01309739F061E070E0809144019091DE
S1130840450109950E942503FF91EF91BF91AF9156
S11308509F918F917F916F915F914F913F912F91D4
S11308601F910F910F900FBE0F901F9018951F921C
S11308700F920FB60F9211240F931F932F933F9350
S11308804F935F936F937F938F939F93AF93BF9394
S1130890EF93FF938091380190913901AC01092EB7
S11308A0000C660B770B9A011127002740918400F6
S11308B05091850060E070E0402B512B622B732B2C
S11308C040933A0150933B0160933C0170933D0186
S11308D0B09B1AC00196092E000CAA0BBB0BBC01DD
S11308E0552744278091840090918500A0E0B0E0D2
S11308F0842B952BA62BB72B80933A0190933B0125
S1130900A0933C01B0933D01E091DE01F091DF0141
S1130910309739F062E070E0809146019091470190
S113092009950E942503FF91EF91BF91AF919F918B
S11309308F917F916F915F914F913F912F911F9173
S11309400F910F900FBE0F901F9018951F920F924A
S11309500FB60F9211240F931F932F933F934F932E
S11309605F936F937F938F939F93AF93BF93EF9313
S1130970FF938091380190913901AC01092E000C4C
S1130980660B770B9A011127002740918400509140
S1130990850060E070E0402B512B622B732B409359
S11309A03A0150933B0160933C0170933D01B09B2D
S11309B01AC00196092E000CAA0BBB0BBC015527CB
S11309C044278091840090918500A0E0B0E0842BBE
S11309D0952BA62BB72B80933A0190933B01A093C0
S11309E03C01B0933D01E091E001F091E1013097C9
S11309F039F063E070E080914801909149010995D4
S1130A000E942503FF91EF91BF91AF919F918F9128
S1130A107F916F915F914F913F912F911F910F9112
S1130A200F900FBE0F901F9018951F920F920FB644
S1130A300F9211240F931F932F933F934F935F9320
S1130A406F937F938F939F93AF93BF93EF93FF9392
S1130A508091380190913901AC01092E000C660B8C
S1130A60770B9A011127002740918400509185004B
S1130A7060E070E0402B512B622B732B40933A01C2
S1130A8050933B0160933C0170933D01B09B1AC0AD
S1130A900196092E000CAA0BBB0BBC015527442759
S1130AA08091840090918500A0E0B0E0842B952B88
S1130AB0A62BB72B80933A0190933B01A0933C0162
S1130AC0B0933D01E091E201F091E301309739F0F8
S1130AD064E070E080914A0190914B0109950E9475
S1130AE02503FF91EF91BF91AF919F918F917F91DA
S1130AF06F915F914F913F912F911F910F910F90A3
S1130B000FBE0F901F9018951F920F920FB60F9261
S1130B1011240F931F932F933F934F935F936F93DE
S1130B207F938F939F93AF93BF93EF93FF938091A2
S1130B30380190913901AC01092E000C660B770B3A
S1130B409A0111270027409184005091850060E0AC
S1130B5070E0402B512B622B732B40933A0150933E
S1130B603B0160933C0170933D01B09B1AC0019618
S1130B70092E000CAA0BBB0BBC01552744278091FE
S1130B80840090918500A0E0B0E0842B952BA62BE7
S1130B90B72B80933A0190933B01A0933C01B0930F
S1130BA03D01E091E401F091E501309739F065E011
S1130BB070E080914C0190914D0109950E942503AC
S1130BC0FF91EF91BF91AF919F918F917F916F9121
S1130BD05F914F913F912F911F910F910F900FBEF5
S1130BE00F901F9018951F920F920FB60F92112419
S1130BF00F931F932F933F934F935F936F937F9321
S1130C008F939F93AF93BF93EF93FF93809138019A
S1130C1090913901AC01092E000C660B770B9A01F7
S1130C2011270027409184005091850060E070E016
S1130C30402B512B622B732B40933A0150933B0171
S1130C4060933C0170933D01B09B1AC00196092E3C
S1130C50000CAA0BBB0BBC015527442780918400D0
S1130C6090918500A0E0B0E0842B952BA62BB72BA8
S1130C7080933A0190933B01A0933C01B0933D01D2
S1130C80E091E601F091E701309739F066E070E019
S1130C9080914E0190914F0109950E942503FF9187
S1130CA0EF91BF91AF919F918F917F916F915F91E0
S1130CB04F913F912F911F910F910F900FBE0F9065
S1130CC01F9018951F920F920FB60F9211240F9335
S1130CD01F932F933F934F935F936F937F938F93C0
S1130CE09F93AF93BF93EF93FF93809138019091BB
S1130CF03901AC01092E000C660B770B9A01112700
S1130D000027409184005091850060E070E0402B02
S1130D10512B622B732B40933A0150933B01609308
S1130D203C0170933D01B09B1AC00196092E000C42
S1130D30AA0BBB0BBC0155274427809184009091DA
S1130D408500A0E0B0E0842B952BA62BB72B8093D5
S1130D503A0190933B01A0933C01B0933D01E09193
S1130D60E801F091E901309739F067E070E0809193
S1130D7050019091510109950E942503FF91EF9133
S1130D80BF91AF919F918F917F916F915F914F919F
S1130D903F912F911F910F910F900FBE0F901F90B5
S1130DA018951F920F920FB60F9211240F931F9351
S1130DB02F933F934F935F936F937F938F939F935F
S1130DC0AF93BF93EF93FF938091380190913901D2
S1130DD0AC01092E000C660B770B9A011127002732
S1130DE0409184005091850060E070E0402B512BCD
S1130DF0622B732B40933A0150933B0160933C0167
S1130E0070933D01B09B1AC00196092E000CAA0BE9
S1130E10BB0BBC0155274427809184009091850029
S1130E20A0E0B0E0842B952BA62BB72B80933A013E
S1130E3090933B01A0933C01B0933D01E091EA0102
S1130E40F091EB01309739F068E070E08091520145
S1130E509091530109950E942503FF91EF91BF9151
S1130E60AF919F918F917F916F915F914F913F913E
S1130E702F911F910F910F900FBE0F901F901895F7
S1130E801F920F920FB60F9211240F931F932F935B
S1130E903F934F935F936F937F938F939F93AF93FE
S1130EA0BF93EF93FF938091380190913901AC0186
S1130EB0092E000C660B770B9A011127002740912D
S1130EC084005091850060E070E0402B512B622B30
S1130ED0732B40933A0150933B0160933C01709310
S1130EE03D01B09B1AC00196092E000CAA0BBB0B46
S1130EF0BC01552744278091840090918500A0E08F
S1130F00B0E0842B952BA62BB72B80933A019093BA
S1130F103B01A0933C01B0933D01E091EC01F091C1
S1130F20ED01309739F069E070E0809154019091BF
S1130F30550109950E942503FF91EF91BF91AF914F
S1130F409F918F917F916F915F914F913F912F91DD
S1130F501F910F910F900FBE0F901F9018951F9225
S1130F600F920FB60F9211240F931F932F933F9359
S1130F704F935F936F937F938F939F93AF93BF939D
S1130F80EF93FF938091380190913901AC01092EC0
S1130F90000C660B770B9A011127002740918400FF
S1130FA05091850060E070E0402B512B622B732B35
S1130FB040933A0150933B0160933C0170933D018F
S1130FC0B09B1AC00196092E000CAA0BBB0BBC01E6
S1130FD0552744278091840090918500A0E0B0E0DB
S1130FE0842B952BA62BB72B80933A0190933B012E
S1130FF0A0933C01B0933D01E091EE01F091EF012B
S1131000309739F06AE070E0809156019091570171
S113101009950E942503FF91EF91BF91AF919F9194
S11310208F917F916F915F914F913F912F911F917C
S11310300F910F900FBE0F901F9018951F920F9253
S11310400FB60F9211240F931F932F933F934F9337
S11310505F936F937F938F939F93AF93BF93EF931C
S1131060FF938091380190913901AC01092E000C55
S1131070660B770B9A011127002740918400509149
S1131080850060E070E0402B512B622B732B409362
S11310903A0150933B0160933C0170933D01B09B36
S11310A01AC00196092E000CAA0BBB0BBC015527D4
S11310B044278091840090918500A0E0B0E0842BC7
S11310C0952BA62BB72B80933A0190933B01A093C9
S11310D03C01B0933D01E091F001F091F1013097B2
S11310E039F06BE070E080915801909159010995B5
S11310F00E942503FF91EF91BF91AF919F918F9132
S11311007F916F915F914F913F912F911F910F911B
S11311100F900FBE0F901F9018951F920F920FB64D
S11311200F9211240F931F932F933F934F935F9329
S11311306F937F938F939F93AF93BF93EF93FF939B
S11311408091380190913901AC01092E000C660B95
S1131150770B9A0111270027409184005091850054
S113116060E070E0402B512B622B732B40933A01CB
S113117050933B0160933C0170933D01B09B1AC0B6
S11311800196092E000CAA0BBB0BBC015527442762
S11311908091840090918500A0E0B0E0842B952B91
S11311A0A62BB72B80933A0190933B01A0933C016B
S11311B0B0933D01E091F201F091F301309739F0E1
S11311C06CE070E080915A0190915B0109950E9456
S11311D02503FF91EF91BF91AF919F918F917F91E3
S11311E06F915F914F913F912F911F910F910F90AC
S11311F00FBE0F901F9018951F920F920FB60F926B
S113120011240F931F932F933F934F935F936F93E7
S11312107F938F939F93AF93BF93EF93FF938091AB
S1131220380190913901AC01092E000C660B770B43
S11312309A0111270027409184005091850060E0B5
S113124070E0402B512B622B732B40933A01509347
S11312503B0160933C0170933D01B09B1AC0019621
S1131260092E000CAA0BBB0BBC0155274427809107
S1131270840090918500A0E0B0E0842B952BA62BF0
S1131280B72B80933A0190933B01A0933C01B09318
S11312903D01E091F401F091F501309739F06DE0F2
S11312A070E080915C0190915D0109950E94250395
S11312B0FF91EF91BF91AF919F918F917F916F912A
S11312C05F914F913F912F911F910F910F900FBEFE
S11312D00F901F9018951F920F920FB60F92112422
S11312E00F931F932F933F934F935F936F937F932A
S11312F08F939F93AF93BF93EF93FF9380913801A4
S113130090913901AC01092E000C660B770B9A0100
S113131011270027409184005091850060E070E01F
S1131320402B512B622B732B40933A0150933B017A
S113133060933C0170933D01B09B1AC00196092E45
S1131340000CAA0BBB0BBC015527442780918400D9
S113135090918500A0E0B0E0842B952BA62BB72BB1
S113136080933A0190933B01A0933C01B0933D01DB
S1131370E091F601F091F701309739F06EE070E0FA
S113138080915E0190915F0109950E942503FF9170
S1131390EF91BF91AF919F918F917F916F915F91E9
S11313A04F913F912F911F910F910F900FBE0F906E
S11313B01F9018951F920F920FB60F9211240F933E
S11313C01F932F933F934F935F936F937F938F93C9
S11313D09F93AF93BF93EF93FF93809138019091C4
S11313E03901AC01092E000C660B770B9A01112709
S11313F00027409184005091850060E070E0402B0C
S1131400512B622B732B40933A0150933B01609311
S11314103C0170933D01B09B1AC00196092E000C4B
S1131420AA0BBB0BBC0155274427809184009091E3
S11314308500A0E0B0E0842B952BA62BB72B8093DE
S11314403A0190933B01A0933C01B0933D01E0919C
S1131450F801F091F901309739F06FE070E0809174
S113146060019091610109950E942503FF91EF911C
S1131470BF91AF919F918F917F916F915F914F91A8
S11314803F912F911F910F910F900FBE0F901F90BE
S113149018951F920F920FB60F9211240F931F935A
S11314A02F933F934F935F936F937F938F939F9368
S11314B0AF93BF93EF93FF938091380190913901DB
S11314C0AC01092E000C660B770B9A01112700273B
S11314D0409184005091850060E070E0402B512BD6
S11314E0622B732B40933A0150933B0160933C0170
S11314F070933D01B09B1AC00196092E000CAA0BF3
S1131500BB0BBC0155274427809184009091850032
S1131510A0E0B0E0842B952BA62BB72B80933A0147
S113152090933B01A0933C01B0933D01E091FA01FB
S1131530F091FB01309739F060E170E08091620135
S11315409091630109950E942503FF91EF91BF914A
S1131550AF919F918F917F916F915F914F913F9147
S11315602F911F910F910F900FBE0F901F90189500
S11315701F920F920FB60F9211240F931F932F9364
S11315803F934F935F936F937F938F939F93AF9307
S1131590BF93EF93FF938091380190913901AC018F
S11315A0092E000C660B770B9A0111270027409136
S11315B084005091850060E070E0402B512B622B39
S11315C0732B40933A0150933B0160933C01709319
S11315D03D01B09B1AC00196092E000CAA0BBB0B4F
S11315E0BC01552744278091840090918500A0E098
S11315F0B0E0842B952BA62BB72B80933A019093C4
S11316003B01A0933C01B0933D01E091FC01F091BA
S1131610FD01309739F061E170E0809164019091AF
S1131620650109950E942503FF91EF91BF91AF9148
S11316309F918F917F916F915F914F913F912F91E6
S11316401F910F910F900FBE0F901F9018950E943D
S11316502503789481E083BF8895FCCF1F920F9275
S11316600FB60F9211242F933F934F935F936F9371
S11316707F938F939F93EF93FF9380913801909181
S1131680390101969093390180933801E0913E012C
S1131690F0913F01309701F142815381648175815A
S11316A086179707C9F4CA012091840030918500F8
S11316B0421B530B4130510529F4809184009091D1
S11316C0850001969093890080938800EFE6F0E00E
S11316D080818260808305C0EFE6F0E080818D7FA9
S11316E08083FF91EF919F918F917F916F915F9193
S11316F04F913F912F910F900FBE0F901F9018950F
S11317001F920F920FB60F921124CF92DF92EF9295
S1131710FF922F933F934F935F936F937F938F9396
S11317209F93AF93BF93EF93FF9380913801909170
S113173039016C01092E000CEE08FF087601DD2446
S1131740CC24409184005091850060E070E0C42A6C
S1131750D52AE62AF72AB09B1EC06C012FEFC21AC5
S1131760D20A0D2C000CEE08FF08D6019927882711
S1131770C0908400D0908500E12CF12CC82AD92A8D
S1131780EA2AFB2A08C08EE391E00E94F00260E49A
S113179071E00E948E02E0913E01F0913F0130978A
S11317A069F082819381A481B5818C199D09AE0968
S11317B0BF09181619061A061B062CF7309721F1D3
S11317C082819381A481B5812091380130913901BE
S11317D02A173B07C9F49C0140918400509185006D
S11317E0841B950B019731F420918400309185007E
S11317F02F5F3F4F3093890020938800EFE6F0E09D
S113180080818260808305C0EFE6F0E080818D7F77
S113181080830E942503FF91EF91BF91AF919F9127
S11318208F917F916F915F914F913F912F91FF9095
S1131830EF90DF90CF900F900FBE0F901F901895F0
S11318403F924F925F926F927F928F929F92AF924C
S1131850BF92CF92DF92EF92FF920F931F93CF9399
S1131860DF932B013C0149015A018FB78078382E50
S1131870F89486E091E00E94F002EC011B870A874D
S1131880FD86EC86DF86CE86332061F0E091000190
S1131890F09101010280F381E02D82819381A48182
S11318A0B58108C080913A0190913B01A0913C011F
S11318B0B0913D01480E591E6A1E7B1E4A825B820E
S11318C06C827D82181419041A041B0444F00F2E30
S11318D088248A94982CA82CFFE7BF2EF02D840C22
S11318E0951CA61CB71C8E829F82A886B98620915F
S11318F0380130913901C901032E000CAA0BBB0B2E
S1131900DC0199278827409184005091850060E08C
S113191070E0842B952BA62BB72BB09B13C0C90169
S11319200196092E000CAA0BBB0BDC019927882712
S1131930409184005091850060E070E0842B952BE9
S1131940A62BB72B481A590A6A0A7B0A14141504E1
S113195016041704ACF56EE371E0CE010E94BF02D9
S1131960E0913E01F0913F01309721F18281938112
S1131970A481B58120913801309139012A173B07A0
S1131980C9F49C014091840050918500841B950BFF
S1131990019731F420918400309185002F5F3F4FEF
S11319A03093890020938800EFE6F0E08081826024
S11319B0808339C0EFE6F0E080818D7F808333C07F
S11319C060E471E0CE010E948E02332061F18091C7
S11319D0040190910501892B31F1E0914001F091CE
S11319E0410186819781A085B185E0910201F09142
S11319F003010280F381E02D468157816085718562
S1131A00841B950BA60BB70B72F484E091E00E9443
S1131A101B0362E071E00E94110380910201909126
S1131A2003010E946E02332009F07894CE01DF9105
S1131A30CF911F910F91FF90EF90DF90CF90BF90C7
S1131A40AF909F908F907F906F905F904F903F905A
S1131A500895CF92DF92EF92FF920F931F93CF934B
S1131A60DF93EC017B016A011FB71078F894A88119
S1131A70B981109719F435C0A081B1811496ED9104
S1131A80FC9115973097C1F7209100013091010125
S1131A90A217B30711F0111107C0112309F44AC0AA
S1131AA078948FEF9FEF4EC08A819B81009719F045
S1131AB0FC01158214823B832A83F901D583C483F4
S1131AC0CD010E946E02E0910001F091010182813A
S1131AD09381892B31F4112381F1789480E090E093
S1131AE031C0809100019091010199838883112371
S1131AF029F08A819B81019709F07894B601CE017F
S1131B00F7010995F82E092F8FB7F89419821882D6
S1131B108A819B818230910538F01B821A82FC01F4
S1131B20158214820E946E02112351F078948F2D35
S1131B30902F08C08FEF9FEF05C080E090E002C0B7
S1131B408F2D902FDF91CF911F910F91FF90EF90E8
S1131B50DF90CF900895009100011091010180E47D
S1131B6091E00E94F002EC01F8019383828378945F
S1131B706C857D854E855F858A859B850E94290DB0
S1131B808FB7F89466E071E0CE010E940703E091FC
S1131B900201F09103010190F081E02DC281D38113
S1131BA0E0914001F09141013097A1F0209799F222
S1131BB086819781A085B1854E815F81688579850D
S1131BC0841B950BA60BB70B181619061A061B06D1
S1131BD00CF0C1CF82E091E00E941B0364E071E04D
S1131BE00E941103A0910201B091030102C0A081DF
S1131BF0B1811496ED91FC9115973097C1F7CD0101
S1131C000E946E02A8CFFC014231B8F49FB79078CD
S1131C10F89450E0440F551FDA01AE5BBE4FED93CC
S1131C20FC93DA01A652BE4F6D937C9321E030E021
S1131C3033832283992309F0789408958C017B01DE
S1131C406A018FB7F8940E94CF017894E114F104EB
S1131C5041F020E030E0A90160E070E0CB010E9497
S1131C60200C8FB7F8940E94270B052E97FB1EF4C7
S1131C7000940E944C0E57FD07D00E94540E07FC9E
S1131C8003D04EF40C944C0E50954095309521950C
S1131C903F4F4F4F5F4F0895909580957095619594
S1131CA07F4F8F4F9F4F0895A1E21A2EAA1BBB1B93
S1131CB0FD010DC0AA1FBB1FEE1FFF1FA217B30714
S1131CC0E407F50720F0A21BB30BE40BF50B661F2A
S1131CD0771F881F991F1A9469F7609570958095EE
S1131CE090959B01AC01BD01CF010895DC012D92BB
S1131CF03D924D925D926D927D928D929D92AD92A8
S1131D00BD92CD92DD92ED92FD920D931D93CD93F4
S1131D10DD93FF91EF918DB78D938EB78D938FB730
S1131D208D93ED93FD93882799270994DC01CB01CA
S1131D3081309105811D2D903D904D905D906D9069
S1131D407D908D909D90AD90BD90CD90DD90ED9067
S1131D50FD900D911D91CD91DD91ED91FD910D9031
S1131D60F894FEBF0FBEEDBFED91FD910994F89478
S1051D70FFCF9F
S1131D72FE01FE0166011B020105050100010100CD
S1131D8201010E0101010B0100050B0001040B010D
S1131D9201040F010101010001050F0101050B01FD
S1071DA2090F0F0F03
S9030000FC
