S01300004430303033452D6C6162342E7372656335
S11300000C942E000C94CC060C943B070C94AA0779
S11300100C9419080C9488080C944B000C94F30E5F
S11300200C944B000C94A10E0C94F7080C946609E4
S11300300C94D5090C94440A0C94B30A0C94220B26
S11300400C94910B0C94000C0C946F0C0C94DE0C1F
S11300500C944D0D0C94BC0D0C942B0E11241FBE4E
S1130060CFEFD4E0DEBFCDBF11E0A0E0B1E0E2E528
S1130070F4E202C005900D92A433B107D9F724E04D
S1130080A4E3B1E001C01D92A738B207E1F70E94D2
S1130090A9040C9427120C940000FC01848195811E
S11300A0892B29F09EB180E489278EB908959EB1E9
S11300B080E189278EB90895CF92DF92EF92FF9263
S11300C00F931F93FC0182859385892B09F1848109
S11300D095816C01CC0CDD1C880F991F880F991F2A
S11300E0880F991FC80ED91E0485158584E0C80E93
S11300F0D11C0F2EFCE7EF2EF4E0FF2EF02D20E0B4
S113010030E0A90160E070E0CB010E94930F1DC0B4
S113011024813581048515856901CC0CDD1C220FF1
S1130120331F220F331F220F331FC20ED31E0F2E75
S1130130FCE7EF2EF4E0FF2EF02D20E030E0A901E3
S113014060E070E0CB010E94930F1F910F91FF902C
S1130150EF90DF90CF900895CF92DF92EF92FF92CD
S11301600F931F93CF93DF93EC018C819D81892B97
S113017029F488859985892B09F440C00E851F854B
S1130180C12CD12C0F2EFDE4EF2EF0E0FF2EF02D2C
S113019020E030E0A90160E070E0CB010E94930F01
S11301A0198618866C817D8184EF91E00E94A811E4
S11301B02DE730E0DB010E94BC118B019C019923E7
S11301C024F40D5F1F4F2F4F3F4FC901B801959580
S11301D08795779567959595879577956795C12CBC
S11301E0D12C0F2EFCEAEF2EF0E0FF2EF02D8E0125
S11301F020E030E0A9010E94930F14C019861886EC
S1130200C12CD12C0F2EFCEAEF2EF0E0FF2EF02DA6
S11302108E0120E030E0A90169E07DE380E090E018
S11302200E94930FDF91CF911F910F91FF90EF9058
S1130230DF90CF900895CF92DF92EF92FF920F93C9
S11302401F93FC012481358123363105A9F08C01EB
S11302502F5F3F4F35832483C12CD12C0F2EFCE517
S1130260EF2EF0E0FF2EF02D20E030E0A90160E059
S113027070E0CB010E94930F1F910F91FF90EF90BC
S1130280DF90CF900895CF92DF92EF92FF920F9379
S11302901F93FC012481358112161306ACF48C01E2
S11302A02150310935832483C12CD12C0F2EFCE538
S11302B0EF2EF0E0FF2EF02D20E030E0A90160E009
S11302C070E0CB010E94930F1F910F91FF90EF906C
S11302D0DF90CF900895CF92DF92EF92FF920F9329
S11302E01F93FC01848195810097B1F097838683E5
S11302F015821482C12CD12C0F2EFCE5EF2EF0E0D8
S1130300FF2EF02D8F0120E030E0A90160E070E0C5
S1130310CB010E94930F15C08681978195838483B6
S1130320C12CD12C0F2EFCE5EF2EF0E0FF2EF02D8A
S11303308F0120E030E0A90160E070E0CB010E9471
S1130340930F1F910F91FF90EF90DF90CF9008953E
S1130350CF92DF92EF92FF920F931F93FC012481BF
S11303603581232B99F000851185C12CD12C0F2EBA
S1130370FBE1EF2EF1E0FF2EF02D20E030E0A901AB
S113038060E070E0CB010E94930F13C0FC01068172
S11303901781C12CD12C0F2EFBE1EF2EF1E0FF2EA3
S11303A0F02D20E030E0A90160E070E0CB010E9474
S11303B0930F1F910F91FF90EF90DF90CF900895CE
S11303C0CF92DF92EF92FF920F931F93FC0124814F
S11303D03581232B99F000851185C12CD12C0F2E4A
S11303E0F3E4EF2EF1E0FF2EF02D20E030E0A90140
S11303F060E070E0CB010E94930F13C0FC01068102
S11304001781C12CD12C0F2EFCE7EF2EF4E0FF2E28
S1130410F02D20E030E0A90160E070E0CB010E9403
S1130420930F1F910F91FF90EF90DF90CF9008955D
S1130430CF92DF92EF92FF920F931F93CF93DF93AC
S1130440EC010A851B85C12CD12C0F2EFEE6EF2E64
S1130450F4E0FF2EF02D20E030E0A90160E070E030
S1130460CB010E94930F2C813D8181E090E0232BEE
S113047011F080E090E09D838C83DF91CF911F91F8
S11304800F91FF90EF90DF90CF900895CF92DF927D
S1130490EF92FF920F931F93FC0124813581232B4C
S11304A099F000851185C12CD12C0F2EFBE6EF2E7F
S11304B0F1E0FF2EF02D20E030E0A90160E070E0D3
S11304C0CB010E94930F13C0FC0106811781C12C3C
S11304D0D12C0F2EFBE6EF2EF1E0FF2EF02D20E0C5
S11304E030E0A90160E070E0CB010E94930F1F91FE
S11304F00F91FF90EF90DF90CF900895CF92DF920D
S1130500EF92FF920F931F93CF93DF93EC010E8131
S11305101F81C12CD12C0F2EFCEAEF2EF0E0FF2E10
S1130520F02D20E030E0A90160E070E0CB010E94F2
S1130530930F0885198520E030E0A90160E070E0A0
S1130540CB010E94930FDF91CF911F910F91FF90E8
S1130550EF90DF90CF900895E1E6F0E080E88083AB
S113056010829FE09093E70097EB9093E50097E06B
S11305709093E60090EC9093E40090ED95B984B9E3
S11305808CE08EB98DB9ECE6F0E08081806D8083DB
S1130590EBE6F0E080818C6080838DB3806C8DBB52
S11305A00895CF92DF92EF92FF920F931F93FC0175
S11305B004811581C12CD12C0F2EF1E1EF2EF3E033
S11305C0FF2EF02D20E030E0A90160E070E0CB01C7
S11305D00E94930F1F910F91FF90EF90DF90CF90A7
S11305E00895CF92DF92EF92FF920F931F93FC0135
S11305F004811581C12CD12C0F2EF3E8EF2EF3E0EA
S1130600FF2EF02D20E030E0A90160E070E0CB0186
S11306100E94930F1F910F91FF90EF90DF90CF9066
S11306200895CF92DF92EF92FF920F931F93CF938F
S1130630DF93EC011F9923C00C811D81C12CD12CA7
S11306400F2EF0EEEF2EF1E0FF2EF02D20E030E043
S1130650A90160E070E0CB010E94930F0F2EF1E13D
S1130660EF2EF3E0FF2EF02D8E0120E030E0A90103
S113067065E37CE080E090E00E94930F39C01E990E
S113068023C00C811D81C12CD12C0F2EF8EAEF2E32
S1130690F1E0FF2EF02D20E030E0A90160E070E0F1
S11306A0CB010E94930F0F2EF1E1EF2EF3E0FF2E0A
S11306B0F02D8E0120E030E0A90165E37CE080E0CC
S11306C090E00E94930F14C01C9912C00C811D81EC
S11306D0C12CD12C0F2EF6E4EF2EF2E0FF2EF02DDC
S11306E020E030E0A90160E070E0CB010E94930FAC
S11306F080E090E0DF91CF911F910F91FF90EF90F8
S1130700DF90CF900895CF92DF92EF92FF920F93F4
S11307101F93639B02C0629913C0FC01048115817D
S1130720C12CD12C0F2EF8E1EF2EF2E0FF2EF02D8C
S113073020E030E0A90160E070E0CB010E94930F5B
S11307401F910F91FF90EF90DF90CF900895CF937A
S1130750DF9300D000D0CDB7DEB7DA0190ED980F6B
S11307609A3080F420E030E028C0FC01E85FFE4FBE
S113077020A5E1E0F0E0EC0FFD1FE80FF91F208356
S1130780019602C080E090E08430910574F318C0B3
S1130790E82FF0E0F097EE0FFF1FEE0FFF1FE85F6A
S11307A0FE4FE20FF31F9081E1E0F0E0EC0FFD1F3C
S11307B0E20FF31F90832F5F3F4F2430310544F342
S11307C061110DC011C0E1E0F0E0EC0FFD1FE80F76
S11307D0F91F20812295207F2083019602C080E0AA
S11307E090E0843091057CF39C918981892B8C93D2
S11307F015969C9115978A81892B15968C9315973C
S11308001A969C911A978B81892B1A968C931A9716
S11308101F969C911F978C81892B1F968C930F9008
S11308200F900F900F90DF91CF910895882391F04E
S1130830FB0180818970808385E090E007C0FB0123
S1130840E80FF91F20812F702083059684319105CC
S1130850B4F30895FB0180818079808385E090E082
S113086007C0FB01E80FF91F2081207F2083059634
S113087084319105B4F308951F93CF93DF93182F18
S113088060FD14C0AB01772314F44F5F5F4F55959F
S11308904795EA01C451DF4FBE0180E00E9416046F
S11308A0AE0160E0812F0E94A70314C0615071095A
S11308B0AB0112F44F5F5F4F55954795EA01C45160
S11308C0DF4FBE0181E00E941604AE0161E0812F7A
S11308D00E94A703DF91CF911F910895E9EFF0E003
S11308E0908181E0982791709083EEEFF0E0908101
S11308F08927817080830895EF92FF920F931F934D
S1130900CF93DF93CB010AE010E0B8010E94A81155
S11309107B01EC01CB0164E670E00E94A811B801F0
S11309200E94A811862FBE01805D0E943C0421967E
S1130930C701B8010E94A811BE01805D0E943C0459
S113094080E090E0DF91CF911F910F91FF90EF90A5
S11309500895EF92FF920F931F93CF93DF93CDB738
S1130960DEB7CB54D1090FB6F894DEBF0FBECDBFAE
S11309700E94AC021A8219821C821B821E821D8272
S113098018861F821A8619861C861B861E861D865B
S113099081E090E0988B8F871A8A198A1C8A1B8AB7
S11309A01E8A1D8A188E1F8A9A8F898F1C8E1B8E11
S11309B09E012F5F3F4F3E8F2D8FAE014B5F5F4FE8
S11309C058A34F8F1AA219A21CA21BA21EA21DA2D9
S11309D018A61FA29AA789A79CA78BA73EA72DA7F5
S11309E04A5F5F4F58AB4FA71AAA19AA1CAA1BAAA1
S11309F09EAB8DABCE01419698AF8FAB40969AAF2C
S1130A0089AF3CAF2BAF1EAE1DAE21961FAE1EAEFE
S1130A1021977E0181E3E80EF11C2396FFAEEEAE32
S1130A20239724961FAE24978E010C5B1F4F88E0FA
S1130A30F80111928A95E9F7CE01CD96F8019583D4
S1130A40848342E061ED72E0C8010E94761141E0C6
S1130A5061EF72E0C8010E94761140E050E06EE759
S1130A6072E0C7010E949111C55BDF4F0FB6F89485
S1130A70DEBF0FBECDBFDF91CF911F910F91FF90CD
S1130A80EF900895CF93DF9300D000D0CDB7DEB7B9
S1130A9080E090E018C0AC014F5F5F4F9A0122954F
S1130AA03295307F3227207F3227295E3D4F829551
S1130AB09295907F9827807F9827FC01E95EFD4FEF
S1130AC031832083CA018E3091052CF31092F802F1
S1130AD01092F70280E090E015C0AC014F5F5F4FC9
S1130AE06DE1649F9001659F300D11242E593E4F96
S1130AF0689FF001699FF00D1124EE59FE4F318378
S1130B002083CA018330910544F31092BA011092F4
S1130B10B9011A82198232C02DE149815A81249F78
S1130B20C001259F900D1124FC01E859FE4FFC8360
S1130B30EB83CF010E94E61120E649815A81249F6C
S1130B40C001259F900D11248D599C4FEB81FC8190
S1130B50918B808B938B828B8EE191E1968B858B2D
S1130B608DE1849FF001859FF00D1124EE59FE4F15
S1130B70158214824F5F5F4F5A83498329813A81DA
S1130B80243031054CF2EAEFF1E011821082158233
S1130B90148213821282E1E6F0E080E880831082FE
S1130BA0109285001092840084E08093810081E09B
S1130BB080936F000F900F900F900F90DF91CF9163
S1130BC00895CF93DF9300D0CDB7DEB79A8389839E
S1130BD0809100019091010106960E94E611892BF3
S1130BE059F489819A81909301018093000161E015
S1130BF070E006960E9406120F900F90DF91CF913D
S1130C0008950F931F93CF93DF93DC01CB01EB0186
S1130C10E881F981C0E0D0E004C0EF010190F081E7
S1130C20E02D309779F0068117812085318516965D
S1130C304D915D916D917C91199740175107620711
S1130C4073075CF71196FC93EE93209721F4FC0153
S1130C50B183A08302C0B983A883DF91CF911F9190
S1130C600F9108950F931F93CF93DF93DC01CB0172
S1130C70EB01E881F981C0E0D0E004C0EF0101900C
S1130C80F081E02D309779F0028113812481358140
S1130C9012964D915D916D917C9115974017510776
S1130CA0620773075CF71196FC93EE93209721F487
S1130CB0FC01B183A08302C0B983A883DF91CF91E3
S1130CC01F910F910895DC01ED91FC9111973097DC
S1130CD059F48FEF8093EC008093ED008093EE0045
S1130CE081E083BF8895FCCF208131812D933C9393
S1130CF0CF010895FB0120813181FC0131832083E0
S1130D00FB01918380830895FB0120813181FC01E3
S1130D1031832083FB01918380830895DC01ED916D
S1130D20FC911197208131812D933C93CF0108953B
S1130D30CF93DF93E0910201F0910301C281D3814B
S1130D40E0913C01F0913D01309719F1809104014B
S1130D5090910501892BE9F0209769F086819781AC
S1130D60A085B1854E815F8168857985841B950B4B
S1130D70A60BB70B72F484E091E00E948E0662E049
S1130D8071E00E94840680910201909103010E9407
S1130D90E105DF91CF9108951F920F920FB60F9244
S1130DA011240F931F932F933F934F935F936F934C
S1130DB07F938F939F93AF93BF93EF93FF93809110
S1130DC0340190913501AC01092E000C660B770BB0
S1130DD09A0111270027409184005091850060E01A
S1130DE070E0402B512B622B732B409336015093B0
S1130DF037016093380170933901B09B1AC0019692
S1130E00092E000CAA0BBB0BBC015527442780916B
S1130E10840090918500A0E0B0E0842B952BA62B54
S1130E20B72B8093360190933701A0933801B09388
S1130E303901E091D601F091D701309739F060E0A3
S1130E4070E080913E0190913F0109950E949806BF
S1130E50FF91EF91BF91AF919F918F917F916F918E
S1130E605F914F913F912F911F910F910F900FBE62
S1130E700F901F9018951F920F920FB60F92112486
S1130E800F931F932F933F934F935F936F937F938E
S1130E908F939F93AF93BF93EF93FF93809134010C
S1130EA090913501AC01092E000C660B770B9A0169
S1130EB011270027409184005091850060E070E084
S1130EC0402B512B622B732B4093360150933701E7
S1130ED06093380170933901B09B1AC00196092EB2
S1130EE0000CAA0BBB0BBC0155274427809184003E
S1130EF090918500A0E0B0E0842B952BA62BB72B16
S1130F008093360190933701A0933801B09339014F
S1130F10E091D801F091D901309739F061E070E0A7
S1130F20809140019091410109950E949806FF919A
S1130F30EF91BF91AF919F918F917F916F915F914D
S1130F404F913F912F911F910F910F900FBE0F90D2
S1130F501F9018951F920F920FB60F9211240F93A2
S1130F601F932F933F934F935F936F937F938F932D
S1130F709F93AF93BF93EF93FF938091340190912C
S1130F803501AC01092E000C660B770B9A01112771
S1130F900027409184005091850060E070E0402B70
S1130FA0512B622B732B409336015093370160937E
S1130FB0380170933901B09B1AC00196092E000CB8
S1130FC0AA0BBB0BBC015527442780918400909148
S1130FD08500A0E0B0E0842B952BA62BB72B809343
S1130FE0360190933701A0933801B0933901E09111
S1130FF0DA01F091DB01309739F062E070E0809122
S113100042019091430109950E949806FF91EF9146
S1131010BF91AF919F918F917F916F915F914F910C
S11310203F912F911F910F910F900FBE0F901F9022
S113103018951F920F920FB60F9211240F931F93BE
S11310402F933F934F935F936F937F938F939F93CC
S1131050AF93BF93EF93FF93809134019091350147
S1131060AC01092E000C660B770B9A01112700279F
S1131070409184005091850060E070E0402B512B3A
S1131080622B732B409336015093370160933801E0
S113109070933901B09B1AC00196092E000CAA0B5B
S11310A0BB0BBC0155274427809184009091850097
S11310B0A0E0B0E0842B952BA62BB72B80933601B0
S11310C090933701A0933801B0933901E091DC018A
S11310D0F091DD01309739F063E070E080914401D4
S11310E09091450109950E949806FF91EF91BF9157
S11310F0AF919F918F917F916F915F914F913F91AC
S11311002F911F910F910F900FBE0F901F90189564
S11311101F920F920FB60F9211240F931F932F93C8
S11311203F934F935F936F937F938F939F93AF936B
S1131130BF93EF93FF938091340190913501AC01FB
S1131140092E000C660B770B9A011127002740919A
S113115084005091850060E070E0402B512B622B9D
S1131160732B409336015093370160933801709389
S11311703901B09B1AC00196092E000CAA0BBB0BB7
S1131180BC01552744278091840090918500A0E0FC
S1131190B0E0842B952BA62BB72B8093360190932C
S11311A03701A0933801B0933901E091DE01F09149
S11311B0DF01309739F064E070E08091460190914E
S11311C0470109950E949806FF91EF91BF91AF9155
S11311D09F918F917F916F915F914F913F912F914B
S11311E01F910F910F900FBE0F901F9018951F9293
S11311F00F920FB60F9211240F931F932F933F93C7
S11312004F935F936F937F938F939F93AF93BF930A
S1131210EF93FF938091340190913501AC01092E35
S1131220000C660B770B9A0111270027409184006C
S11312305091850060E070E0402B512B622B732BA2
S1131240409336015093370160933801709339010C
S1131250B09B1AC00196092E000CAA0BBB0BBC0153
S1131260552744278091840090918500A0E0B0E048
S1131270842B952BA62BB72B8093360190933701A3
S1131280A0933801B0933901E091E001F091E101BC
S1131290309739F065E070E0809148019091490100
S11312A009950E949806FF91EF91BF91AF919F918C
S11312B08F917F916F915F914F913F912F911F91EA
S11312C00F910F900FBE0F901F9018951F920F92C1
S11312D00FB60F9211240F931F932F933F934F93A5
S11312E05F936F937F938F939F93AF93BF93EF938A
S11312F0FF938091340190913501AC01092E000CCB
S1131300660B770B9A0111270027409184005091B6
S1131310850060E070E0402B512B622B732B4093CF
S11313203601509337016093380170933901B09BB3
S11313301AC00196092E000CAA0BBB0BBC01552741
S113134044278091840090918500A0E0B0E0842B34
S1131350952BA62BB72B8093360190933701A0933E
S11313603801B0933901E091E201F091E301309743
S113137039F066E070E080914A0190914B01099543
S11313800E949806FF91EF91BF91AF919F918F9129
S11313907F916F915F914F913F912F911F910F9189
S11313A00F900FBE0F901F9018951F920F920FB6BB
S11313B00F9211240F931F932F933F934F935F9397
S11313C06F937F938F939F93AF93BF93EF93FF9309
S11313D08091340190913501AC01092E000C660B0B
S11313E0770B9A01112700274091840050918500C2
S11313F060E070E0402B512B622B732B409336013D
S1131400509337016093380170933901B09B1AC02F
S11314100196092E000CAA0BBB0BBC0155274427CF
S11314208091840090918500A0E0B0E0842B952BFE
S1131430A62BB72B8093360190933701A0933801E4
S1131440B0933901E091E401F091E501309739F06E
S113145067E070E080914C0190914D0109950E94E4
S11314609806FF91EF91BF91AF919F918F917F91DA
S11314706F915F914F913F912F911F910F910F9019
S11314800FBE0F901F9018951F920F920FB60F92D8
S113149011240F931F932F933F934F935F936F9355
S11314A07F938F939F93AF93BF93EF93FF93809119
S11314B0340190913501AC01092E000C660B770BB9
S11314C09A0111270027409184005091850060E023
S11314D070E0402B512B622B732B409336015093B9
S11314E037016093380170933901B09B1AC001969B
S11314F0092E000CAA0BBB0BBC0155274427809175
S1131500840090918500A0E0B0E0842B952BA62B5D
S1131510B72B8093360190933701A0933801B09391
S11315203901E091E601F091E701309739F068E084
S113153070E080914E0190914F0109950E949806A8
S1131540FF91EF91BF91AF919F918F917F916F9197
S11315505F914F913F912F911F910F910F900FBE6B
S11315600F901F9018951F920F920FB60F9211248F
S11315700F931F932F933F934F935F936F937F9397
S11315808F939F93AF93BF93EF93FF938091340115
S113159090913501AC01092E000C660B770B9A0172
S11315A011270027409184005091850060E070E08D
S11315B0402B512B622B732B4093360150933701F0
S11315C06093380170933901B09B1AC00196092EBB
S11315D0000CAA0BBB0BBC01552744278091840047
S11315E090918500A0E0B0E0842B952BA62BB72B1F
S11315F08093360190933701A0933801B093390159
S1131600E091E801F091E901309739F069E070E088
S1131610809150019091510109950E949806FF9183
S1131620EF91BF91AF919F918F917F916F915F9156
S11316304F913F912F911F910F910F900FBE0F90DB
S11316401F9018951F920F920FB60F9211240F93AB
S11316501F932F933F934F935F936F937F938F9336
S11316609F93AF93BF93EF93FF9380913401909135
S11316703501AC01092E000C660B770B9A0111277A
S11316800027409184005091850060E070E0402B79
S1131690512B622B732B4093360150933701609387
S11316A0380170933901B09B1AC00196092E000CC1
S11316B0AA0BBB0BBC015527442780918400909151
S11316C08500A0E0B0E0842B952BA62BB72B80934C
S11316D0360190933701A0933801B0933901E0911A
S11316E0EA01F091EB01309739F06AE070E0809103
S11316F052019091530109950E949806FF91EF9130
S1131700BF91AF919F918F917F916F915F914F9115
S11317103F912F911F910F910F900FBE0F901F902B
S113172018951F920F920FB60F9211240F931F93C7
S11317302F933F934F935F936F937F938F939F93D5
S1131740AF93BF93EF93FF93809134019091350150
S1131750AC01092E000C660B770B9A0111270027A8
S1131760409184005091850060E070E0402B512B43
S1131770622B732B409336015093370160933801E9
S113178070933901B09B1AC00196092E000CAA0B64
S1131790BB0BBC01552744278091840090918500A0
S11317A0A0E0B0E0842B952BA62BB72B80933601B9
S11317B090933701A0933801B0933901E091EC0183
S11317C0F091ED01309739F06BE070E080915401B5
S11317D09091550109950E949806FF91EF91BF9150
S11317E0AF919F918F917F916F915F914F913F91B5
S11317F02F911F910F910F900FBE0F901F9018956E
S11318001F920F920FB60F9211240F931F932F93D1
S11318103F934F935F936F937F938F939F93AF9374
S1131820BF93EF93FF938091340190913501AC0104
S1131830092E000C660B770B9A01112700274091A3
S113184084005091850060E070E0402B512B622BA6
S1131850732B409336015093370160933801709392
S11318603901B09B1AC00196092E000CAA0BBB0BC0
S1131870BC01552744278091840090918500A0E005
S1131880B0E0842B952BA62BB72B80933601909335
S11318903701A0933801B0933901E091EE01F09142
S11318A0EF01309739F06CE070E08091560190912F
S11318B0570109950E949806FF91EF91BF91AF914E
S11318C09F918F917F916F915F914F913F912F9154
S11318D01F910F910F900FBE0F901F9018951F929C
S11318E00F920FB60F9211240F931F932F933F93D0
S11318F04F935F936F937F938F939F93AF93BF9314
S1131900EF93FF938091340190913501AC01092E3E
S1131910000C660B770B9A01112700274091840075
S11319205091850060E070E0402B512B622B732BAB
S11319304093360150933701609338017093390115
S1131940B09B1AC00196092E000CAA0BBB0BBC015C
S1131950552744278091840090918500A0E0B0E051
S1131960842B952BA62BB72B8093360190933701AC
S1131970A0933801B0933901E091F001F091F101A5
S1131980309739F06DE070E08091580190915901E1
S113199009950E949806FF91EF91BF91AF919F9195
S11319A08F917F916F915F914F913F912F911F91F3
S11319B00F910F900FBE0F901F9018951F920F92CA
S11319C00FB60F9211240F931F932F933F934F93AE
S11319D05F936F937F938F939F93AF93BF93EF9393
S11319E0FF938091340190913501AC01092E000CD4
S11319F0660B770B9A0111270027409184005091C0
S1131A00850060E070E0402B512B622B732B4093D8
S1131A103601509337016093380170933901B09BBC
S1131A201AC00196092E000CAA0BBB0BBC0155274A
S1131A3044278091840090918500A0E0B0E0842B3D
S1131A40952BA62BB72B8093360190933701A09347
S1131A503801B0933901E091F201F091F30130972C
S1131A6039F06EE070E080915A0190915B01099524
S1131A700E949806FF91EF91BF91AF919F918F9132
S1131A807F916F915F914F913F912F911F910F9192
S1131A900F900FBE0F901F9018951F920F920FB6C4
S1131AA00F9211240F931F932F933F934F935F93A0
S1131AB06F937F938F939F93AF93BF93EF93FF9312
S1131AC08091340190913501AC01092E000C660B14
S1131AD0770B9A01112700274091840050918500CB
S1131AE060E070E0402B512B622B732B4093360146
S1131AF0509337016093380170933901B09B1AC039
S1131B000196092E000CAA0BBB0BBC0155274427D8
S1131B108091840090918500A0E0B0E0842B952B07
S1131B20A62BB72B8093360190933701A0933801ED
S1131B30B0933901E091F401F091F501309739F057
S1131B406FE070E080915C0190915D0109950E94C5
S1131B509806FF91EF91BF91AF919F918F917F91E3
S1131B606F915F914F913F912F911F910F910F9022
S1131B700FBE0F901F9018951F920F920FB60F92E1
S1131B8011240F931F932F933F934F935F936F935E
S1131B907F938F939F93AF93BF93EF93FF93809122
S1131BA0340190913501AC01092E000C660B770BC2
S1131BB09A0111270027409184005091850060E02C
S1131BC070E0402B512B622B732B409336015093C2
S1131BD037016093380170933901B09B1AC00196A4
S1131BE0092E000CAA0BBB0BBC015527442780917E
S1131BF0840090918500A0E0B0E0842B952BA62B67
S1131C00B72B8093360190933701A0933801B0939A
S1131C103901E091F601F091F701309739F060E174
S1131C2070E080915E0190915F0109950E94980691
S1131C30FF91EF91BF91AF919F918F917F916F91A0
S1131C405F914F913F912F911F910F910F900FBE74
S1131C500F901F9018951F920F920FB60F92112498
S1131C600F931F932F933F934F935F936F937F93A0
S1131C708F939F93AF93BF93EF93FF93809134011E
S1131C8090913501AC01092E000C660B770B9A017B
S1131C9011270027409184005091850060E070E096
S1131CA0402B512B622B732B4093360150933701F9
S1131CB06093380170933901B09B1AC00196092EC4
S1131CC0000CAA0BBB0BBC01552744278091840050
S1131CD090918500A0E0B0E0842B952BA62BB72B28
S1131CE08093360190933701A0933801B093390162
S1131CF0E091F801F091F901309739F061E170E079
S1131D00809160019091610109950E949806FF916C
S1131D10EF91BF91AF919F918F917F916F915F915F
S1131D204F913F912F911F910F910F900FBE0F90E4
S1131D301F9018950E949806789481E083BF889537
S1131D40FCCF1F920F920FB60F9211242F933F9343
S1131D504F935F936F937F938F939F93EF93FF932F
S1131D6080913401909135010196909335018093CF
S1131D703401E0913A01F0913B01309701F1428145
S1131D8053816481758186179707C9F4CA0120912C
S1131D90840030918500421B530B4130510529F4D6
S1131DA0809184009091850001969093890080939E
S1131DB08800EFE6F0E080818260808305C0EFE672
S1131DC0F0E080818D7F8083FF91EF919F918F91CF
S1131DD07F916F915F914F913F912F910F900FBE23
S1131DE00F901F9018951F920F920FB60F92112407
S1131DF0CF92DF92EF92FF922F933F934F935F9393
S1131E006F937F938F939F93AF93BF93EF93FF93BE
S1131E1080913401909135016C01092E000CEE087B
S1131E20FF087601DD24CC24409184005091850084
S1131E3060E070E0C42AD52AE62AF72AB09B1EC0C7
S1131E406C012FEFC21AD20A0D2C000CEE08FF0809
S1131E50D60199278827C0908400D0908500E12C72
S1131E60F12CC82AD92AEA2AFB2A08C08AE391E07D
S1131E700E9463066CE371E00E940106E0913A015E
S1131E80F0913B01309769F082819381A481B581FF
S1131E908C199D09AE09BF09181619061A061B06E6
S1131EA02CF7309721F182819381A481B58120910F
S1131EB03401309135012A173B07C9F49C01409144
S1131EC0840050918500841B950B019731F4209177
S1131ED08400309185002F5F3F4F30938900209319
S1131EE08800EFE6F0E080818260808305C0EFE641
S1131EF0F0E080818D7F80830E949806FF91EF91AE
S1131F00BF91AF919F918F917F916F915F914F910D
S1131F103F912F91FF90EF90DF90CF900F900FBEE5
S1131F200F901F9018953F924F925F926F927F92FD
S1131F308F929F92AF92BF92CF92DF92EF92FF92D5
S1131F400F931F93CF93DF932B013C0149015A0157
S1131F508FB78078382EF89486E091E00E9463066B
S1131F60EC011B870A87FD86EC86DF86CE8633204C
S1131F7061F0E0910001F09101010280F381E02D14
S1131F8082819381A481B58108C0809136019091AA
S1131F903701A0913801B0913901480E591E6A1ECB
S1131FA07B1E4A825B826C827D82181419041A0497
S1131FB01B0444F00F2E88248A94982CA82CFFE745
S1131FC0BF2EF02D840C951CA61CB71C8E829F82FC
S1131FD0A886B9862091340130913501C901032EB8
S1131FE0000CAA0BBB0BDC019927882740918400C5
S1131FF05091850060E070E0842B952BA62BB72BC5
S1132000B09B13C0C9010196092E000CAA0BBB0B8F
S1132010DC0199278827409184005091850060E075
S113202070E0842B952BA62BB72B481A590A6A0A01
S11320307B0A1414150416041704ACF56AE371E062
S1132040CE010E943206E0913A01F0913B013097B3
S113205021F182819381A481B58120913401309151
S113206035012A173B07C9F49C0140918400509123
S11320708500841B950B019731F4209184003091E5
S113208085002F5F3F4F3093890020938800EFE64F
S1132090F0E080818260808339C0EFE6F0E08081E7
S11320A08D7F808333C06CE371E0CE010E94010612
S11320B0332061F18091040190910501892B31F164
S11320C0E0913C01F0913D0186819781A085B18525
S11320D0E0910201F09103010280F381E02D468139
S11320E0578160857185841B950BA60BB70B72F421
S11320F084E091E00E948E0662E071E00E94840612
S113210080910201909103010E94E105332009F0BE
S11321107894CE01DF91CF911F910F91FF90EF90B2
S1132120DF90CF90BF90AF909F908F907F906F90F3
S11321305F904F903F900895CF92DF92EF92FF927D
S11321400F931F93CF93DF93EC017B016A011FB7B9
S11321501078F894A881B981109719F435C0A0813A
S1132160B1811496ED91FC9115973097C1F72091A8
S1132170000130910101A217B30711F0111107C03A
S1132180112309F44AC078948FEF9FEF4EC08A81DF
S11321909B81009719F0FC01158214823B832A83EA
S11321A0F901D583C483CD010E94E105E0910001CA
S11321B0F091010182819381892B31F4112381F102
S11321C0789480E090E031C0809100019091010109
S11321D099838883112329F08A819B81019709F0CF
S11321E07894B601CE01F7010995F82E092F8FB71F
S11321F0F894198218828A819B818230910538F083
S11322001B821A82FC01158214820E94E1051123AB
S113221051F078948F2D902F08C08FEF9FEF05C059
S113222080E090E002C08F2D902FDF91CF911F911D
S11322300F91FF90EF90DF90CF90089500910001EF
S1132240109101018CE391E00E946306EC01F80116
S11322509383828378946C857D854E855F858A859A
S11322609B850E949C108FB7F89466E071E0CE01C4
S11322700E947A06E0910201F09103010190F0813D
S1132280E02DC281D381E0913C01F0913D01309772
S1132290A1F0209799F286819781A085B1854E811E
S11322A05F8168857985841B950BA60BB70B18167F
S11322B019061A061B060CF0C1CF82E091E00E94B9
S11322C08E0664E071E00E948406A0910201B09140
S11322D0030102C0A081B1811496ED91FC91159780
S11322E03097C1F7CD010E94E105A8CFFC0142312E
S11322F0B8F49FB79078F89450E0440F551FDA0172
S1132300A25CBE4FED93FC93DA01AA52BE4F6D93CB
S11323107C9321E030E033832283992309F078947D
S113232008958C017B016A018FB7F8940E944205DD
S11323307894E114F10441F020E030E0A90160E078
S113234070E0CB010E94930F8FB7F8940E949A0E0D
S113235097FB072E16F4009407D077FD09D00E944E
S1132360C31107FC05D03EF4909581959F4F0895C5
S1132370709561957F4F08950E94D711B7FF089516
S1132380821B930B0895AA1BBB1B51E107C0AA1F14
S1132390BB1FA617B70710F0A61BB70B881F991F02
S11323A05A95A9F780959095BC01CD010895A29FF7
S11323B0B001B39FC001A39F700D811D1124911D15
S11323C0B29F700D811D1124911D0895DC012D9281
S11323D03D924D925D926D927D928D929D92AD92C1
S11323E0BD92CD92DD92ED92FD920D931D93CD930E
S11323F0DD93FF91EF918DB78D938EB78D938FB74A
S11324008D93ED93FD93882799270994DC01CB01E3
S113241081309105811D2D903D904D905D906D9082
S11324207D908D909D90AD90BD90CD90DD90ED9080
S1132430FD900D911D91CD91DD91ED91FD910D904A
S1132440F894FEBF0FBEEDBFED91FD910994F89491
S1052450FFCFB8
S1132452FA01FA01620117020105050100010100F6
S113246201010E0101010B0100050B0001040B0126
S113247201040F010101010001050F0101050B0116
S1072482090F0F0F1C
S90304FCFC
