:100000000C942E000C943F020C94AE020C941D0331
:100010000C948C030C94FB030C944B000C945F0A1F
:100020000C944B000C940D0A0C946A040C94D904A3
:100030000C9448050C94B7050C9426060C94950670
:100040000C9404070C9473070C94E2070C94510869
:100050000C94C0080C942F090C949E0911241FBE07
:10006000CFEFD4E0DEBFCDBF11E0A0E0B1E0E6E02D
:10007000F7E102C005900D92A233B107D9F724E051
:10008000A2E3B1E001C01D92A538B207E1F70E94DA
:1000900089010C94810B0C940000E1E6F0E080E80B
:1000A000808310829FE09093E70097EB9093E500A8
:1000B00097E09093E60090EC9093E40090ED95B972
:1000C00084B980E18EB9ECE6F0E0808180688083BD
:1000D0008DB380688DBB0895CF93DF9300D000D09F
:1000E000CDB7DEB7DA0190ED980F9A3080F420E0BA
:1000F00030E028C0FC01EA5FFE4F20A5E1E0F0E01F
:10010000EC0FFD1FE80FF91F2083019602C080E06D
:1001100090E08430910574F318C0E82FF0E0F09778
:10012000EE0FFF1FEE0FFF1FEA5FFE4FE20FF31F00
:100130009081E1E0F0E0EC0FFD1FE20FF31F9083F0
:100140002F5F3F4F2430310544F361110DC011C0C2
:10015000E1E0F0E0EC0FFD1FE80FF91F2081229590
:10016000207F2083019602C080E090E084309105DA
:100170007CF39C918981892B8C9315969C91159782
:100180008A81892B15968C9315971A969C911A97AC
:100190008B81892B1A968C931A971F969C911F9787
:1001A0008C81892B1F968C930F900F900F900F903E
:1001B000DF91CF910895882391F0FB0180818970B0
:1001C000808385E090E007C0FB01E80FF91F2081E4
:1001D0002F702083059684319105B4F30895FB01B7
:1001E00080818079808385E090E007C0FB01E80F83
:1001F000F91F2081207F2083059684319105B4F377
:1002000008951F93CF93DF93182F60FD14C0AB01A7
:10021000772314F44F5F5F4F55954795EA01C4511A
:10022000DF4FBE0180E00E94DB00AE0160E0812F65
:100230000E946C0014C061507109AB0112F44F5F51
:100240005F4F55954795EA01C451DF4FBE0181E0EC
:100250000E94DB00AE0161E0812F0E946C00DF9103
:10026000CF911F9108958F929F92AF92BF92CF929C
:10027000DF92EF92FF92CF93DF934B015C01EA0193
:1002800024E630E040E050E00E94FF0A0F2EFAE042
:10029000CF2ED12CE12CF12CF02DA70196010E943C
:1002A000FF0ABE0180E3820F0E9401012196C50171
:1002B000B401A70196010E94FF0A862FBE01805D4E
:1002C0000E940101DF91CF91FF90EF90DF90CF90DE
:1002D000BF90AF909F908F900895EC0160E070E028
:1002E00082E30E9401011F99FECFAE0161E070E040
:1002F00080E090E00E9433011F9BFECF1E99FECF4D
:10030000AE0160E070E0CB010E9433011E9BFECF86
:10031000EACF0E944D0080E090E00E946D01CF93F3
:10032000DF9300D0CDB7DEB79A8389838091000137
:100330009091010106960E94400B892B59F4898106
:100340009A81909301018093000161E070E006962C
:100350000E94600B0F900F90DF91CF9108950F9343
:100360001F93CF93DF93DC01CB01EB01E881F9818F
:10037000C0E0D0E004C0EF010190F081E02D3097A3
:1003800079F0068117812085318516964D915D9112
:100390006D917C91199740175107620773075CF7BD
:1003A0001196FC93EE93209721F4FC01B183A08376
:1003B00002C0B983A883DF91CF911F910F91089557
:1003C000DC01ED91FC911197309759F48FEF8093F8
:1003D000EC008093ED008093EE0081E083BF889570
:1003E000FCCF208131812D933C93CF010895FB01F7
:1003F00020813181FC0131832083FB019183808343
:100400000895DC01ED91FC911197208131812D93AC
:100410003C93CF010895CF93DF93E0910201F091D7
:100420000301C281D381E0913A01F0913B01309701
:1004300019F18091040190910501892BE9F0209731
:1004400069F086819781A085B1854E815F8168853D
:100450007985841B950BA60BB70B72F484E091E0B1
:100460000E94010262E071E00E94F70180910201A6
:10047000909103010E948F01DF91CF9108951F9207
:100480000F920FB60F9211240F931F932F933F9348
:100490004F935F936F937F938F939F93AF93BF938C
:1004A000EF93FF938091320190913301AC01092EBB
:1004B000000C660B770B9A011127002740918400EE
:1004C0005091850060E070E0402B512B622B732B24
:1004D0004093340150933501609336017093370196
:1004E000B09B1AC00196092E000CAA0BBB0BBC01D5
:1004F000552744278091840090918500A0E0B0E0CA
:10050000842B952BA62BB72B809334019093350128
:10051000A0933601B0933701E091D401F091D50159
:10052000309739F060E070E080913C0190913D019E
:1005300009950E940B02FF91EF91BF91AF919F919E
:100540008F917F916F915F914F913F912F911F916B
:100550000F910F900FBE0F901F9018951F920F9242
:100560000FB60F9211240F931F932F933F934F9326
:100570005F936F937F938F939F93AF93BF93EF930B
:10058000FF938091320190913301AC01092E000C50
:10059000660B770B9A011127002740918400509138
:1005A000850060E070E0402B512B622B732B409351
:1005B0003401509335016093360170933701B09B3D
:1005C0001AC00196092E000CAA0BBB0BBC015527C3
:1005D00044278091840090918500A0E0B0E0842BB6
:1005E000952BA62BB72B8093340190933501A093C4
:1005F0003601B0933701E091D601F091D7013097E1
:1006000039F061E070E080913E0190913F010995E1
:100610000E940B02FF91EF91BF91AF919F918F913B
:100620007F916F915F914F913F912F911F910F910A
:100630000F900FBE0F901F9018951F920F920FB63C
:100640000F9211240F931F932F933F934F935F9318
:100650006F937F938F939F93AF93BF93EF93FF938A
:100660008091320190913301AC01092E000C660B90
:10067000770B9A0111270027409184005091850043
:1006800060E070E0402B512B622B732B40933401C0
:10069000509335016093360170933701B09B1AC0B7
:1006A0000196092E000CAA0BBB0BBC015527442751
:1006B0008091840090918500A0E0B0E0842B952B80
:1006C000A62BB72B8093340190933501A09336016C
:1006D000B0933701E091D801F091D901309739F00A
:1006E00062E070E0809140019091410109950E9483
:1006F0000B02FF91EF91BF91AF919F918F917F91ED
:100700006F915F914F913F912F911F910F910F909A
:100710000FBE0F901F9018951F920F920FB60F9259
:1007200011240F931F932F933F934F935F936F93D6
:100730007F938F939F93AF93BF93EF93FF9380919A
:10074000320190913301AC01092E000C660B770B3E
:100750009A0111270027409184005091850060E0A4
:1007600070E0402B512B622B732B4093340150933C
:1007700035016093360170933701B09B1AC0019622
:10078000092E000CAA0BBB0BBC01552744278091F6
:10079000840090918500A0E0B0E0842B952BA62BDF
:1007A000B72B8093340190933501A0933601B09319
:1007B0003701E091DA01F091DB01309739F063E025
:1007C00070E0809142019091430109950E940B02D3
:1007D000FF91EF91BF91AF919F918F917F916F9119
:1007E0005F914F913F912F911F910F910F900FBEED
:1007F0000F901F9018951F920F920FB60F92112411
:100800000F931F932F933F934F935F936F937F9318
:100810008F939F93AF93BF93EF93FF938091320198
:1008200090913301AC01092E000C660B770B9A01F5
:1008300011270027409184005091850060E070E00E
:10084000402B512B622B732B409334015093350175
:100850006093360170933701B09B1AC00196092E40
:10086000000CAA0BBB0BBC015527442780918400C8
:1008700090918500A0E0B0E0842B952BA62BB72BA0
:100880008093340190933501A0933601B0933701E2
:10089000E091DC01F091DD01309739F064E070E027
:1008A000809144019091450109950E940B02FF91AE
:1008B000EF91BF91AF919F918F917F916F915F91D8
:1008C0004F913F912F911F910F910F900FBE0F905D
:1008D0001F9018951F920F920FB60F9211240F932D
:1008E0001F932F933F934F935F936F937F938F93B8
:1008F0009F93AF93BF93EF93FF93809132019091B9
:100900003301AC01092E000C660B770B9A011127FD
:100910000027409184005091850060E070E0402BFA
:10092000512B622B732B409334015093350160930C
:10093000360170933701B09B1AC00196092E000C46
:10094000AA0BBB0BBC0155274427809184009091D2
:100950008500A0E0B0E0842B952BA62BB72B8093CD
:10096000340190933501A0933601B0933701E091A3
:10097000DE01F091DF01309739F065E070E08091A1
:1009800046019091470109950E940B02FF91EF915A
:10099000BF91AF919F918F917F916F915F914F9197
:1009A0003F912F911F910F910F900FBE0F901F90AD
:1009B00018951F920F920FB60F9211240F931F9349
:1009C0002F933F934F935F936F937F938F939F9357
:1009D000AF93BF93EF93FF938091320190913301D6
:1009E000AC01092E000C660B770B9A01112700272A
:1009F000409184005091850060E070E0402B512BC5
:100A0000622B732B40933401509335016093360170
:100A100070933701B09B1AC00196092E000CAA0BE7
:100A2000BB0BBC0155274427809184009091850021
:100A3000A0E0B0E0842B952BA62BB72B809334013C
:100A400090933501A0933601B0933701E091E00116
:100A5000F091E101309739F066E070E08091480153
:100A60009091490109950E940B02FF91EF91BF916E
:100A7000AF919F918F917F916F915F914F913F9136
:100A80002F911F910F910F900FBE0F901F901895EF
:100A90001F920F920FB60F9211240F931F932F9353
:100AA0003F934F935F936F937F938F939F93AF93F6
:100AB000BF93EF93FF938091320190913301AC018A
:100AC000092E000C660B770B9A0111270027409125
:100AD00084005091850060E070E0402B512B622B28
:100AE000732B40933401509335016093360170931A
:100AF0003701B09B1AC00196092E000CAA0BBB0B44
:100B0000BC01552744278091840090918500A0E086
:100B1000B0E0842B952BA62BB72B809334019093B8
:100B20003501A0933601B0933701E091E201F091D5
:100B3000E301309739F067E070E080914A019091CD
:100B40004B0109950E940B02FF91EF91BF91AF916C
:100B50009F918F917F916F915F914F913F912F91D5
:100B60001F910F910F900FBE0F901F9018951F921D
:100B70000F920FB60F9211240F931F932F933F9351
:100B80004F935F936F937F938F939F93AF93BF9395
:100B9000EF93FF938091320190913301AC01092EC4
:100BA000000C660B770B9A011127002740918400F7
:100BB0005091850060E070E0402B512B622B732B2D
:100BC000409334015093350160933601709337019F
:100BD000B09B1AC00196092E000CAA0BBB0BBC01DE
:100BE000552744278091840090918500A0E0B0E0D3
:100BF000842B952BA62BB72B809334019093350132
:100C0000A0933601B0933701E091E401F091E50142
:100C1000309739F068E070E080914C0190914D017F
:100C200009950E940B02FF91EF91BF91AF919F91A7
:100C30008F917F916F915F914F913F912F911F9174
:100C40000F910F900FBE0F901F9018951F920F924B
:100C50000FB60F9211240F931F932F933F934F932F
:100C60005F936F937F938F939F93AF93BF93EF9314
:100C7000FF938091320190913301AC01092E000C59
:100C8000660B770B9A011127002740918400509141
:100C9000850060E070E0402B512B622B732B40935A
:100CA0003401509335016093360170933701B09B46
:100CB0001AC00196092E000CAA0BBB0BBC015527CC
:100CC00044278091840090918500A0E0B0E0842BBF
:100CD000952BA62BB72B8093340190933501A093CD
:100CE0003601B0933701E091E601F091E7013097CA
:100CF00039F069E070E080914E0190914F010995C3
:100D00000E940B02FF91EF91BF91AF919F918F9144
:100D10007F916F915F914F913F912F911F910F9113
:100D20000F900FBE0F901F9018951F920F920FB645
:100D30000F9211240F931F932F933F934F935F9321
:100D40006F937F938F939F93AF93BF93EF93FF9393
:100D50008091320190913301AC01092E000C660B99
:100D6000770B9A011127002740918400509185004C
:100D700060E070E0402B512B622B732B40933401C9
:100D8000509335016093360170933701B09B1AC0C0
:100D90000196092E000CAA0BBB0BBC01552744275A
:100DA0008091840090918500A0E0B0E0842B952B89
:100DB000A62BB72B8093340190933501A093360175
:100DC000B0933701E091E801F091E901309739F0F3
:100DD0006AE070E0809150019091510109950E9464
:100DE0000B02FF91EF91BF91AF919F918F917F91F6
:100DF0006F915F914F913F912F911F910F910F90A4
:100E00000FBE0F901F9018951F920F920FB60F9262
:100E100011240F931F932F933F934F935F936F93DF
:100E20007F938F939F93AF93BF93EF93FF938091A3
:100E3000320190913301AC01092E000C660B770B47
:100E40009A0111270027409184005091850060E0AD
:100E500070E0402B512B622B732B40933401509345
:100E600035016093360170933701B09B1AC001962B
:100E7000092E000CAA0BBB0BBC01552744278091FF
:100E8000840090918500A0E0B0E0842B952BA62BE8
:100E9000B72B8093340190933501A0933601B09322
:100EA0003701E091EA01F091EB01309739F06BE006
:100EB00070E0809152019091530109950E940B02BC
:100EC000FF91EF91BF91AF919F918F917F916F9122
:100ED0005F914F913F912F911F910F910F900FBEF6
:100EE0000F901F9018951F920F920FB60F9211241A
:100EF0000F931F932F933F934F935F936F937F9322
:100F00008F939F93AF93BF93EF93FF9380913201A1
:100F100090913301AC01092E000C660B770B9A01FE
:100F200011270027409184005091850060E070E017
:100F3000402B512B622B732B40933401509335017E
:100F40006093360170933701B09B1AC00196092E49
:100F5000000CAA0BBB0BBC015527442780918400D1
:100F600090918500A0E0B0E0842B952BA62BB72BA9
:100F70008093340190933501A0933601B0933701EB
:100F8000E091EC01F091ED01309739F06CE070E008
:100F9000809154019091550109950E940B02FF9197
:100FA000EF91BF91AF919F918F917F916F915F91E1
:100FB0004F913F912F911F910F910F900FBE0F9066
:100FC0001F9018951F920F920FB60F9211240F9336
:100FD0001F932F933F934F935F936F937F938F93C1
:100FE0009F93AF93BF93EF93FF93809132019091C2
:100FF0003301AC01092E000C660B770B9A01112707
:101000000027409184005091850060E070E0402B03
:10101000512B622B732B4093340150933501609315
:10102000360170933701B09B1AC00196092E000C4F
:10103000AA0BBB0BBC0155274427809184009091DB
:101040008500A0E0B0E0842B952BA62BB72B8093D6
:10105000340190933501A0933601B0933701E091AC
:10106000EE01F091EF01309739F06DE070E0809182
:1010700056019091570109950E940B02FF91EF9143
:10108000BF91AF919F918F917F916F915F914F91A0
:101090003F912F911F910F910F900FBE0F901F90B6
:1010A00018951F920F920FB60F9211240F931F9352
:1010B0002F933F934F935F936F937F938F939F9360
:1010C000AF93BF93EF93FF938091320190913301DF
:1010D000AC01092E000C660B770B9A011127002733
:1010E000409184005091850060E070E0402B512BCE
:1010F000622B732B4093340150933501609336017A
:1011000070933701B09B1AC00196092E000CAA0BF0
:10111000BB0BBC015527442780918400909185002A
:10112000A0E0B0E0842B952BA62BB72B8093340145
:1011300090933501A0933601B0933701E091F0010F
:10114000F091F101309739F06EE070E08091580134
:101150009091590109950E940B02FF91EF91BF9167
:10116000AF919F918F917F916F915F914F913F913F
:101170002F911F910F910F900FBE0F901F901895F8
:101180001F920F920FB60F9211240F931F932F935C
:101190003F934F935F936F937F938F939F93AF93FF
:1011A000BF93EF93FF938091320190913301AC0193
:1011B000092E000C660B770B9A011127002740912E
:1011C00084005091850060E070E0402B512B622B31
:1011D000732B409334015093350160933601709323
:1011E0003701B09B1AC00196092E000CAA0BBB0B4D
:1011F000BC01552744278091840090918500A0E090
:10120000B0E0842B952BA62BB72B809334019093C1
:101210003501A0933601B0933701E091F201F091CE
:10122000F301309739F06FE070E080915A019091AE
:101230005B0109950E940B02FF91EF91BF91AF9165
:101240009F918F917F916F915F914F913F912F91DE
:101250001F910F910F900FBE0F901F9018951F9226
:101260000F920FB60F9211240F931F932F933F935A
:101270004F935F936F937F938F939F93AF93BF939E
:10128000EF93FF938091320190913301AC01092ECD
:10129000000C660B770B9A01112700274091840000
:1012A0005091850060E070E0402B512B622B732B36
:1012B00040933401509335016093360170933701A8
:1012C000B09B1AC00196092E000CAA0BBB0BBC01E7
:1012D000552744278091840090918500A0E0B0E0DC
:1012E000842B952BA62BB72B80933401909335013B
:1012F000A0933601B0933701E091F401F091F5012C
:10130000309739F060E170E080915C0190915D016F
:1013100009950E940B02FF91EF91BF91AF919F91B0
:101320008F917F916F915F914F913F912F911F917D
:101330000F910F900FBE0F901F9018951F920F9254
:101340000FB60F9211240F931F932F933F934F9338
:101350005F936F937F938F939F93AF93BF93EF931D
:10136000FF938091320190913301AC01092E000C62
:10137000660B770B9A01112700274091840050914A
:10138000850060E070E0402B512B622B732B409363
:101390003401509335016093360170933701B09B4F
:1013A0001AC00196092E000CAA0BBB0BBC015527D5
:1013B00044278091840090918500A0E0B0E0842BC8
:1013C000952BA62BB72B8093340190933501A093D6
:1013D0003601B0933701E091F601F091F7013097B3
:1013E00039F061E170E080915E0190915F010995B3
:1013F0000E940B02FF91EF91BF91AF919F918F914E
:101400007F916F915F914F913F912F911F910F911C
:101410000F900FBE0F901F9018951F920F920FB64E
:101420000F9211242F933F934F935F936F937F936A
:101430008F939F93EF93FF938091320190913301AB
:1014400001969093330180933201E0913801F0913D
:101450003901309701F1428153816481758186178A
:101460009707C9F4CA012091840030918500421B7E
:10147000530B4130510529F48091840090918500EF
:1014800001969093890080938800EFE6F0E08081D8
:101490008260808305C0EFE6F0E080818D7F8083ED
:1014A000FF91EF919F918F917F916F915F914F91FC
:1014B0003F912F910F900FBE0F901F9018951F9284
:1014C0000F920FB60F921124CF92DF92EF92FF92FC
:1014D0002F933F934F935F936F937F938F939F933C
:1014E000AF93BF93EF93FF938091320190913301BB
:1014F0006C01092E000CEE08FF087601DD24CC24D7
:10150000409184005091850060E070E0C42AD52AA3
:10151000E62AF72AB09B1EC06C012FEFC21AD20A2E
:101520000D2C000CEE08FF08D60199278827C090E3
:101530008400D0908500E12CF12CC82AD92AEA2A0F
:10154000FB2A08C088E391E00E94E0016AE371E0B1
:101550000E94AF01E0913801F0913901309769F0B4
:1015600082819381A481B5818C199D09AE09BF093F
:10157000181619061A061B062CF7309721F18281DE
:101580009381A481B58120913201309133012A17D2
:101590003B07C9F49C014091840050918500841B55
:1015A000950B019731F420918400309185002F5FD5
:1015B0003F4F3093890020938800EFE6F0E0808170
:1015C0008260808305C0EFE6F0E080818D7F8083BC
:1015D0000E940B02FF91EF91BF91AF919F918F916C
:1015E0007F916F915F914F913F912F91FF90EF907D
:1015F000DF90CF900F900FBE0F901F901895052E83
:1016000097FB1EF400940E94160B57FD07D00E9412
:101610001E0B07FC03D04EF40C94160B509540950E
:10162000309521953F4F4F4F5F4F0895909580958E
:10163000709561957F4F8F4F9F4F0895A1E21A2EAD
:10164000AA1BBB1BFD010DC0AA1FBB1FEE1FFF1F66
:10165000A217B307E407F50720F0A21BB30BE40BB6
:10166000F50B661F771F881F991F1A9469F76095FD
:101670007095809590959B01AC01BD01CF010895B7
:10168000DC012D923D924D925D926D927D928D92F4
:101690009D92AD92BD92CD92DD92ED92FD920D9311
:1016A0001D93CD93DD93FF91EF918DB78D938EB701
:1016B0008D938FB78D93ED93FD9388279927099488
:1016C000DC01CB0181309105811D2D903D904D9025
:1016D0005D906D907D908D909D90AD90BD90CD90E2
:1016E000DD90ED90FD900D911D91CD91DD91ED91ED
:1016F000FD910D90F894FEBF0FBEEDBFED91FD91F1
:061700000994F894FFCFEC
:10170600F801F80160010105050100010100010170
:101716000E0101010B0100050B0001040B01010480
:101726000F010101010001050F0101050B01090F60
:021736000F0F93
:00000001FF
