S01300004430303033452D6C6162342E7372656335
S11300000C942E000C94FE050C946D060C94DC06E6
S11300100C944B070C94BA070C944B000C94250ECB
S11300200C944B000C94D30D0C9429080C94980850
S11300300C9407090C9476090C94E5090C94540A61
S11300400C94C30A0C94320B0C94A10B0C94100C5A
S11300500C947F0C0C94EE0C0C945D0D11241FBEBB
S1130060CFEFD4E0DEBFCDBF11E0A0E0B1E0EAE81D
S1130070F2E202C005900D92A633B107D9F724E04D
S1130080A6E3B1E001C01D92A938B207E1F70E94CE
S113009004040C9443110C940000CF92DF92EF926D
S11300A0FF920F931F93FC0180859185892B09F1A1
S11300B0848195816C01CC0CDD1C880F991F880FFD
S11300C0991F880F991FC80ED91E0285138584E0D5
S11300D0C80ED11C0F2EF7EDEF2EF3E0FF2EF02DFE
S11300E020E030E0A90160E070E0CB010E94C50E81
S11300F01DC024813581028513856901CC0CDD1C6A
S1130100220F331F220F331F220F331FC20ED31EA1
S11301100F2EF7EDEF2EF3E0FF2EF02D20E030E070
S1130120A90160E070E0CB010E94C50E1F910F9100
S1130130FF90EF90DF90CF900895CF92DF92EF92EF
S1130140FF920F931F93FC012481358123363105DF
S1130150A9F08C012F5F3F4F35832483C12CD12C10
S11301600F2EFDE4EF2EF0E0FF2EF02D20E030E026
S1130170A90160E070E0CB010E94C50E1F910F91B0
S1130180FF90EF90DF90CF900895CF92DF92EF929F
S1130190FF920F931F93FC012481358112161306DD
S11301A0ACF48C012150310935832483C12CD12C2A
S11301B00F2EFDE4EF2EF0E0FF2EF02D20E030E0D6
S11301C0A90160E070E0CB010E94C50E1F910F9160
S11301D0FF90EF90DF90CF900895CF92DF92EF924F
S11301E0FF920F931F93FC01848195810097B1F0D6
S11301F09783868315821482C12CD12C0F2EFDE4A3
S1130200EF2EF0E0FF2EF02D8F0120E030E0A90169
S113021060E070E0CB010E94C50E15C08681978115
S113022095838483C12CD12C0F2EFDE4EF2EF0E0B6
S1130230FF2EF02D8F0120E030E0A90160E070E096
S1130240CB010E94C50E1F910F91FF90EF90DF909C
S1130250CF900895CF92DF92EF92FF920F931F9366
S11302602091000130910101232BA1F0FC010681B2
S11302701781C12CD12C0F2EFDE9EF2EF0E0FF2EBB
S1130280F02D20E030E0A90160E070E0CB010E9495
S1130290C50E13C0FC0104811581C12CD12C0F2E75
S11302A0FDE9EF2EF0E0FF2EF02D20E030E0A90173
S11302B060E070E0CB010E94C50E1F910F91FF908A
S11302C0EF90DF90CF900895CF92DF92EF92FF925C
S11302D00F931F932091000130910101232BA1F072
S11302E0FC0106811781C12CD12C0F2EF5ECEF2EC9
S11302F0F0E0FF2EF02D20E030E0A90160E070E096
S1130300CB010E94C50E13C0FC0104811581C12CD0
S1130310D12C0F2EF7EDEF2EF3E0FF2EF02D20E081
S113032030E0A90160E070E0CB010E94C50E1F918E
S11303300F91FF90EF90DF90CF900895CF92DF92CE
S1130340EF92FF920F931F93FC0100851185C12C3E
S1130350D12C0F2EF9ECEF2EF3E0FF2EF02D20E040
S113036030E0A90160E070E0CB010E94C50E81E09D
S113037090E02091000130910101232B11F080E0E5
S113038090E090930101809300011F910F91FF90E1
S1130390EF90DF90CF900895CF92DF92EF92FF928B
S11303A00F931F932091000130910101232BA1F0A1
S11303B0FC0106811781C12CD12C0F2EFDEEEF2EEE
S11303C0F0E0FF2EF02D20E030E0A90160E070E0C5
S11303D0CB010E94C50E13C0FC0104811581C12C00
S11303E0D12C0F2EFDEEEF2EF0E0FF2EF02D20E0AD
S11303F030E0A90160E070E0CB010E94C50E1F91BE
S11304000F91FF90EF90DF90CF900895E1E6F0E038
S113041080E8808310829FE09093E70097EB9093AD
S1130420E50097E09093E60090EC9093E40090ED63
S113043095B984B98CE08EB98DB9ECE6F0E0808191
S1130440806D8083EBE6F0E080818C6080838DB3E7
S1130450806C8DBB0895CF92DF92EF92FF920F9341
S11304601F93FC0104811581C12CD12C0F2EFBE6B6
S1130470EF2EF2E0FF2EF02D20E030E0A90160E045
S113048070E0CB010E94C50E1F910F91FF90EF9079
S1130490DF90CF900895CF92DF92EF92FF920F9367
S11304A01F93FC0104811581C12CD12C0F2EFEED6C
S11304B0EF2EF2E0FF2EF02D20E030E0A90160E005
S11304C070E0CB010E94C50E1F910F91FF90EF9039
S11304D0DF90CF900895CF92DF92EF92FF920F9327
S11304E01F93CF93DF93EC018E81811124C01F9958
S11304F022C00C811D81C12CD12C0F2EF4E6EF2ECD
S1130500F1E0FF2EF02D20E030E0A90160E070E082
S1130510CB010E94C50E0F2EFBE6EF2EF2E0FF2E5C
S1130520F02D8E0120E030E0A90165E37CE080E05D
S113053090E00E94C50E1E9922C00C811D81C12C21
S1130540D12C0F2EFAE2EF2EF1E0FF2EF02D20E059
S113055030E0A90160E070E0CB010E94C50E0F2ECF
S1130560FBE6EF2EF2E0FF2EF02D8E0120E030E0CE
S1130570A90165E37CE080E090E00E94C50E1C992F
S113058012C00C811D81C12CD12C0F2EFCECEF2E3E
S1130590F1E0FF2EF02D20E030E0A90160E070E0F2
S11305A0CB010E94C50E80E090E0DF91CF911F91B6
S11305B00F91FF90EF90DF90CF900895CF92DF924C
S11305C0EF92FF920F931F93639B02C0629913C033
S11305D0FC0104811581C12CD12C0F2EFEE9EF2ED4
S11305E0F1E0FF2EF02D20E030E0A90160E070E0A2
S11305F0CB010E94C50E1F910F91FF90EF90DF90E9
S1130600CF900895CF93DF9300D000D0CDB7DEB75D
S1130610DA0190ED980F9A3080F420E030E028C0A1
S1130620FC01E65FFE4F20A5E1E0F0E0EC0FFD1FCA
S1130630E80FF91F2083019602C080E090E0843027
S1130640910574F318C0E82FF0E0F097EE0FFF1F48
S1130650EE0FFF1FE65FFE4FE20FF31F9081E1E014
S1130660F0E0EC0FFD1FE20FF31F90832F5F3F4F6D
S11306702430310544F361110DC011C0E1E0F0E014
S1130680EC0FFD1FE80FF91F20812295207F2083A6
S1130690019602C080E090E0843091057CF39C9147
S11306A08981892B8C9315969C9115978A81892B26
S11306B015968C9315971A969C911A978B81892B72
S11306C01A968C931A971F969C911F978C81892B4D
S11306D01F968C930F900F900F900F90DF91CF91F6
S11306E00895882391F0FB0180818970808385E0DF
S11306F090E007C0FB01E80FF91F20812F702083D1
S1130700059684319105B4F30895FB0180818079C5
S1130710808385E090E007C0FB01E80FF91F20818A
S1130720207F2083059684319105B4F308951F93A7
S1130730CF93DF93182F60FD14C0AB01772314F41B
S11307404F5F5F4F55954795EA01C451DF4FBE0196
S113075080E00E947103AE0160E0812F0E940203D9
S113076014C061507109AB0112F44F5F5F4F55958E
S11307704795EA01C451DF4FBE0181E00E94710335
S1130780AE0161E0812F0E940203DF91CF911F919E
S11307900895E9EFF0E0908181E0982791709083CB
S11307A0EEEFF0E090818927817080830895EF92C5
S11307B0FF920F931F93CF93DF93CB010AE010E0D6
S11307C0B8010E94DA107B01EC01CB0164E670E011
S11307D00E94DA10B8010E94DA10862FBE01805DF3
S11307E00E9497032196C701B8010E94DA10BE0146
S11307F0805D0E94970380E090E0DF91CF911F918C
S11308000F91FF90EF9008950F931F93CF93DF9371
S1130810CDB7DEB7E5970FB6F894DEBF0FBECDBFF8
S11308200E9406021A8219821C821B821E821D8269
S113083018861F821A8619861C861B861E861D86AC
S1130840CE010196988B8F871A8A198A1C8A1B8A73
S11308501E8A1D8A188E1F8A21E030E03A8F298F64
S11308609C8F8B8F1E8E1D8E18A21F8E9E012B5F58
S11308703F4F3AA329A3245F3F4F3CA32BA39EA33E
S11308808DA318A61FA21AA619A64C969CA78BA7DF
S11308901DA68E01025D1F4F88E0F80111928A9512
S11308A0E9F7CE0187969BAB8AAB42E06BE272E03C
S11308B0C8010E94A81041E06BE472E0C8010E94E4
S11308C0A81040E050E060E070E080E090E00E941A
S11308D0C310E5960FB6F894DEBF0FBECDBFDF910F
S11308E0CF911F910F910895CF93DF9300D000D043
S11308F0CDB7DEB780E090E018C0AC014F5F5F4F2A
S11309009A0122953295307F3227207F3227275E45
S11309103D4F82959295907F9827807F9827FC0180
S1130920E75EFD4F31832083CA018E3091052CF39D
S11309301092FA021092F90280E090E015C0AC0126
S11309404F5F5F4F6DE1649F9001659F300D1124EF
S11309502C593E4F689FF001699FF00D1124EC590A
S1130960FE4F31832083CA018330910544F31092F2
S1130970BC011092BB011A82198232C02DE1498157
S11309805A81249FC001259F900D1124FC01E65932
S1130990FE4FFC83EB83CF010E94021120E64981C4
S11309A05A81249FC001259F900D11248B599C4F7F
S11309B0EB81FC81918B808B938B828B80E590E122
S11309C0968B858B8DE1849FF001859FF00D11241A
S11309D0EC59FE4F158214824F5F5F4F5A8349834F
S11309E029813A81243031054CF2ECEFF1E0118297
S11309F010821582148213821282E1E6F0E080E80C
S1130A0080831082109285001092840084E0809389
S1130A10810081E080936F000F900F900F900F90F2
S1130A20DF91CF910895CF93DF9300D0CDB7DEB798
S1130A309A838983809102019091030106960E9412
S1130A400211892B59F489819A819093030180932F
S1130A50020161E070E006960E9422110F900F904F
S1130A60DF91CF9108950F931F93CF93DF93DC0110
S1130A70CB01EB01E881F981C0E0D0E004C0EF01D3
S1130A800190F081E02D309779F00681178120855F
S1130A90318516964D915D916D917C911997401712
S1130AA05107620773075CF71196FC93EE93209746
S1130AB021F4FC01B183A08302C0B983A883DF9130
S1130AC0CF911F910F9108950F931F93CF93DF93AD
S1130AD0DC01CB01EB01E881F981C0E0D0E004C086
S1130AE0EF010190F081E02D309779F002811381BC
S1130AF02481358112964D915D916D917C9115976C
S1130B0040175107620773075CF71196FC93EE9345
S1130B10209721F4FC01B183A08302C0B983A88388
S1130B20DF91CF911F910F910895DC01ED91FC911C
S1130B301197309759F48FEF8093EC008093ED0078
S1130B408093EE0081E083BF8895FCCF20813181C2
S1130B502D933C93CF010895FB0120813181FC0149
S1130B6031832083FB01918380830895FB012081DD
S1130B703181FC0131832083FB01918380830895BB
S1130B80DC01ED91FC911197208131812D933C93EF
S1130B90CF010895CF93DF93E0910401F091050113
S1130BA0C281D381E0913E01F0913F01309719F168
S1130BB08091060190910701892BE9F0209769F053
S1130BC086819781A085B1854E815F81688579850D
S1130BD0841B950BA60BB70B72F486E091E00E9480
S1130BE0C00564E071E00E94B60580910401909113
S1130BF005010E941305DF91CF9108951F920F9272
S1130C000FB60F9211240F931F932F933F934F937B
S1130C105F936F937F938F939F93AF93BF93EF9360
S1130C20FF938091360190913701AC01092E000C9D
S1130C30660B770B9A01112700274091840050918D
S1130C40850060E070E0402B512B622B732B4093A6
S1130C5038015093390160933A0170933B01B09B82
S1130C601AC00196092E000CAA0BBB0BBC01552718
S1130C7044278091840090918500A0E0B0E0842B0B
S1130C80952BA62BB72B8093380190933901A09311
S1130C903A01B0933B01E091D801F091D90130972A
S1130CA039F060E070E08091400190914101099534
S1130CB00E94CA05FF91EF91BF91AF919F918F91CF
S1130CC07F916F915F914F913F912F911F910F9160
S1130CD00F900FBE0F901F9018951F920F920FB692
S1130CE00F9211240F931F932F933F934F935F936E
S1130CF06F937F938F939F93AF93BF93EF93FF93E0
S1130D008091360190913701AC01092E000C660BDD
S1130D10770B9A0111270027409184005091850098
S1130D2060E070E0402B512B622B732B4093380111
S1130D305093390160933A0170933B01B09B1AC000
S1130D400196092E000CAA0BBB0BBC0155274427A6
S1130D508091840090918500A0E0B0E0842B952BD5
S1130D60A62BB72B8093380190933901A0933A01B5
S1130D70B0933B01E091DA01F091DB01309739F057
S1130D8061E070E0809142019091430109950E94D5
S1130D90CA05FF91EF91BF91AF919F918F917F9180
S1130DA06F915F914F913F912F911F910F910F90F0
S1130DB00FBE0F901F9018951F920F920FB60F92AF
S1130DC011240F931F932F933F934F935F936F932C
S1130DD07F938F939F93AF93BF93EF93FF938091F0
S1130DE0360190913701AC01092E000C660B770B8C
S1130DF09A0111270027409184005091850060E0FA
S1130E0070E0402B512B622B732B4093380150938D
S1130E10390160933A0170933B01B09B1AC001966B
S1130E20092E000CAA0BBB0BBC015527442780914B
S1130E30840090918500A0E0B0E0842B952BA62B34
S1130E40B72B8093380190933901A0933A01B09362
S1130E503B01E091DC01F091DD01309739F062E073
S1130E6070E0809144019091450109950E94CA0562
S1130E70FF91EF91BF91AF919F918F917F916F916E
S1130E805F914F913F912F911F910F910F900FBE42
S1130E900F901F9018951F920F920FB60F92112466
S1130EA00F931F932F933F934F935F936F937F936E
S1130EB08F939F93AF93BF93EF93FF9380913601EA
S1130EC090913701AC01092E000C660B770B9A0147
S1130ED011270027409184005091850060E070E064
S1130EE0402B512B622B732B4093380150933901C3
S1130EF060933A0170933B01B09B1AC00196092E8E
S1130F00000CAA0BBB0BBC0155274427809184001D
S1130F1090918500A0E0B0E0842B952BA62BB72BF5
S1130F208093380190933901A0933A01B0933B0127
S1130F30E091DE01F091DF01309739F063E070E079
S1130F40809146019091470109950E94CA05FF913D
S1130F50EF91BF91AF919F918F917F916F915F912D
S1130F604F913F912F911F910F910F900FBE0F90B2
S1130F701F9018951F920F920FB60F9211240F9382
S1130F801F932F933F934F935F936F937F938F930D
S1130F909F93AF93BF93EF93FF938091360190910A
S1130FA03701AC01092E000C660B770B9A0111274F
S1130FB00027409184005091850060E070E0402B50
S1130FC0512B622B732B409338015093390160935A
S1130FD03A0170933B01B09B1AC00196092E000C94
S1130FE0AA0BBB0BBC015527442780918400909128
S1130FF08500A0E0B0E0842B952BA62BB72B809323
S1131000380190933901A0933A01B0933B01E091E8
S1131010E001F091E101309739F064E070E08091F3
S113102048019091490109950E94CA05FF91EF91E9
S1131030BF91AF919F918F917F916F915F914F91EC
S11310403F912F911F910F910F900FBE0F901F9002
S113105018951F920F920FB60F9211240F931F939E
S11310602F933F934F935F936F937F938F939F93AC
S1131070AF93BF93EF93FF93809136019091370123
S1131080AC01092E000C660B770B9A01112700277F
S1131090409184005091850060E070E0402B512B1A
S11310A0622B732B409338015093390160933A01BA
S11310B070933B01B09B1AC00196092E000CAA0B39
S11310C0BB0BBC0155274427809184009091850077
S11310D0A0E0B0E0842B952BA62BB72B809338018E
S11310E090933901A0933A01B0933B01E091E2015E
S11310F0F091E301309739F065E070E080914A01A6
S113110090914B0109950E94CA05FF91EF91BF91FF
S1131110AF919F918F917F916F915F914F913F918B
S11311202F911F910F910F900FBE0F901F90189544
S11311301F920F920FB60F9211240F931F932F93A8
S11311403F934F935F936F937F938F939F93AF934B
S1131150BF93EF93FF938091360190913701AC01D7
S1131160092E000C660B770B9A011127002740917A
S113117084005091850060E070E0402B512B622B7D
S1131180732B409338015093390160933A01709363
S11311903B01B09B1AC00196092E000CAA0BBB0B95
S11311A0BC01552744278091840090918500A0E0DC
S11311B0B0E0842B952BA62BB72B8093380190930A
S11311C03901A0933A01B0933B01E091E401F0911D
S11311D0E501309739F066E070E080914C01909120
S11311E04D0109950E94CA05FF91EF91BF91AF91FE
S11311F09F918F917F916F915F914F913F912F912B
S11312001F910F910F900FBE0F901F9018951F9272
S11312100F920FB60F9211240F931F932F933F93A6
S11312204F935F936F937F938F939F93AF93BF93EA
S1131230EF93FF938091360190913701AC01092E11
S1131240000C660B770B9A0111270027409184004C
S11312505091850060E070E0402B512B622B732B82
S1131260409338015093390160933A0170933B01E4
S1131270B09B1AC00196092E000CAA0BBB0BBC0133
S1131280552744278091840090918500A0E0B0E028
S1131290842B952BA62BB72B80933801909339017F
S11312A0A0933A01B0933B01E091E601F091E7018C
S11312B0309739F067E070E080914E0190914F01D2
S11312C009950E94CA05FF91EF91BF91AF919F913B
S11312D08F917F916F915F914F913F912F911F91CA
S11312E00F910F900FBE0F901F9018951F920F92A1
S11312F00FB60F9211240F931F932F933F934F9385
S11313005F936F937F938F939F93AF93BF93EF9369
S1131310FF938091360190913701AC01092E000CA6
S1131320660B770B9A011127002740918400509196
S1131330850060E070E0402B512B622B732B4093AF
S113134038015093390160933A0170933B01B09B8B
S11313501AC00196092E000CAA0BBB0BBC01552721
S113136044278091840090918500A0E0B0E0842B14
S1131370952BA62BB72B8093380190933901A0931A
S11313803A01B0933B01E091E801F091E901309713
S113139039F068E070E08091500190915101099515
S11313A00E94CA05FF91EF91BF91AF919F918F91D8
S11313B07F916F915F914F913F912F911F910F9169
S11313C00F900FBE0F901F9018951F920F920FB69B
S11313D00F9211240F931F932F933F934F935F9377
S11313E06F937F938F939F93AF93BF93EF93FF93E9
S11313F08091360190913701AC01092E000C660BE7
S1131400770B9A01112700274091840050918500A1
S113141060E070E0402B512B622B732B409338011A
S11314205093390160933A0170933B01B09B1AC009
S11314300196092E000CAA0BBB0BBC0155274427AF
S11314408091840090918500A0E0B0E0842B952BDE
S1131450A62BB72B8093380190933901A0933A01BE
S1131460B0933B01E091EA01F091EB01309739F040
S113147069E070E0809152019091530109950E94B6
S1131480CA05FF91EF91BF91AF919F918F917F9189
S11314906F915F914F913F912F911F910F910F90F9
S11314A00FBE0F901F9018951F920F920FB60F92B8
S11314B011240F931F932F933F934F935F936F9335
S11314C07F938F939F93AF93BF93EF93FF938091F9
S11314D0360190913701AC01092E000C660B770B95
S11314E09A0111270027409184005091850060E003
S11314F070E0402B512B622B732B40933801509397
S1131500390160933A0170933B01B09B1AC0019674
S1131510092E000CAA0BBB0BBC0155274427809154
S1131520840090918500A0E0B0E0842B952BA62B3D
S1131530B72B8093380190933901A0933A01B0936B
S11315403B01E091EC01F091ED01309739F06AE054
S113155070E0809154019091550109950E94CA054B
S1131560FF91EF91BF91AF919F918F917F916F9177
S11315705F914F913F912F911F910F910F900FBE4B
S11315800F901F9018951F920F920FB60F9211246F
S11315900F931F932F933F934F935F936F937F9377
S11315A08F939F93AF93BF93EF93FF9380913601F3
S11315B090913701AC01092E000C660B770B9A0150
S11315C011270027409184005091850060E070E06D
S11315D0402B512B622B732B4093380150933901CC
S11315E060933A0170933B01B09B1AC00196092E97
S11315F0000CAA0BBB0BBC01552744278091840027
S113160090918500A0E0B0E0842B952BA62BB72BFE
S11316108093380190933901A0933A01B0933B0130
S1131620E091EE01F091EF01309739F06BE070E05A
S1131630809156019091570109950E94CA05FF9126
S1131640EF91BF91AF919F918F917F916F915F9136
S11316504F913F912F911F910F910F900FBE0F90BB
S11316601F9018951F920F920FB60F9211240F938B
S11316701F932F933F934F935F936F937F938F9316
S11316809F93AF93BF93EF93FF9380913601909113
S11316903701AC01092E000C660B770B9A01112758
S11316A00027409184005091850060E070E0402B59
S11316B0512B622B732B4093380150933901609363
S11316C03A0170933B01B09B1AC00196092E000C9D
S11316D0AA0BBB0BBC015527442780918400909131
S11316E08500A0E0B0E0842B952BA62BB72B80932C
S11316F0380190933901A0933A01B0933B01E091F2
S1131700F001F091F101309739F06CE070E08091D4
S113171058019091590109950E94CA05FF91EF91D2
S1131720BF91AF919F918F917F916F915F914F91F5
S11317303F912F911F910F910F900FBE0F901F900B
S113174018951F920F920FB60F9211240F931F93A7
S11317502F933F934F935F936F937F938F939F93B5
S1131760AF93BF93EF93FF9380913601909137012C
S1131770AC01092E000C660B770B9A011127002788
S1131780409184005091850060E070E0402B512B23
S1131790622B732B409338015093390160933A01C3
S11317A070933B01B09B1AC00196092E000CAA0B42
S11317B0BB0BBC0155274427809184009091850080
S11317C0A0E0B0E0842B952BA62BB72B8093380197
S11317D090933901A0933A01B0933B01E091F20157
S11317E0F091F301309739F06DE070E080915A0187
S11317F090915B0109950E94CA05FF91EF91BF91F9
S1131800AF919F918F917F916F915F914F913F9194
S11318102F911F910F910F900FBE0F901F9018954D
S11318201F920F920FB60F9211240F931F932F93B1
S11318303F934F935F936F937F938F939F93AF9354
S1131840BF93EF93FF938091360190913701AC01E0
S1131850092E000C660B770B9A0111270027409183
S113186084005091850060E070E0402B512B622B86
S1131870732B409338015093390160933A0170936C
S11318803B01B09B1AC00196092E000CAA0BBB0B9E
S1131890BC01552744278091840090918500A0E0E5
S11318A0B0E0842B952BA62BB72B80933801909313
S11318B03901A0933A01B0933B01E091F401F09116
S11318C0F501309739F06EE070E080915C01909101
S11318D05D0109950E94CA05FF91EF91BF91AF91F7
S11318E09F918F917F916F915F914F913F912F9134
S11318F01F910F910F900FBE0F901F9018951F927C
S11319000F920FB60F9211240F931F932F933F93AF
S11319104F935F936F937F938F939F93AF93BF93F3
S1131920EF93FF938091360190913701AC01092E1A
S1131930000C660B770B9A01112700274091840055
S11319405091850060E070E0402B512B622B732B8B
S1131950409338015093390160933A0170933B01ED
S1131960B09B1AC00196092E000CAA0BBB0BBC013C
S1131970552744278091840090918500A0E0B0E031
S1131980842B952BA62BB72B809338019093390188
S1131990A0933A01B0933B01E091F601F091F70175
S11319A0309739F06FE070E080915E0190915F01B3
S11319B009950E94CA05FF91EF91BF91AF919F9144
S11319C08F917F916F915F914F913F912F911F91D3
S11319D00F910F900FBE0F901F9018951F920F92AA
S11319E00FB60F9211240F931F932F933F934F938E
S11319F05F936F937F938F939F93AF93BF93EF9373
S1131A00FF938091360190913701AC01092E000CAF
S1131A10660B770B9A01112700274091840050919F
S1131A20850060E070E0402B512B622B732B4093B8
S1131A3038015093390160933A0170933B01B09B94
S1131A401AC00196092E000CAA0BBB0BBC0155272A
S1131A5044278091840090918500A0E0B0E0842B1D
S1131A60952BA62BB72B8093380190933901A09323
S1131A703A01B0933B01E091F801F091F9013097FC
S1131A8039F060E170E08091600190916101099505
S1131A900E94CA05FF91EF91BF91AF919F918F91E1
S1131AA07F916F915F914F913F912F911F910F9172
S1131AB00F900FBE0F901F9018951F920F920FB6A4
S1131AC00F9211240F931F932F933F934F935F9380
S1131AD06F937F938F939F93AF93BF93EF93FF93F2
S1131AE08091360190913701AC01092E000C660BF0
S1131AF0770B9A01112700274091840050918500AB
S1131B0060E070E0402B512B622B732B4093380123
S1131B105093390160933A0170933B01B09B1AC012
S1131B200196092E000CAA0BBB0BBC0155274427B8
S1131B308091840090918500A0E0B0E0842B952BE7
S1131B40A62BB72B8093380190933901A0933A01C7
S1131B50B0933B01E091FA01F091FB01309739F029
S1131B6061E170E0809162019091630109950E94A6
S1131B70CA05FF91EF91BF91AF919F918F917F9192
S1131B806F915F914F913F912F911F910F910F9002
S1131B900FBE0F901F9018950E94CA05789481E09B
S1131BA083BF8895FCCF1F920F920FB60F9211241A
S1131BB02F933F934F935F936F937F938F939F9351
S1131BC0EF93FF93809136019091370101969093A2
S1131BD0370180933601E0913C01F0913D0130974B
S1131BE001F1428153816481758186179707C9F495
S1131BF0CA012091840030918500421B530B41306F
S1131C00510529F480918400909185000196909368
S1131C10890080938800EFE6F0E080818260808311
S1131C2005C0EFE6F0E080818D7F8083FF91EF9126
S1131C309F918F917F916F915F914F913F912F91E0
S1131C400F900FBE0F901F9018951F920F920FB612
S1131C500F921124CF92DF92EF92FF922F933F9332
S1131C604F935F936F937F938F939F93AF93BF93A0
S1131C70EF93FF9380913601909137016C01092E07
S1131C80000CEE08FF087601DD24CC24409184008A
S1131C905091850060E070E0C42AD52AE62AF72A2C
S1131CA0B09B1EC06C012FEFC21AD20A0D2C000C7F
S1131CB0EE08FF08D60199278827C0908400D090A9
S1131CC08500E12CF12CC82AD92AEA2AFB2A08C06B
S1131CD08CE391E00E9495056EE371E00E94330568
S1131CE0E0913C01F0913D01309769F0828193814C
S1131CF0A481B5818C199D09AE09BF09181619066E
S1131D001A061B062CF7309721F182819381A48156
S1131D10B58120913601309137012A173B07C9F468
S1131D209C014091840050918500841B950B019780
S1131D3031F420918400309185002F5F3F4F309320
S1131D40890020938800EFE6F0E080818260808340
S1131D5005C0EFE6F0E080818D7F80830E94CA0594
S1131D60FF91EF91BF91AF919F918F917F916F916F
S1131D705F914F913F912F91FF90EF90DF90CF9023
S1131D800F900FBE0F901F9018953F924F925F9245
S1131D906F927F928F929F92AF92BF92CF92DF9277
S1131DA0EF92FF920F931F93CF93DF932B013C018C
S1131DB049015A018FB78078382EF89488E091E071
S1131DC00E949505EC011B870A87FD86EC86DF8659
S1131DD0CE86332061F0E0910201F091030102808C
S1131DE0F381E02D82819381A481B58108C0809123
S1131DF0380190913901A0913A01B0913B01480E0C
S1131E00591E6A1E7B1E4A825B826C827D82181474
S1131E1019041A041B0444F00F2E88248A94982C65
S1131E20A82CFFE7BF2EF02D840C951CA61CB71C14
S1131E308E829F82A886B98620913601309137011F
S1131E40C901032E000CAA0BBB0BDC0199278827C0
S1131E50409184005091850060E070E0842B952BC4
S1131E60A62BB72BB09B13C0C9010196092E000CF9
S1131E70AA0BBB0BDC019927882740918400509161
S1131E80850060E070E0842B952BA62BB72B481AB5
S1131E90590A6A0A7B0A1414150416041704ACF5CB
S1131EA06CE371E0CE010E946405E0913C01F09185
S1131EB03D01309721F182819381A481B5812091E4
S1131EC03601309137012A173B07C9F49C01409130
S1131ED0840050918500841B950B019731F4209167
S1131EE08400309185002F5F3F4F30938900209309
S1131EF08800EFE6F0E080818260808339C0EFE6FD
S1131F00F0E080818D7F808333C06EE371E0CE0189
S1131F100E943305332061F18091060190910701FD
S1131F20892B31F1E0913E01F0913F018681978147
S1131F30A085B185E0910401F09105010280F3814F
S1131F40E02D4681578160857185841B950BA60B16
S1131F50B70B72F486E091E00E94C00564E071E082
S1131F600E94B60580910401909105010E94130519
S1131F70332009F07894CE01DF91CF911F910F9116
S1131F80FF90EF90DF90CF90BF90AF909F908F9095
S1131F907F906F905F904F903F900895CF92DF9223
S1131FA0EF92FF920F931F93CF93DF93EC017B018A
S1131FB06A011FB71078F894A881B981109719F4B1
S1131FC035C0A081B1811496ED91FC91159730979D
S1131FD0C1F72091020130910301A217B30711F058
S1131FE0111107C0112309F44AC078948FEF9FEFB1
S1131FF04EC08A819B81009719F0FC0115821482DE
S11320003B832A83F901D583C483CD010E94130540
S1132010E0910201F091030182819381892B31F4D3
S1132020112381F1789480E090E031C08091020125
S11320309091030199838883112329F08A819B81DC
S1132040019709F07894B601CE01F7010995F82EAD
S1132050092F8FB7F894198218828A819B81823064
S1132060910538F01B821A82FC01158214820E94A9
S11320701305112351F078948F2D902F08C08FEF02
S11320809FEF05C080E090E002C08F2D902FDF917C
S1132090CF911F910F91FF90EF90DF90CF90089513
S11320A000910201109103018EE391E00E949505D5
S11320B0EC01F8019383828378946C857D854E8549
S11320C05F858A859B850E94CE0F8FB7F89468E060
S11320D071E0CE010E94AC05E0910401F09105018C
S11320E00190F081E02DC281D381E0913E01F09115
S11320F03F013097A1F0209799F286819781A085BE
S1132100B1854E815F8168857985841B950BA60B0B
S1132110B70B181619061A061B060CF0C1CF84E07B
S113212091E00E94C00566E071E00E94B605A091AE
S11321300401B091050102C0A081B1811496ED9112
S1132140FC9115973097C1F7CD010E941305A8CFD4
S1132150FC014231B8F49FB79078F89450E0440FF2
S1132160551FDA01A05CBE4FED93FC93DA01A8522F
S1132170BE4F6D937C9321E030E033832283992317
S113218009F0789408958C017B016A018FB7F89463
S11321900E9474047894E114F10441F020E030E0EA
S11321A0A90160E070E0CB010E94C50E8FB7F894DE
S11321B00E94CC0D97FB072E16F4009407D077FDF0
S11321C009D00E94EE1007FC05D03EF4909581954D
S11321D09F4F0895709561957F4F0895AA1BBB1B6F
S11321E051E107C0AA1FBB1FA617B70710F0A61B13
S11321F0B70B881F991F5A95A9F780959095BC0134
S1132200CD010895DC012D923D924D925D926D9227
S11322107D928D929D92AD92BD92CD92DD92ED9282
S1132220FD920D931D93CD93DD93FF91EF918DB7A7
S11322308D938EB78D938FB78D93ED93FD938827F0
S113224099270994DC01CB0181309105811D2D90E2
S11322503D904D905D906D907D908D909D90AD9052
S1132260BD90CD90DD90ED90FD900D911D91CD919F
S1132270DD91ED91FD910D90F894FEBF0FBEEDBF81
S10D2280ED91FD910994F894FFCF4D
S113228A0100FC01FC0164011902010505010001B8
S113229A010001010E0101010B0100050B000104FB
S11322AA0B0101040F010101010001050F010105E0
S10922BA0B01090F0F0FD8
S9030000FC
