S01300004430303033452D6C6162342E7372656335
S11300000C942E000C94C2050C9431060C94A0069A
S11300100C940F070C947E070C944B000C94E90D80
S11300200C944B000C94970D0C94ED070C945C0805
S11300300C94CB080C943A090C94A9090C94180A52
S11300400C94870A0C94F60A0C94650B0C94D40B4C
S11300500C94430C0C94B20C0C94210D11241FBE6F
S1130060CFEFD4E0DEBFCDBF11E0A0E0B1E0E2E12C
S1130070F2E202C005900D92A633B107D9F724E04D
S1130080A6E3B1E001C01D92AD38B207E1F70E94CA
S1130090E0030C9407110C940000CF92DF92EF92CE
S11300A0FF920F931F93209136013091370112165E
S11300B013060CF045C0FC0121503109309337017F
S11300C02093360186819781892BF9F06901CC0C44
S11300D0DD1C220F331F220F331F220F331FC20ECA
S11300E0D31E0481158184E0C80ED11C0F2EF3EBBE
S11300F0EF2EF3E0FF2EF02D20E030E0A90160E0C8
S113010070E0CB010E94890E1BC004811581690136
S1130110CC0CDD1C220F331F220F331F220F331F81
S1130120C20ED31E0F2EF3EBEF2EF3E0FF2EF02DB5
S113013020E030E0A90160E070E0CB010E94890E6C
S11301401F910F91FF90EF90DF90CF900895CF9281
S1130150DF92EF92FF920F931F932091360130911B
S113016037012F5F3F4F3093370120933601FC0155
S113017046815781452BF9F06901CC0CDD1C220F17
S1130180331F220F331F220F331FC20ED31E0481CD
S11301901581F4E0CF0ED11C0F2EF3EBEF2EF3E01C
S11301A0FF2EF02D20E030E0A90160E070E0CB01EB
S11301B00E94890E1CC0FC01048115816901CC0CCC
S11301C0DD1C220F331F220F331F220F331FC20ED9
S11301D0D31E0F2EF3EBEF2EF3E0FF2EF02D20E0D5
S11301E030E0A90160E070E0CB010E94890E1F910C
S11301F00F91FF90EF90DF90CF900895CF92DF9210
S1130200EF92FF920F931F932091360130913701A3
S113021021153105E1F0309343012093420121E09F
S113022030E03093370120933601C12CD12C0F2EAE
S1130230FDE4EF2EF0E0FF2EF02D8C0120E030E005
S1130240A90160E070E0CB010E94890E1BC02091DF
S11302504201309143012F5F3F4F30933701209388
S11302603601C12CD12C0F2EFDE4EF2EF0E0FF2E31
S1130270F02D8C0120E030E0A90160E070E0CB01BA
S11302800E94890E1F910F91FF90EF90DF90CF9005
S11302900895CF92DF92EF92FF920F931F932091D4
S11302A0000130910101232BA1F0FC01068117818B
S11302B0C12CD12C0F2EF7EAEF2EF0E0FF2EF02DFB
S11302C020E030E0A90160E070E0CB010E94890EDB
S11302D013C0FC0104811581C12CD12C0F2EF7EA27
S11302E0EF2EF0E0FF2EF02D20E030E0A90160E0D9
S11302F070E0CB010E94890E1F910F91FF90EF9047
S1130300DF90CF900895CF92DF92EF92FF920F93F8
S11303101F932091000130910101232BA1F0FC01D6
S113032006811781C12CD12C0F2EFDE4EF2EF0E0B5
S1130330FF2EF02D20E030E0A90160E070E0CB0159
S11303400E94890E13C0FC0104811581C12CD12C9B
S11303500F2EF3EBEF2EF3E0FF2EF02D20E030E034
S1130360A90160E070E0CB010E94890E1F910F91FA
S1130370FF90EF90DF90CF900895CF92DF92EF92AD
S1130380FF920F931F93FC0100851185C12CD12C82
S11303900F2EF5EAEF2EF3E0FF2EF02D20E030E0F3
S11303A0A90160E070E0CB010E94890E81E090E039
S11303B02091000130910101232B11F080E090E0A5
S11303C090930101809300011F910F91FF90EF9092
S11303D0DF90CF900895CF92DF92EF92FF920F9328
S11303E01F932091000130910101232BA1F0FC0106
S11303F006811781C12CD12C0F2EFEEFEF2EF0E0D9
S1130400FF2EF02D20E030E0A90160E070E0CB0188
S11304100E94890E13C0FC0104811581C12CD12CCA
S11304200F2EFEEFEF2EF0E0FF2EF02D20E030E057
S1130430A90160E070E0CB010E94890E1F910F9129
S1130440FF90EF90DF90CF900895E1E6F0E080E830
S1130450808310829FE09093E70097EB9093E500F0
S113046097E09093E60090EC9093E40090ED95B9BA
S113047084B98CE08EB98DB9ECE6F0E08081806DB2
S11304808083EBE6F0E080818C6080838DB3806CA8
S11304908DBB0895CF92DF92EF92FF920F931F933B
S11304A0CF93DF93EC011F9922C00C811D81C12CD5
S11304B0D12C0F2EF3E8EF2EF1E0FF2EF02D20E0EB
S11304C030E0A90160E070E0CB010E94890E0F2E9C
S11304D0FAE4EF2EF2E0FF2EF02D8E0120E030E062
S11304E0A90165E37CE080E090E00E94890E1E99FA
S11304F022C00C811D81C12CD12C0F2EF9E4EF2ECA
S1130500F1E0FF2EF02D20E030E0A90160E070E082
S1130510CB010E94890E0F2EFAE4EF2EF2E0FF2E9B
S1130520F02D8E0120E030E0A90165E37CE080E05D
S113053090E00E94890E1C9912C00C811D81C12C6F
S1130540D12C0F2EFBEEEF2EF1E0FF2EF02D20E04C
S113055030E0A90160E070E0CB010E94890E80E0E8
S113056090E0DF91CF911F910F91FF90EF90DF907A
S1130570CF900895CF92DF92EF92FF920F931F9343
S1130580639B02C0629913C0FC0104811581C12CD4
S1130590D12C0F2EFDEBEF2EF1E0FF2EF02D20E0FD
S11305A030E0A90160E070E0CB010E94890E1F9148
S11305B00F91FF90EF90DF90CF900895CF93DF934A
S11305C000D000D0CDB7DEB7DA0190ED980F9A30A5
S11305D080F420E030E028C0FC01E65FFE4F20A557
S11305E0E1E0F0E0EC0FFD1FE80FF91F2083019616
S11305F002C080E090E08430910574F318C0E82FC5
S1130600F0E0F097EE0FFF1FEE0FFF1FE65FFE4FC7
S1130610E20FF31F9081E1E0F0E0EC0FFD1FE20F29
S1130620F31F90832F5F3F4F2430310544F3611152
S11306300DC011C0E1E0F0E0EC0FFD1FE80FF91F61
S113064020812295207F2083019602C080E090E0E3
S1130650843091057CF39C918981892B8C93159628
S11306609C9115978A81892B15968C9315971A96C8
S11306709C911A978B81892B1A968C931A971F96A3
S11306809C911F978C81892B1F968C930F900F90B0
S11306900F900F90DF91CF910895882391F0FB0183
S11306A080818970808385E090E007C0FB01E80FBA
S11306B0F91F20812F702083059684319105B4F3AE
S11306C00895FB0180818079808385E090E007C0F4
S11306D0FB01E80FF91F2081207F208305968431D8
S11306E09105B4F308951F93CF93DF93182F60FD02
S11306F014C0AB01772314F44F5F5F4F55954795B2
S1130700EA01C451DF4FBE0180E00E944D03AE01F7
S113071060E0812F0E94DE0214C061507109AB01B8
S113072012F44F5F5F4F55954795EA01C451DF4F6F
S1130730BE0181E00E944D03AE0161E0812F0E9461
S1130740DE02DF91CF911F910895E9EFF0E09081EF
S113075081E0982791709083EEEFF0E090818927F3
S1130760817080830895EF92FF920F931F93CF932C
S1130770DF93CB010AE010E0B8010E949E107B01D8
S1130780EC01CB0164E670E00E949E10B8010E9467
S11307909E10862FBE01805D0E9473032196C701BF
S11307A0B8010E949E10BE01805D0E94730380E028
S11307B090E0DF91CF911F910F91FF90EF900895FA
S11307C0CF93DF93CDB7DEB7A4970FB6F894DEBF0F
S11307D00FBECDBF0E9425021A8219821C821B8281
S11307E01E821D8218861F82CE0101969A878987F0
S11307F01C861B861E861D86188A1F869A8B898BEB
S113080021E030E03C8B2B8B1E8A1D8A188E1F8AB8
S11308109E012B5F3F4F3A8F298F285F3F4F3C8FBC
S11308202B8F9E8F8D8F18A21F8E1AA219A2449609
S11308309CA38BA342E06AE472E00A960E946C10C7
S113084041E06AEB72E0CE014F960E946C1040E0EA
S113085050E060E070E080E090E00E948710A49691
S11308600FB6F894DEBF0FBECDBFDF91CF910895D0
S1130870CF93DF9300D000D0CDB7DEB780E090E017
S113088018C0AC014F5F5F4F9A0122953295307FBB
S11308903227207F3227235E3D4F82959295907FA9
S11308A09827807F9827FC01E35EFD4F31832083E6
S11308B0CA018E3091052CF31092FE021092FD02B3
S11308C080E090E015C0AC014F5F5F4F6DE1649F25
S11308D09001659F300D112428593E4F689FF00107
S11308E0699FF00D1124E859FE4F31832083CA011A
S11308F08330910544F31092C0011092BF011A8213
S1130900198232C02DE149815A81249FC001259F5B
S1130910900D1124FC01E259FE4FFC83EB83CF01BF
S11309200E94C61020E649815A81249FC001259F58
S1130930900D112487599C4FEB81FC81918B808B06
S1130940938B828B84E190E1968B858B8DE1849FE0
S1130950F001859FF00D1124E859FE4F1582148291
S11309604F5F5F4F5A83498329813A81243031058F
S11309704CF2E0E0F2E011821082158214821382BC
S11309801282E1E6F0E080E8808310821092850014
S11309901092840084E08093810081E080936F0052
S11309A00F900F900F900F90DF91CF910895CF93F8
S11309B0DF9300D0CDB7DEB79A838983809102019B
S11309C09091030106960E94C610892B59F48981DF
S11309D09A81909303018093020161E070E006968E
S11309E00E94E6100F900F90DF91CF9108950F931E
S11309F01F93CF93DF93DC01CB01EB01E881F981F5
S1130A00C0E0D0E004C0EF010190F081E02D309708
S1130A1079F0068117812085318516964D915D9177
S1130A206D917C91199740175107620773075CF722
S1130A301196FC93EE93209721F4FC01B183A083DB
S1130A4002C0B983A883DF91CF911F910F910895BC
S1130A500F931F93CF93DF93DC01CB01EB01E8816C
S1130A60F981C0E0D0E004C0EF010190F081E02DF5
S1130A70309779F0028113812481358112964D914A
S1130A805D916D917C91159740175107620773072B
S1130A905CF71196FC93EE93209721F4FC01B1834B
S1130AA0A08302C0B983A883DF91CF911F910F91D6
S1130AB00895DC01ED91FC911197309759F48FEF73
S1130AC08093EC008093ED008093EE0081E083BF7F
S1130AD08895FCCF208131812D933C93CF010895DB
S1130AE0FB0120813181FC0131832083FB0191834F
S1130AF080830895FB0120813181FC0131832083AF
S1130B00FB01918380830895DC01ED91FC911197A1
S1130B10208131812D933C93CF010895CF93DF93AE
S1130B20E0910401F0910501C281D381E09140017B
S1130B30F0914101309719F18091060190910701DC
S1130B40892BE9F0209769F086819781A085B1858A
S1130B504E815F8168857985841B950BA60BB70B45
S1130B6072F486E091E00E94840564E071E00E94E2
S1130B707A0580910401909105010E94D704DF91C8
S1130B80CF9108951F920F920FB60F9211240F93D5
S1130B901F932F933F934F935F936F937F938F9301
S1130BA09F93AF93BF93EF93FF93809138019091FC
S1130BB03901AC01092E000C660B770B9A01112741
S1130BC00027409184005091850060E070E0402B44
S1130BD0512B622B732B40933A0150933B0160934A
S1130BE03C0170933D01B09B1AC00196092E000C84
S1130BF0AA0BBB0BBC01552744278091840090911C
S1130C008500A0E0B0E0842B952BA62BB72B809316
S1130C103A0190933B01A0933C01B0933D01E091D4
S1130C20DC01F091DD01309739F060E070E08091F3
S1130C3044019091450109950E948E05FF91EF9121
S1130C40BF91AF919F918F917F916F915F914F91E0
S1130C503F912F911F910F910F900FBE0F901F90F6
S1130C6018951F920F920FB60F9211240F931F9392
S1130C702F933F934F935F936F937F938F939F93A0
S1130C80AF93BF93EF93FF93809138019091390113
S1130C90AC01092E000C660B770B9A011127002773
S1130CA0409184005091850060E070E0402B512B0E
S1130CB0622B732B40933A0150933B0160933C01A8
S1130CC070933D01B09B1AC00196092E000CAA0B2B
S1130CD0BB0BBC015527442780918400909185006B
S1130CE0A0E0B0E0842B952BA62BB72B80933A0180
S1130CF090933B01A0933C01B0933D01E091DE0150
S1130D00F091DF01309739F061E070E080914601A5
S1130D109091470109950E948E05FF91EF91BF9133
S1130D20AF919F918F917F916F915F914F913F917F
S1130D302F911F910F910F900FBE0F901F90189538
S1130D401F920F920FB60F9211240F931F932F939C
S1130D503F934F935F936F937F938F939F93AF933F
S1130D60BF93EF93FF938091380190913901AC01C7
S1130D70092E000C660B770B9A011127002740916E
S1130D8084005091850060E070E0402B512B622B71
S1130D90732B40933A0150933B0160933C01709351
S1130DA03D01B09B1AC00196092E000CAA0BBB0B87
S1130DB0BC01552744278091840090918500A0E0D0
S1130DC0B0E0842B952BA62BB72B80933A019093FC
S1130DD03B01A0933C01B0933D01E091E001F0910F
S1130DE0E101309739F062E070E080914801909120
S1130DF0490109950E948E05FF91EF91BF91AF9132
S1130E009F918F917F916F915F914F913F912F911E
S1130E101F910F910F900FBE0F901F9018951F9266
S1130E200F920FB60F9211240F931F932F933F939A
S1130E304F935F936F937F938F939F93AF93BF93DE
S1130E40EF93FF938091380190913901AC01092E01
S1130E50000C660B770B9A01112700274091840040
S1130E605091850060E070E0402B512B622B732B76
S1130E7040933A0150933B0160933C0170933D01D0
S1130E80B09B1AC00196092E000CAA0BBB0BBC0127
S1130E90552744278091840090918500A0E0B0E01C
S1130EA0842B952BA62BB72B80933A0190933B016F
S1130EB0A0933C01B0933D01E091E201F091E30184
S1130EC0309739F063E070E080914A0190914B01D2
S1130ED009950E948E05FF91EF91BF91AF919F916B
S1130EE08F917F916F915F914F913F912F911F91BE
S1130EF00F910F900FBE0F901F9018951F920F9295
S1130F000FB60F9211240F931F932F933F934F9378
S1130F105F936F937F938F939F93AF93BF93EF935D
S1130F20FF938091380190913901AC01092E000C96
S1130F30660B770B9A01112700274091840050918A
S1130F40850060E070E0402B512B622B732B4093A3
S1130F503A0150933B0160933C0170933D01B09B77
S1130F601AC00196092E000CAA0BBB0BBC01552715
S1130F7044278091840090918500A0E0B0E0842B08
S1130F80952BA62BB72B80933A0190933B01A0930A
S1130F903C01B0933D01E091E401F091E50130970B
S1130FA039F064E070E080914C0190914D01099515
S1130FB00E948E05FF91EF91BF91AF919F918F9108
S1130FC07F916F915F914F913F912F911F910F915D
S1130FD00F900FBE0F901F9018951F920F920FB68F
S1130FE00F9211240F931F932F933F934F935F936B
S1130FF06F937F938F939F93AF93BF93EF93FF93DD
S11310008091380190913901AC01092E000C660BD6
S1131010770B9A0111270027409184005091850095
S113102060E070E0402B512B622B732B40933A010C
S113103050933B0160933C0170933D01B09B1AC0F7
S11310400196092E000CAA0BBB0BBC0155274427A3
S11310508091840090918500A0E0B0E0842B952BD2
S1131060A62BB72B80933A0190933B01A0933C01AC
S1131070B0933D01E091E601F091E701309739F03A
S113108065E070E080914E0190914F0109950E94B6
S11310908E05FF91EF91BF91AF919F918F917F91B9
S11310A06F915F914F913F912F911F910F910F90ED
S11310B00FBE0F901F9018951F920F920FB60F92AC
S11310C011240F931F932F933F934F935F936F9329
S11310D07F938F939F93AF93BF93EF93FF938091ED
S11310E0380190913901AC01092E000C660B770B85
S11310F09A0111270027409184005091850060E0F7
S113110070E0402B512B622B732B40933A01509388
S11311103B0160933C0170933D01B09B1AC0019662
S1131120092E000CAA0BBB0BBC0155274427809148
S1131130840090918500A0E0B0E0842B952BA62B31
S1131140B72B80933A0190933B01A0933C01B09359
S11311503D01E091E801F091E901309739F066E052
S113116070E0809150019091510109950E948E0583
S1131170FF91EF91BF91AF919F918F917F916F916B
S11311805F914F913F912F911F910F910F900FBE3F
S11311900F901F9018951F920F920FB60F92112463
S11311A00F931F932F933F934F935F936F937F936B
S11311B08F939F93AF93BF93EF93FF9380913801E5
S11311C090913901AC01092E000C660B770B9A0142
S11311D011270027409184005091850060E070E061
S11311E0402B512B622B732B40933A0150933B01BC
S11311F060933C0170933D01B09B1AC00196092E87
S1131200000CAA0BBB0BBC0155274427809184001A
S113121090918500A0E0B0E0842B952BA62BB72BF2
S113122080933A0190933B01A0933C01B0933D011C
S1131230E091EA01F091EB01309739F067E070E05A
S1131240809152019091530109950E948E05FF915E
S1131250EF91BF91AF919F918F917F916F915F912A
S11312604F913F912F911F910F910F900FBE0F90AF
S11312701F9018951F920F920FB60F9211240F937F
S11312801F932F933F934F935F936F937F938F930A
S11312909F93AF93BF93EF93FF9380913801909105
S11312A03901AC01092E000C660B770B9A0111274A
S11312B00027409184005091850060E070E0402B4D
S11312C0512B622B732B40933A0150933B01609353
S11312D03C0170933D01B09B1AC00196092E000C8D
S11312E0AA0BBB0BBC015527442780918400909125
S11312F08500A0E0B0E0842B952BA62BB72B809320
S11313003A0190933B01A0933C01B0933D01E091DD
S1131310EC01F091ED01309739F068E070E08091D4
S113132054019091550109950E948E05FF91EF910A
S1131330BF91AF919F918F917F916F915F914F91E9
S11313403F912F911F910F910F900FBE0F901F90FF
S113135018951F920F920FB60F9211240F931F939B
S11313602F933F934F935F936F937F938F939F93A9
S1131370AF93BF93EF93FF9380913801909139011C
S1131380AC01092E000C660B770B9A01112700277C
S1131390409184005091850060E070E0402B512B17
S11313A0622B732B40933A0150933B0160933C01B1
S11313B070933D01B09B1AC00196092E000CAA0B34
S11313C0BB0BBC0155274427809184009091850074
S11313D0A0E0B0E0842B952BA62BB72B80933A0189
S11313E090933B01A0933C01B0933D01E091EE0149
S11313F0F091EF01309739F069E070E08091560187
S11314009091570109950E948E05FF91EF91BF912C
S1131410AF919F918F917F916F915F914F913F9188
S11314202F911F910F910F900FBE0F901F90189541
S11314301F920F920FB60F9211240F931F932F93A5
S11314403F934F935F936F937F938F939F93AF9348
S1131450BF93EF93FF938091380190913901AC01D0
S1131460092E000C660B770B9A0111270027409177
S113147084005091850060E070E0402B512B622B7A
S1131480732B40933A0150933B0160933C0170935A
S11314903D01B09B1AC00196092E000CAA0BBB0B90
S11314A0BC01552744278091840090918500A0E0D9
S11314B0B0E0842B952BA62BB72B80933A01909305
S11314C03B01A0933C01B0933D01E091F001F09108
S11314D0F101309739F06AE070E080915801909101
S11314E0590109950E948E05FF91EF91BF91AF912B
S11314F09F918F917F916F915F914F913F912F9128
S11315001F910F910F900FBE0F901F9018951F926F
S11315100F920FB60F9211240F931F932F933F93A3
S11315204F935F936F937F938F939F93AF93BF93E7
S1131530EF93FF938091380190913901AC01092E0A
S1131540000C660B770B9A01112700274091840049
S11315505091850060E070E0402B512B622B732B7F
S113156040933A0150933B0160933C0170933D01D9
S1131570B09B1AC00196092E000CAA0BBB0BBC0130
S1131580552744278091840090918500A0E0B0E025
S1131590842B952BA62BB72B80933A0190933B0178
S11315A0A0933C01B0933D01E091F201F091F3016D
S11315B0309739F06BE070E080915A0190915B01B3
S11315C009950E948E05FF91EF91BF91AF919F9174
S11315D08F917F916F915F914F913F912F911F91C7
S11315E00F910F900FBE0F901F9018951F920F929E
S11315F00FB60F9211240F931F932F933F934F9382
S11316005F936F937F938F939F93AF93BF93EF9366
S1131610FF938091380190913901AC01092E000C9F
S1131620660B770B9A011127002740918400509193
S1131630850060E070E0402B512B622B732B4093AC
S11316403A0150933B0160933C0170933D01B09B80
S11316501AC00196092E000CAA0BBB0BBC0155271E
S113166044278091840090918500A0E0B0E0842B11
S1131670952BA62BB72B80933A0190933B01A09313
S11316803C01B0933D01E091F401F091F5013097F4
S113169039F06CE070E080915C0190915D010995F6
S11316A00E948E05FF91EF91BF91AF919F918F9111
S11316B07F916F915F914F913F912F911F910F9166
S11316C00F900FBE0F901F9018951F920F920FB698
S11316D00F9211240F931F932F933F934F935F9374
S11316E06F937F938F939F93AF93BF93EF93FF93E6
S11316F08091380190913901AC01092E000C660BE0
S1131700770B9A011127002740918400509185009E
S113171060E070E0402B512B622B732B40933A0115
S113172050933B0160933C0170933D01B09B1AC000
S11317300196092E000CAA0BBB0BBC0155274427AC
S11317408091840090918500A0E0B0E0842B952BDB
S1131750A62BB72B80933A0190933B01A0933C01B5
S1131760B0933D01E091F601F091F701309739F023
S11317706DE070E080915E0190915F0109950E9497
S11317808E05FF91EF91BF91AF919F918F917F91C2
S11317906F915F914F913F912F911F910F910F90F6
S11317A00FBE0F901F9018951F920F920FB60F92B5
S11317B011240F931F932F933F934F935F936F9332
S11317C07F938F939F93AF93BF93EF93FF938091F6
S11317D0380190913901AC01092E000C660B770B8E
S11317E09A0111270027409184005091850060E000
S11317F070E0402B512B622B732B40933A01509392
S11318003B0160933C0170933D01B09B1AC001966B
S1131810092E000CAA0BBB0BBC0155274427809151
S1131820840090918500A0E0B0E0842B952BA62B3A
S1131830B72B80933A0190933B01A0933C01B09362
S11318403D01E091F801F091F901309739F06EE033
S113185070E0809160019091610109950E948E056C
S1131860FF91EF91BF91AF919F918F917F916F9174
S11318705F914F913F912F911F910F910F900FBE48
S11318800F901F9018951F920F920FB60F9211246C
S11318900F931F932F933F934F935F936F937F9374
S11318A08F939F93AF93BF93EF93FF9380913801EE
S11318B090913901AC01092E000C660B770B9A014B
S11318C011270027409184005091850060E070E06A
S11318D0402B512B622B732B40933A0150933B01C5
S11318E060933C0170933D01B09B1AC00196092E90
S11318F0000CAA0BBB0BBC01552744278091840024
S113190090918500A0E0B0E0842B952BA62BB72BFB
S113191080933A0190933B01A0933C01B0933D0125
S1131920E091FA01F091FB01309739F06FE070E03B
S1131930809162019091630109950E948E05FF9147
S1131940EF91BF91AF919F918F917F916F915F9133
S11319504F913F912F911F910F910F900FBE0F90B8
S11319601F9018951F920F920FB60F9211240F9388
S11319701F932F933F934F935F936F937F938F9313
S11319809F93AF93BF93EF93FF938091380190910E
S11319903901AC01092E000C660B770B9A01112753
S11319A00027409184005091850060E070E0402B56
S11319B0512B622B732B40933A0150933B0160935C
S11319C03C0170933D01B09B1AC00196092E000C96
S11319D0AA0BBB0BBC01552744278091840090912E
S11319E08500A0E0B0E0842B952BA62BB72B809329
S11319F03A0190933B01A0933C01B0933D01E091E7
S1131A00FC01F091FD01309739F060E170E08091C4
S1131A1064019091650109950E948E05FF91EF91F3
S1131A20BF91AF919F918F917F916F915F914F91F2
S1131A303F912F911F910F910F900FBE0F901F9008
S1131A4018951F920F920FB60F9211240F931F93A4
S1131A502F933F934F935F936F937F938F939F93B2
S1131A60AF93BF93EF93FF93809138019091390125
S1131A70AC01092E000C660B770B9A011127002785
S1131A80409184005091850060E070E0402B512B20
S1131A90622B732B40933A0150933B0160933C01BA
S1131AA070933D01B09B1AC00196092E000CAA0B3D
S1131AB0BB0BBC015527442780918400909185007D
S1131AC0A0E0B0E0842B952BA62BB72B80933A0192
S1131AD090933B01A0933C01B0933D01E091FE0142
S1131AE0F091FF01309739F061E170E08091660177
S1131AF09091670109950E948E05FF91EF91BF9126
S1131B00AF919F918F917F916F915F914F913F9191
S1131B102F911F910F910F900FBE0F901F9018954A
S1131B200E948E05789481E083BF8895FCCF1F9234
S1131B300F920FB60F9211242F933F934F935F93FD
S1131B406F937F938F939F93EF93FF9380913801CB
S1131B509091390101969093390180933801E09175
S1131B603E01F0913F01309701F14281538164813C
S1131B70758186179707C9F4CA01209184003091B2
S1131B808500421B530B4130510529F48091840098
S1131B909091850001969093890080938800EFE6E8
S1131BA0F0E080818260808305C0EFE6F0E0808110
S1131BB08D7F8083FF91EF919F918F917F916F91A2
S1131BC05F914F913F912F910F900FBE0F901F90F7
S1131BD018951F920F920FB60F921124CF92DF9295
S1131BE0EF92FF922F933F934F935F936F937F9363
S1131BF08F939F93AF93BF93EF93FF93809138019B
S1131C00909139016C01092E000CEE08FF08760151
S1131C10DD24CC24409184005091850060E070E084
S1131C20C42AD52AE62AF72AB09B1EC06C012FEFDE
S1131C30C21AD20A0D2C000CEE08FF08D60199270F
S1131C408827C0908400D0908500E12CF12CC82A0C
S1131C50D92AEA2AFB2A08C08EE391E00E9459059A
S1131C6060E471E00E94F704E0913E01F0913F01CD
S1131C70309769F082819381A481B5818C199D0983
S1131C80AE09BF09181619061A061B062CF7309759
S1131C9021F182819381A481B58120913801309111
S1131CA039012A173B07C9F49C01409184005091E3
S1131CB08500841B950B019731F4209184003091A9
S1131CC085002F5F3F4F3093890020938800EFE613
S1131CD0F0E080818260808305C0EFE6F0E08081DF
S1131CE08D7F80830E948E05FF91EF91BF91AF910C
S1131CF09F918F917F916F915F914F913F912F9120
S1131D00FF90EF90DF90CF900F900FBE0F901F9039
S1131D1018953F924F925F926F927F928F929F920B
S1131D20AF92BF92CF92DF92EF92FF920F931F93E5
S1131D30CF93DF932B013C0149015A018FB780787F
S1131D40382EF89488E091E00E945905EC011B8735
S1131D500A87FD86EC86DF86CE86332061F0E0912B
S1131D600201F09103010280F381E02D82819381CD
S1131D70A481B58108C080913A0190913B01A09162
S1131D803C01B0913D01480E591E6A1E7B1E4A82D9
S1131D905B826C827D82181419041A041B0444F0BB
S1131DA00F2E88248A94982CA82CFFE7BF2EF02DA0
S1131DB0840C951CA61CB71C8E829F82A886B986AB
S1131DC02091380130913901C901032E000CAA0B6E
S1131DD0BB0BDC0199278827409184005091850032
S1131DE060E070E0842B952BA62BB72BB09B13C01F
S1131DF0C9010196092E000CAA0BBB0BDC01992723
S1131E008827409184005091850060E070E0842B25
S1131E10952BA62BB72B481A590A6A0A7B0A141465
S1131E20150416041704ACF56EE371E0CE010E94AC
S1131E302805E0913E01F0913F01309721F1828124
S1131E409381A481B58120913801309139012A17F9
S1131E503B07C9F49C014091840050918500841B88
S1131E60950B019731F420918400309185002F5F08
S1131E703F4F3093890020938800EFE6F0E08081A3
S1131E808260808339C0EFE6F0E080818D7F8083BB
S1131E9033C060E471E0CE010E94F704332061F1A5
S1131EA08091060190910701892B31F1E091400165
S1131EB0F091410186819781A085B185E09104016B
S1131EC0F09105010280F381E02D46815781608500
S1131ED07185841B950BA60BB70B72F486E091E019
S1131EE00E94840564E071E00E947A0580910401F7
S1131EF0909105010E94D704332009F07894CE0113
S1131F00DF91CF911F910F91FF90EF90DF90CF90D1
S1131F10BF90AF909F908F907F906F905F904F9005
S1131F203F900895CF92DF92EF92FF920F931F9309
S1131F30CF93DF93EC017B016A011FB71078F8940B
S1131F40A881B981109719F435C0A081B181149684
S1131F50ED91FC9115973097C1F7209102013091D2
S1131F600301A217B30711F0111107C0112309F4DB
S1131F704AC078948FEF9FEF4EC08A819B8100976F
S1131F8019F0FC01158214823B832A83F901D5835D
S1131F90C483CD010E94D704E0910201F0910301B2
S1131FA082819381892B31F4112381F1789480E02B
S1131FB090E031C08091020190910301998388835C
S1131FC0112329F08A819B81019709F07894B60145
S1131FD0CE01F7010995F82E092F8FB7F8941982CD
S1131FE018828A819B818230910538F01B821A8283
S1131FF0FC01158214820E94D704112351F07894B5
S11320008F2D902F08C08FEF9FEF05C080E090E0E8
S113201002C08F2D902FDF91CF911F910F91FF90D0
S1132020EF90DF90CF900895009102011091030189
S113203080E491E00E945905EC01F80193838283C6
S113204078946C857D854E855F858A859B850E9405
S1132050920F8FB7F89468E071E0CE010E9470058A
S1132060E0910401F09105010190F081E02DC2811D
S1132070D381E0914001F09141013097A1F0209784
S113208099F286819781A085B1854E815F816885AB
S11320907985841B950BA60BB70B181619061A061F
S11320A01B060CF0C1CF84E091E00E94840566E039
S11320B071E00E947A05A0910401B091050102C06B
S11320C0A081B1811496ED91FC9115973097C1F7D9
S11320D0CD010E94D704A8CFFC014231B8F49FB7C8
S11320E09078F89450E0440F551FDA01AC5BBE4F72
S11320F0ED93FC93DA01A452BE4F6D937C9321E0DF
S113210030E033832283992309F0789408958C0175
S11321107B016A018FB7F8940E9438047894E11423
S1132120F10441F020E030E0A90160E070E0CB016F
S11321300E94890E8FB7F8940E94900D97FB072E8A
S113214016F4009407D077FD09D00E94B21007FC62
S113215005D03EF4909581959F4F089570956195B3
S11321607F4F0895AA1BBB1B51E107C0AA1FBB1FC9
S1132170A617B70710F0A61BB70B881F991F5A950F
S1132180A9F780959095BC01CD010895DC012D92AD
S11321903D924D925D926D927D928D929D92AD9203
S11321A0BD92CD92DD92ED92FD920D931D93CD9350
S11321B0DD93FF91EF918DB78D938EB78D938FB78C
S11321C08D93ED93FD93882799270994DC01CB0126
S11321D081309105811D2D903D904D905D906D90C5
S11321E07D908D909D90AD90BD90CD90DD90ED90C3
S11321F0FD900D911D91CD91DD91ED91FD910D908D
S1132200F894FEBF0FBEEDBFED91FD910994F894D3
S1052210FFCFFA
S113221201000002000268011D020105050100011E
S1132222010001010E0101010B0100050B00010473
S11322320B0101040F010101010001050F01010558
S10922420B01090F0F0F50
S9030000FC
